{
  "_format": "hh-sol-artifact-1",
  "contractName": "StudentNFT",
  "sourceName": "contracts/StudentNFT.sol",
  "abi": [
    {
      "inputs": [],
      "stateMutability": "nonpayable",
      "type": "constructor"
    },
    {
      "inputs": [
        {
          "internalType": "address",
          "name": "sender",
          "type": "address"
        },
        {
          "internalType": "uint256",
          "name": "tokenId",
          "type": "uint256"
        },
        {
          "internalType": "address",
          "name": "owner",
          "type": "address"
        }
      ],
      "name": "ERC721IncorrectOwner",
      "type": "error"
    },
    {
      "inputs": [
        {
          "internalType": "address",
          "name": "operator",
          "type": "address"
        },
        {
          "internalType": "uint256",
          "name": "tokenId",
          "type": "uint256"
        }
      ],
      "name": "ERC721InsufficientApproval",
      "type": "error"
    },
    {
      "inputs": [
        {
          "internalType": "address",
          "name": "approver",
          "type": "address"
        }
      ],
      "name": "ERC721InvalidApprover",
      "type": "error"
    },
    {
      "inputs": [
        {
          "internalType": "address",
          "name": "operator",
          "type": "address"
        }
      ],
      "name": "ERC721InvalidOperator",
      "type": "error"
    },
    {
      "inputs": [
        {
          "internalType": "address",
          "name": "owner",
          "type": "address"
        }
      ],
      "name": "ERC721InvalidOwner",
      "type": "error"
    },
    {
      "inputs": [
        {
          "internalType": "address",
          "name": "receiver",
          "type": "address"
        }
      ],
      "name": "ERC721InvalidReceiver",
      "type": "error"
    },
    {
      "inputs": [
        {
          "internalType": "address",
          "name": "sender",
          "type": "address"
        }
      ],
      "name": "ERC721InvalidSender",
      "type": "error"
    },
    {
      "inputs": [
        {
          "internalType": "uint256",
          "name": "tokenId",
          "type": "uint256"
        }
      ],
      "name": "ERC721NonexistentToken",
      "type": "error"
    },
    {
      "inputs": [
        {
          "internalType": "address",
          "name": "owner",
          "type": "address"
        }
      ],
      "name": "OwnableInvalidOwner",
      "type": "error"
    },
    {
      "inputs": [
        {
          "internalType": "address",
          "name": "account",
          "type": "address"
        }
      ],
      "name": "OwnableUnauthorizedAccount",
      "type": "error"
    },
    {
      "anonymous": false,
      "inputs": [
        {
          "indexed": true,
          "internalType": "address",
          "name": "owner",
          "type": "address"
        },
        {
          "indexed": true,
          "internalType": "address",
          "name": "approved",
          "type": "address"
        },
        {
          "indexed": true,
          "internalType": "uint256",
          "name": "tokenId",
          "type": "uint256"
        }
      ],
      "name": "Approval",
      "type": "event"
    },
    {
      "anonymous": false,
      "inputs": [
        {
          "indexed": true,
          "internalType": "address",
          "name": "owner",
          "type": "address"
        },
        {
          "indexed": true,
          "internalType": "address",
          "name": "operator",
          "type": "address"
        },
        {
          "indexed": false,
          "internalType": "bool",
          "name": "approved",
          "type": "bool"
        }
      ],
      "name": "ApprovalForAll",
      "type": "event"
    },
    {
      "anonymous": false,
      "inputs": [
        {
          "indexed": true,
          "internalType": "address",
          "name": "previousOwner",
          "type": "address"
        },
        {
          "indexed": true,
          "internalType": "address",
          "name": "newOwner",
          "type": "address"
        }
      ],
      "name": "OwnershipTransferred",
      "type": "event"
    },
    {
      "anonymous": false,
      "inputs": [
        {
          "indexed": true,
          "internalType": "address",
          "name": "from",
          "type": "address"
        },
        {
          "indexed": true,
          "internalType": "address",
          "name": "to",
          "type": "address"
        },
        {
          "indexed": true,
          "internalType": "uint256",
          "name": "tokenId",
          "type": "uint256"
        }
      ],
      "name": "Transfer",
      "type": "event"
    },
    {
      "inputs": [
        {
          "internalType": "address",
          "name": "to",
          "type": "address"
        },
        {
          "internalType": "uint256",
          "name": "tokenId",
          "type": "uint256"
        }
      ],
      "name": "approve",
      "outputs": [],
      "stateMutability": "nonpayable",
      "type": "function"
    },
    {
      "inputs": [
        {
          "internalType": "address",
          "name": "owner",
          "type": "address"
        }
      ],
      "name": "balanceOf",
      "outputs": [
        {
          "internalType": "uint256",
          "name": "",
          "type": "uint256"
        }
      ],
      "stateMutability": "view",
      "type": "function"
    },
    {
      "inputs": [
        {
          "internalType": "uint256",
          "name": "tokenId",
          "type": "uint256"
        }
      ],
      "name": "getApproved",
      "outputs": [
        {
          "internalType": "address",
          "name": "",
          "type": "address"
        }
      ],
      "stateMutability": "view",
      "type": "function"
    },
    {
      "inputs": [
        {
          "internalType": "address",
          "name": "owner",
          "type": "address"
        },
        {
          "internalType": "address",
          "name": "operator",
          "type": "address"
        }
      ],
      "name": "isApprovedForAll",
      "outputs": [
        {
          "internalType": "bool",
          "name": "",
          "type": "bool"
        }
      ],
      "stateMutability": "view",
      "type": "function"
    },
    {
      "inputs": [
        {
          "internalType": "address",
          "name": "to",
          "type": "address"
        },
        {
          "internalType": "string",
          "name": "_studentId",
          "type": "string"
        }
      ],
      "name": "mint",
      "outputs": [],
      "stateMutability": "nonpayable",
      "type": "function"
    },
    {
      "inputs": [],
      "name": "name",
      "outputs": [
        {
          "internalType": "string",
          "name": "",
          "type": "string"
        }
      ],
      "stateMutability": "view",
      "type": "function"
    },
    {
      "inputs": [],
      "name": "nextTokenId",
      "outputs": [
        {
          "internalType": "uint256",
          "name": "",
          "type": "uint256"
        }
      ],
      "stateMutability": "view",
      "type": "function"
    },
    {
      "inputs": [],
      "name": "owner",
      "outputs": [
        {
          "internalType": "address",
          "name": "",
          "type": "address"
        }
      ],
      "stateMutability": "view",
      "type": "function"
    },
    {
      "inputs": [
        {
          "internalType": "uint256",
          "name": "tokenId",
          "type": "uint256"
        }
      ],
      "name": "ownerOf",
      "outputs": [
        {
          "internalType": "address",
          "name": "",
          "type": "address"
        }
      ],
      "stateMutability": "view",
      "type": "function"
    },
    {
      "inputs": [],
      "name": "renounceOwnership",
      "outputs": [],
      "stateMutability": "nonpayable",
      "type": "function"
    },
    {
      "inputs": [
        {
          "internalType": "address",
          "name": "from",
          "type": "address"
        },
        {
          "internalType": "address",
          "name": "to",
          "type": "address"
        },
        {
          "internalType": "uint256",
          "name": "tokenId",
          "type": "uint256"
        }
      ],
      "name": "safeTransferFrom",
      "outputs": [],
      "stateMutability": "nonpayable",
      "type": "function"
    },
    {
      "inputs": [
        {
          "internalType": "address",
          "name": "from",
          "type": "address"
        },
        {
          "internalType": "address",
          "name": "to",
          "type": "address"
        },
        {
          "internalType": "uint256",
          "name": "tokenId",
          "type": "uint256"
        },
        {
          "internalType": "bytes",
          "name": "data",
          "type": "bytes"
        }
      ],
      "name": "safeTransferFrom",
      "outputs": [],
      "stateMutability": "nonpayable",
      "type": "function"
    },
    {
      "inputs": [
        {
          "internalType": "address",
          "name": "operator",
          "type": "address"
        },
        {
          "internalType": "bool",
          "name": "approved",
          "type": "bool"
        }
      ],
      "name": "setApprovalForAll",
      "outputs": [],
      "stateMutability": "nonpayable",
      "type": "function"
    },
    {
      "inputs": [
        {
          "internalType": "uint256",
          "name": "",
          "type": "uint256"
        }
      ],
      "name": "studentIds",
      "outputs": [
        {
          "internalType": "string",
          "name": "",
          "type": "string"
        }
      ],
      "stateMutability": "view",
      "type": "function"
    },
    {
      "inputs": [
        {
          "internalType": "bytes4",
          "name": "interfaceId",
          "type": "bytes4"
        }
      ],
      "name": "supportsInterface",
      "outputs": [
        {
          "internalType": "bool",
          "name": "",
          "type": "bool"
        }
      ],
      "stateMutability": "view",
      "type": "function"
    },
    {
      "inputs": [],
      "name": "symbol",
      "outputs": [
        {
          "internalType": "string",
          "name": "",
          "type": "string"
        }
      ],
      "stateMutability": "view",
      "type": "function"
    },
    {
      "inputs": [
        {
          "internalType": "uint256",
          "name": "tokenId",
          "type": "uint256"
        }
      ],
      "name": "tokenURI",
      "outputs": [
        {
          "internalType": "string",
          "name": "",
          "type": "string"
        }
      ],
      "stateMutability": "view",
      "type": "function"
    },
    {
      "inputs": [
        {
          "internalType": "address",
          "name": "from",
          "type": "address"
        },
        {
          "internalType": "address",
          "name": "to",
          "type": "address"
        },
        {
          "internalType": "uint256",
          "name": "tokenId",
          "type": "uint256"
        }
      ],
      "name": "transferFrom",
      "outputs": [],
      "stateMutability": "nonpayable",
      "type": "function"
    },
    {
      "inputs": [
        {
          "internalType": "address",
          "name": "newOwner",
          "type": "address"
        }
      ],
      "name": "transferOwnership",
      "outputs": [],
      "stateMutability": "nonpayable",
      "type": "function"
    }
  ],
  "bytecode": "0x608060405234801561001057600080fd5b50336040518060400160405280600f81526020017f53747564656e744964656e7469747900000000000000000000000000000000008152506040518060400160405280600381526020017f5354550000000000000000000000000000000000000000000000000000000000815250816000908161008d919061043d565b50806001908161009d919061043d565b505050600073ffffffffffffffffffffffffffffffffffffffff168173ffffffffffffffffffffffffffffffffffffffff16036101125760006040517f1e4fbdf70000000000000000000000000000000000000000000000000000000081526004016101099190610550565b60405180910390fd5b6101218161012760201b60201c565b5061056b565b6000600660009054906101000a900473ffffffffffffffffffffffffffffffffffffffff16905081600660006101000a81548173ffffffffffffffffffffffffffffffffffffffff021916908373ffffffffffffffffffffffffffffffffffffffff1602179055508173ffffffffffffffffffffffffffffffffffffffff168173ffffffffffffffffffffffffffffffffffffffff167f8be0079c531659141344cd1fd0a4f28419497f9722a3daafe3b4186f6b6457e060405160405180910390a35050565b600081519050919050565b7f4e487b7100000000000000000000000000000000000000000000000000000000600052604160045260246000fd5b7f4e487b7100000000000000000000000000000000000000000000000000000000600052602260045260246000fd5b6000600282049050600182168061026e57607f821691505b60208210810361028157610280610227565b5b50919050565b60008190508160005260206000209050919050565b60006020601f8301049050919050565b600082821b905092915050565b6000600883026102e97fffffffffffffffffffffffffffffffffffffffffffffffffffffffffffffffff826102ac565b6102f386836102ac565b95508019841693508086168417925050509392505050565b6000819050919050565b6000819050919050565b600061033a6103356103308461030b565b610315565b61030b565b9050919050565b6000819050919050565b6103548361031f565b61036861036082610341565b8484546102b9565b825550505050565b600090565b61037d610370565b61038881848461034b565b505050565b5b818110156103ac576103a1600082610375565b60018101905061038e565b5050565b601f8211156103f1576103c281610287565b6103cb8461029c565b810160208510156103da578190505b6103ee6103e68561029c565b83018261038d565b50505b505050565b600082821c905092915050565b6000610414600019846008026103f6565b1980831691505092915050565b600061042d8383610403565b9150826002028217905092915050565b610446826101ed565b67ffffffffffffffff81111561045f5761045e6101f8565b5b6104698254610256565b6104748282856103b0565b600060209050601f8311600181146104a75760008415610495578287015190505b61049f8582610421565b865550610507565b601f1984166104b586610287565b60005b828110156104dd578489015182556001820191506020850194506020810190506104b8565b868310156104fa57848901516104f6601f891682610403565b8355505b6001600288020188555050505b505050505050565b600073ffffffffffffffffffffffffffffffffffffffff82169050919050565b600061053a8261050f565b9050919050565b61054a8161052f565b82525050565b60006020820190506105656000830184610541565b92915050565b612af18061057a6000396000f3fe608060405234801561001057600080fd5b50600436106101215760003560e01c8063715018a6116100ad578063b88d4fde11610071578063b88d4fde14610308578063c87b56dd14610324578063d0def52114610354578063e985e9c514610370578063f2fde38b146103a057610121565b8063715018a61461028857806375794a3c146102925780638da5cb5b146102b057806395d89b41146102ce578063a22cb465146102ec57610121565b806323b872dd116100f457806323b872dd146101c057806342842e0e146101dc5780636352211e146101f85780636f28c3551461022857806370a082311461025857610121565b806301ffc9a71461012657806306fdde0314610156578063081812fc14610174578063095ea7b3146101a4575b600080fd5b610140600480360381019061013b9190611aff565b6103bc565b60405161014d9190611b47565b60405180910390f35b61015e61049e565b60405161016b9190611bf2565b60405180910390f35b61018e60048036038101906101899190611c4a565b610530565b60405161019b9190611cb8565b60405180910390f35b6101be60048036038101906101b99190611cff565b61054c565b005b6101da60048036038101906101d59190611d3f565b610562565b005b6101f660048036038101906101f19190611d3f565b610664565b005b610212600480360381019061020d9190611c4a565b610684565b60405161021f9190611cb8565b60405180910390f35b610242600480360381019061023d9190611c4a565b610696565b60405161024f9190611bf2565b60405180910390f35b610272600480360381019061026d9190611d92565b610736565b60405161027f9190611dce565b60405180910390f35b6102906107f0565b005b61029a610804565b6040516102a79190611dce565b60405180910390f35b6102b861080a565b6040516102c59190611cb8565b60405180910390f35b6102d6610834565b6040516102e39190611bf2565b60405180910390f35b61030660048036038101906103019190611e15565b6108c6565b005b610322600480360381019061031d9190611f8a565b6108dc565b005b61033e60048036038101906103399190611c4a565b610901565b60405161034b9190611bf2565b60405180910390f35b61036e600480360381019061036991906120ae565b610a06565b005b61038a6004803603810190610385919061210a565b610a59565b6040516103979190611b47565b60405180910390f35b6103ba60048036038101906103b59190611d92565b610aed565b005b60007f80ac58cd000000000000000000000000000000000000000000000000000000007bffffffffffffffffffffffffffffffffffffffffffffffffffffffff1916827bffffffffffffffffffffffffffffffffffffffffffffffffffffffff1916148061048757507f5b5e139f000000000000000000000000000000000000000000000000000000007bffffffffffffffffffffffffffffffffffffffffffffffffffffffff1916827bffffffffffffffffffffffffffffffffffffffffffffffffffffffff1916145b80610497575061049682610b73565b5b9050919050565b6060600080546104ad90612179565b80601f01602080910402602001604051908101604052809291908181526020018280546104d990612179565b80156105265780601f106104fb57610100808354040283529160200191610526565b820191906000526020600020905b81548152906001019060200180831161050957829003601f168201915b5050505050905090565b600061053b82610bdd565b5061054582610c65565b9050919050565b61055e8282610559610ca2565b610caa565b5050565b600073ffffffffffffffffffffffffffffffffffffffff168273ffffffffffffffffffffffffffffffffffffffff16036105d45760006040517f64a0ae920000000000000000000000000000000000000000000000000000000081526004016105cb9190611cb8565b60405180910390fd5b60006105e883836105e3610ca2565b610cbc565b90508373ffffffffffffffffffffffffffffffffffffffff168173ffffffffffffffffffffffffffffffffffffffff161461065e578382826040517f64283d7b000000000000000000000000000000000000000000000000000000008152600401610655939291906121aa565b60405180910390fd5b50505050565b61067f838383604051806020016040528060008152506108dc565b505050565b600061068f82610bdd565b9050919050565b600860205280600052604060002060009150905080546106b590612179565b80601f01602080910402602001604051908101604052809291908181526020018280546106e190612179565b801561072e5780601f106107035761010080835404028352916020019161072e565b820191906000526020600020905b81548152906001019060200180831161071157829003601f168201915b505050505081565b60008073ffffffffffffffffffffffffffffffffffffffff168273ffffffffffffffffffffffffffffffffffffffff16036107a95760006040517f89c62b640000000000000000000000000000000000000000000000000000000081526004016107a09190611cb8565b60405180910390fd5b600360008373ffffffffffffffffffffffffffffffffffffffff1673ffffffffffffffffffffffffffffffffffffffff168152602001908152602001600020549050919050565b6107f8610d89565b6108026000610e10565b565b60075481565b6000600660009054906101000a900473ffffffffffffffffffffffffffffffffffffffff16905090565b60606001805461084390612179565b80601f016020809104026020016040519081016040528092919081815260200182805461086f90612179565b80156108bc5780601f10610891576101008083540402835291602001916108bc565b820191906000526020600020905b81548152906001019060200180831161089f57829003601f168201915b5050505050905090565b6108d86108d1610ca2565b8383610ed6565b5050565b6108e7848484610562565b6108fb6108f2610ca2565b85858585611045565b50505050565b606061090c82610bdd565b50600060086000848152602001908152602001600020805461092d90612179565b80601f016020809104026020016040519081016040528092919081815260200182805461095990612179565b80156109a65780601f1061097b576101008083540402835291602001916109a6565b820191906000526020600020905b81548152906001019060200180831161098957829003601f168201915b5050505050905060006109db8283846040516020016109c793929190612431565b6040516020818303038152906040526111f6565b9050806040516020016109ee91906124f0565b60405160208183030381529060405292505050919050565b610a0e610d89565b600060076000815480929190610a2390612541565b91905055905081600860008381526020019081526020016000209081610a499190612735565b50610a548382611223565b505050565b6000600560008473ffffffffffffffffffffffffffffffffffffffff1673ffffffffffffffffffffffffffffffffffffffff16815260200190815260200160002060008373ffffffffffffffffffffffffffffffffffffffff1673ffffffffffffffffffffffffffffffffffffffff16815260200190815260200160002060009054906101000a900460ff16905092915050565b610af5610d89565b600073ffffffffffffffffffffffffffffffffffffffff168173ffffffffffffffffffffffffffffffffffffffff1603610b675760006040517f1e4fbdf7000000000000000000000000000000000000000000000000000000008152600401610b5e9190611cb8565b60405180910390fd5b610b7081610e10565b50565b60007f01ffc9a7000000000000000000000000000000000000000000000000000000007bffffffffffffffffffffffffffffffffffffffffffffffffffffffff1916827bffffffffffffffffffffffffffffffffffffffffffffffffffffffff1916149050919050565b600080610be983611241565b9050600073ffffffffffffffffffffffffffffffffffffffff168173ffffffffffffffffffffffffffffffffffffffff1603610c5c57826040517f7e273289000000000000000000000000000000000000000000000000000000008152600401610c539190611dce565b60405180910390fd5b80915050919050565b60006004600083815260200190815260200160002060009054906101000a900473ffffffffffffffffffffffffffffffffffffffff169050919050565b600033905090565b610cb7838383600161127e565b505050565b600080610cc884611241565b9050600073ffffffffffffffffffffffffffffffffffffffff168173ffffffffffffffffffffffffffffffffffffffff1614158015610d345750600073ffffffffffffffffffffffffffffffffffffffff168573ffffffffffffffffffffffffffffffffffffffff1614155b15610d74576040517f08c379a0000000000000000000000000000000000000000000000000000000008152600401610d6b90612879565b60405180910390fd5b610d7f858585611443565b9150509392505050565b610d91610ca2565b73ffffffffffffffffffffffffffffffffffffffff16610daf61080a565b73ffffffffffffffffffffffffffffffffffffffff1614610e0e57610dd2610ca2565b6040517f118cdaa7000000000000000000000000000000000000000000000000000000008152600401610e059190611cb8565b60405180910390fd5b565b6000600660009054906101000a900473ffffffffffffffffffffffffffffffffffffffff16905081600660006101000a81548173ffffffffffffffffffffffffffffffffffffffff021916908373ffffffffffffffffffffffffffffffffffffffff1602179055508173ffffffffffffffffffffffffffffffffffffffff168173ffffffffffffffffffffffffffffffffffffffff167f8be0079c531659141344cd1fd0a4f28419497f9722a3daafe3b4186f6b6457e060405160405180910390a35050565b600073ffffffffffffffffffffffffffffffffffffffff168273ffffffffffffffffffffffffffffffffffffffff1603610f4757816040517f5b08ba18000000000000000000000000000000000000000000000000000000008152600401610f3e9190611cb8565b60405180910390fd5b80600560008573ffffffffffffffffffffffffffffffffffffffff1673ffffffffffffffffffffffffffffffffffffffff16815260200190815260200160002060008473ffffffffffffffffffffffffffffffffffffffff1673ffffffffffffffffffffffffffffffffffffffff16815260200190815260200160002060006101000a81548160ff0219169083151502179055508173ffffffffffffffffffffffffffffffffffffffff168373ffffffffffffffffffffffffffffffffffffffff167f17307eab39ab6107e8899845ad3d59bd9653f200f220920489ca2b5937696c31836040516110389190611b47565b60405180910390a3505050565b60008373ffffffffffffffffffffffffffffffffffffffff163b11156111ef578273ffffffffffffffffffffffffffffffffffffffff1663150b7a02868685856040518563ffffffff1660e01b81526004016110a494939291906128ee565b6020604051808303816000875af19250505080156110e057506040513d601f19601f820116820180604052508101906110dd919061294f565b60015b611164573d8060008114611110576040519150601f19603f3d011682016040523d82523d6000602084013e611115565b606091505b50600081510361115c57836040517f64a0ae920000000000000000000000000000000000000000000000000000000081526004016111539190611cb8565b60405180910390fd5b805160208201fd5b63150b7a0260e01b7bffffffffffffffffffffffffffffffffffffffffffffffffffffffff1916817bffffffffffffffffffffffffffffffffffffffffffffffffffffffff1916146111ed57836040517f64a0ae920000000000000000000000000000000000000000000000000000000081526004016111e49190611cb8565b60405180910390fd5b505b5050505050565b606061121c82604051806060016040528060408152602001612a7c60409139600161165d565b9050919050565b61123d8282604051806020016040528060008152506117f1565b5050565b60006002600083815260200190815260200160002060009054906101000a900473ffffffffffffffffffffffffffffffffffffffff169050919050565b80806112b75750600073ffffffffffffffffffffffffffffffffffffffff168273ffffffffffffffffffffffffffffffffffffffff1614155b156113eb5760006112c784610bdd565b9050600073ffffffffffffffffffffffffffffffffffffffff168373ffffffffffffffffffffffffffffffffffffffff161415801561133257508273ffffffffffffffffffffffffffffffffffffffff168173ffffffffffffffffffffffffffffffffffffffff1614155b801561134557506113438184610a59565b155b1561138757826040517fa9fbf51f00000000000000000000000000000000000000000000000000000000815260040161137e9190611cb8565b60405180910390fd5b81156113e957838573ffffffffffffffffffffffffffffffffffffffff168273ffffffffffffffffffffffffffffffffffffffff167f8c5be1e5ebec7d5bd14f71427d1e84f3dd0314c0f7b2291e5b200ac8c7c3b92560405160405180910390a45b505b836004600085815260200190815260200160002060006101000a81548173ffffffffffffffffffffffffffffffffffffffff021916908373ffffffffffffffffffffffffffffffffffffffff16021790555050505050565b60008061144f84611241565b9050600073ffffffffffffffffffffffffffffffffffffffff168373ffffffffffffffffffffffffffffffffffffffff161461149157611490818486611815565b5b600073ffffffffffffffffffffffffffffffffffffffff168173ffffffffffffffffffffffffffffffffffffffff1614611522576114d360008560008061127e565b6001600360008373ffffffffffffffffffffffffffffffffffffffff1673ffffffffffffffffffffffffffffffffffffffff168152602001908152602001600020600082825403925050819055505b600073ffffffffffffffffffffffffffffffffffffffff168573ffffffffffffffffffffffffffffffffffffffff16146115a5576001600360008773ffffffffffffffffffffffffffffffffffffffff1673ffffffffffffffffffffffffffffffffffffffff168152602001908152602001600020600082825401925050819055505b846002600086815260200190815260200160002060006101000a81548173ffffffffffffffffffffffffffffffffffffffff021916908373ffffffffffffffffffffffffffffffffffffffff160217905550838573ffffffffffffffffffffffffffffffffffffffff168273ffffffffffffffffffffffffffffffffffffffff167fddf252ad1be2c89b69c2b068fc378daa952ba7f163c4a11628f55a4df523b3ef60405160405180910390a4809150509392505050565b6060600084510361167f576040518060200160405280600081525090506117ea565b6000826116b1576003600286516004611698919061297c565b6116a291906129be565b6116ac9190612a21565b6116d8565b6003600286516116c191906129be565b6116cb9190612a21565b60046116d7919061297c565b5b905060008167ffffffffffffffff8111156116f6576116f5611e5f565b5b6040519080825280601f01601f1916602001820160405280156117285781602001600182028036833780820191505090505b50905060018501602082018788518901602081018051600082525b8284101561179e576003840193508351603f8160121c168701518653600186019550603f81600c1c168701518653600186019550603f8160061c168701518653600186019550603f8116870151865360018601955050611743565b80825289156117de5760038c5106600181146117c157600281146117d4576117dc565b603d6001870353603d60028703536117dc565b603d60018703535b505b50505050505080925050505b9392505050565b6117fb83836118d9565b611810611806610ca2565b6000858585611045565b505050565b6118208383836119d2565b6118d457600073ffffffffffffffffffffffffffffffffffffffff168373ffffffffffffffffffffffffffffffffffffffff160361189557806040517f7e27328900000000000000000000000000000000000000000000000000000000815260040161188c9190611dce565b60405180910390fd5b81816040517f177e802f0000000000000000000000000000000000000000000000000000000081526004016118cb929190612a52565b60405180910390fd5b505050565b600073ffffffffffffffffffffffffffffffffffffffff168273ffffffffffffffffffffffffffffffffffffffff160361194b5760006040517f64a0ae920000000000000000000000000000000000000000000000000000000081526004016119429190611cb8565b60405180910390fd5b600061195983836000610cbc565b9050600073ffffffffffffffffffffffffffffffffffffffff168173ffffffffffffffffffffffffffffffffffffffff16146119cd5760006040517f73c6ac6e0000000000000000000000000000000000000000000000000000000081526004016119c49190611cb8565b60405180910390fd5b505050565b60008073ffffffffffffffffffffffffffffffffffffffff168373ffffffffffffffffffffffffffffffffffffffff1614158015611a8a57508273ffffffffffffffffffffffffffffffffffffffff168473ffffffffffffffffffffffffffffffffffffffff161480611a4b5750611a4a8484610a59565b5b80611a8957508273ffffffffffffffffffffffffffffffffffffffff16611a7183610c65565b73ffffffffffffffffffffffffffffffffffffffff16145b5b90509392505050565b6000604051905090565b600080fd5b600080fd5b60007fffffffff0000000000000000000000000000000000000000000000000000000082169050919050565b611adc81611aa7565b8114611ae757600080fd5b50565b600081359050611af981611ad3565b92915050565b600060208284031215611b1557611b14611a9d565b5b6000611b2384828501611aea565b91505092915050565b60008115159050919050565b611b4181611b2c565b82525050565b6000602082019050611b5c6000830184611b38565b92915050565b600081519050919050565b600082825260208201905092915050565b60005b83811015611b9c578082015181840152602081019050611b81565b60008484015250505050565b6000601f19601f8301169050919050565b6000611bc482611b62565b611bce8185611b6d565b9350611bde818560208601611b7e565b611be781611ba8565b840191505092915050565b60006020820190508181036000830152611c0c8184611bb9565b905092915050565b6000819050919050565b611c2781611c14565b8114611c3257600080fd5b50565b600081359050611c4481611c1e565b92915050565b600060208284031215611c6057611c5f611a9d565b5b6000611c6e84828501611c35565b91505092915050565b600073ffffffffffffffffffffffffffffffffffffffff82169050919050565b6000611ca282611c77565b9050919050565b611cb281611c97565b82525050565b6000602082019050611ccd6000830184611ca9565b92915050565b611cdc81611c97565b8114611ce757600080fd5b50565b600081359050611cf981611cd3565b92915050565b60008060408385031215611d1657611d15611a9d565b5b6000611d2485828601611cea565b9250506020611d3585828601611c35565b9150509250929050565b600080600060608486031215611d5857611d57611a9d565b5b6000611d6686828701611cea565b9350506020611d7786828701611cea565b9250506040611d8886828701611c35565b9150509250925092565b600060208284031215611da857611da7611a9d565b5b6000611db684828501611cea565b91505092915050565b611dc881611c14565b82525050565b6000602082019050611de36000830184611dbf565b92915050565b611df281611b2c565b8114611dfd57600080fd5b50565b600081359050611e0f81611de9565b92915050565b60008060408385031215611e2c57611e2b611a9d565b5b6000611e3a85828601611cea565b9250506020611e4b85828601611e00565b9150509250929050565b600080fd5b600080fd5b7f4e487b7100000000000000000000000000000000000000000000000000000000600052604160045260246000fd5b611e9782611ba8565b810181811067ffffffffffffffff82111715611eb657611eb5611e5f565b5b80604052505050565b6000611ec9611a93565b9050611ed58282611e8e565b919050565b600067ffffffffffffffff821115611ef557611ef4611e5f565b5b611efe82611ba8565b9050602081019050919050565b82818337600083830152505050565b6000611f2d611f2884611eda565b611ebf565b905082815260208101848484011115611f4957611f48611e5a565b5b611f54848285611f0b565b509392505050565b600082601f830112611f7157611f70611e55565b5b8135611f81848260208601611f1a565b91505092915050565b60008060008060808587031215611fa457611fa3611a9d565b5b6000611fb287828801611cea565b9450506020611fc387828801611cea565b9350506040611fd487828801611c35565b925050606085013567ffffffffffffffff811115611ff557611ff4611aa2565b5b61200187828801611f5c565b91505092959194509250565b600067ffffffffffffffff82111561202857612027611e5f565b5b61203182611ba8565b9050602081019050919050565b600061205161204c8461200d565b611ebf565b90508281526020810184848401111561206d5761206c611e5a565b5b612078848285611f0b565b509392505050565b600082601f83011261209557612094611e55565b5b81356120a584826020860161203e565b91505092915050565b600080604083850312156120c5576120c4611a9d565b5b60006120d385828601611cea565b925050602083013567ffffffffffffffff8111156120f4576120f3611aa2565b5b61210085828601612080565b9150509250929050565b6000806040838503121561212157612120611a9d565b5b600061212f85828601611cea565b925050602061214085828601611cea565b9150509250929050565b7f4e487b7100000000000000000000000000000000000000000000000000000000600052602260045260246000fd5b6000600282049050600182168061219157607f821691505b6020821081036121a4576121a361214a565b5b50919050565b60006060820190506121bf6000830186611ca9565b6121cc6020830185611dbf565b6121d96040830184611ca9565b949350505050565b600081905092915050565b7f7b226e616d65223a202253747564656e742049443a2000000000000000000000600082015250565b60006122226016836121e1565b915061222d826121ec565b601682019050919050565b600061224382611b62565b61224d81856121e1565b935061225d818560208601611b7e565b80840191505092915050565b7f222c000000000000000000000000000000000000000000000000000000000000600082015250565b600061229f6002836121e1565b91506122aa82612269565b600282019050919050565b7f226465736372697074696f6e223a20224469676974616c204964656e7469747960008201527f20666f722053747564656e742049442000000000000000000000000000000000602082015250565b60006123116030836121e1565b915061231c826122b5565b603082019050919050565b7f2e20566572696669656420627920556e69766572736974792e222c0000000000600082015250565b600061235d601b836121e1565b915061236882612327565b601b82019050919050565b7f2261747472696275746573223a205b7b2274726169745f74797065223a20225360008201527f747564656e74204944222c202276616c7565223a202200000000000000000000602082015250565b60006123cf6036836121e1565b91506123da82612373565b603682019050919050565b7f227d5d7d00000000000000000000000000000000000000000000000000000000600082015250565b600061241b6004836121e1565b9150612426826123e5565b600482019050919050565b600061243c82612215565b91506124488286612238565b915061245382612292565b915061245e82612304565b915061246a8285612238565b915061247582612350565b9150612480826123c2565b915061248c8284612238565b91506124978261240e565b9150819050949350505050565b7f646174613a6170706c69636174696f6e2f6a736f6e3b6261736536342c000000600082015250565b60006124da601d836121e1565b91506124e5826124a4565b601d82019050919050565b60006124fb826124cd565b91506125078284612238565b915081905092915050565b7f4e487b7100000000000000000000000000000000000000000000000000000000600052601160045260246000fd5b600061254c82611c14565b91507fffffffffffffffffffffffffffffffffffffffffffffffffffffffffffffffff820361257e5761257d612512565b5b600182019050919050565b60008190508160005260206000209050919050565b60006020601f8301049050919050565b600082821b905092915050565b6000600883026125eb7fffffffffffffffffffffffffffffffffffffffffffffffffffffffffffffffff826125ae565b6125f586836125ae565b95508019841693508086168417925050509392505050565b6000819050919050565b600061263261262d61262884611c14565b61260d565b611c14565b9050919050565b6000819050919050565b61264c83612617565b61266061265882612639565b8484546125bb565b825550505050565b600090565b612675612668565b612680818484612643565b505050565b5b818110156126a45761269960008261266d565b600181019050612686565b5050565b601f8211156126e9576126ba81612589565b6126c38461259e565b810160208510156126d2578190505b6126e66126de8561259e565b830182612685565b50505b505050565b600082821c905092915050565b600061270c600019846008026126ee565b1980831691505092915050565b600061272583836126fb565b9150826002028217905092915050565b61273e82611b62565b67ffffffffffffffff81111561275757612756611e5f565b5b6127618254612179565b61276c8282856126a8565b600060209050601f83116001811461279f576000841561278d578287015190505b6127978582612719565b8655506127ff565b601f1984166127ad86612589565b60005b828110156127d5578489015182556001820191506020850194506020810190506127b0565b868310156127f257848901516127ee601f8916826126fb565b8355505b6001600288020188555050505b505050505050565b7f53747564656e744e46543a20536f756c626f756e6420746f6b656e2063616e6e60008201527f6f74206265207472616e73666572726564000000000000000000000000000000602082015250565b6000612863603183611b6d565b915061286e82612807565b604082019050919050565b6000602082019050818103600083015261289281612856565b9050919050565b600081519050919050565b600082825260208201905092915050565b60006128c082612899565b6128ca81856128a4565b93506128da818560208601611b7e565b6128e381611ba8565b840191505092915050565b60006080820190506129036000830187611ca9565b6129106020830186611ca9565b61291d6040830185611dbf565b818103606083015261292f81846128b5565b905095945050505050565b60008151905061294981611ad3565b92915050565b60006020828403121561296557612964611a9d565b5b60006129738482850161293a565b91505092915050565b600061298782611c14565b915061299283611c14565b92508282026129a081611c14565b915082820484148315176129b7576129b6612512565b5b5092915050565b60006129c982611c14565b91506129d483611c14565b92508282019050808211156129ec576129eb612512565b5b92915050565b7f4e487b7100000000000000000000000000000000000000000000000000000000600052601260045260246000fd5b6000612a2c82611c14565b9150612a3783611c14565b925082612a4757612a466129f2565b5b828204905092915050565b6000604082019050612a676000830185611ca9565b612a746020830184611dbf565b939250505056fe4142434445464748494a4b4c4d4e4f505152535455565758595a6162636465666768696a6b6c6d6e6f707172737475767778797a303132333435363738392b2fa2646970667358221220883392012bfaf707319a0bef303d3639a7f9c025d008b57aab865d1548d5051e64736f6c634300081c0033",
  "linkReferences": {},
  "deployedLinkReferences": {}
}