{
  "_format": "hh-sol-artifact-1",
  "contractName": "VotingSystem",
  "sourceName": "contracts/VotingSystem.sol",
  "abi": [
    {
      "inputs": [],
      "stateMutability": "nonpayable",
      "type": "constructor"
    },
    {
      "inputs": [
        {
          "internalType": "address",
          "name": "sender",
          "type": "address"
        },
        {
          "internalType": "uint256",
          "name": "tokenId",
          "type": "uint256"
        },
        {
          "internalType": "address",
          "name": "owner",
          "type": "address"
        }
      ],
      "name": "ERC721IncorrectOwner",
      "type": "error"
    },
    {
      "inputs": [
        {
          "internalType": "address",
          "name": "operator",
          "type": "address"
        },
        {
          "internalType": "uint256",
          "name": "tokenId",
          "type": "uint256"
        }
      ],
      "name": "ERC721InsufficientApproval",
      "type": "error"
    },
    {
      "inputs": [
        {
          "internalType": "address",
          "name": "approver",
          "type": "address"
        }
      ],
      "name": "ERC721InvalidApprover",
      "type": "error"
    },
    {
      "inputs": [
        {
          "internalType": "address",
          "name": "operator",
          "type": "address"
        }
      ],
      "name": "ERC721InvalidOperator",
      "type": "error"
    },
    {
      "inputs": [
        {
          "internalType": "address",
          "name": "owner",
          "type": "address"
        }
      ],
      "name": "ERC721InvalidOwner",
      "type": "error"
    },
    {
      "inputs": [
        {
          "internalType": "address",
          "name": "receiver",
          "type": "address"
        }
      ],
      "name": "ERC721InvalidReceiver",
      "type": "error"
    },
    {
      "inputs": [
        {
          "internalType": "address",
          "name": "sender",
          "type": "address"
        }
      ],
      "name": "ERC721InvalidSender",
      "type": "error"
    },
    {
      "inputs": [
        {
          "internalType": "uint256",
          "name": "tokenId",
          "type": "uint256"
        }
      ],
      "name": "ERC721NonexistentToken",
      "type": "error"
    },
    {
      "inputs": [
        {
          "internalType": "address",
          "name": "owner",
          "type": "address"
        }
      ],
      "name": "OwnableInvalidOwner",
      "type": "error"
    },
    {
      "inputs": [
        {
          "internalType": "address",
          "name": "account",
          "type": "address"
        }
      ],
      "name": "OwnableUnauthorizedAccount",
      "type": "error"
    },
    {
      "anonymous": false,
      "inputs": [
        {
          "indexed": true,
          "internalType": "address",
          "name": "owner",
          "type": "address"
        },
        {
          "indexed": true,
          "internalType": "address",
          "name": "approved",
          "type": "address"
        },
        {
          "indexed": true,
          "internalType": "uint256",
          "name": "tokenId",
          "type": "uint256"
        }
      ],
      "name": "Approval",
      "type": "event"
    },
    {
      "anonymous": false,
      "inputs": [
        {
          "indexed": true,
          "internalType": "address",
          "name": "owner",
          "type": "address"
        },
        {
          "indexed": true,
          "internalType": "address",
          "name": "operator",
          "type": "address"
        },
        {
          "indexed": false,
          "internalType": "bool",
          "name": "approved",
          "type": "bool"
        }
      ],
      "name": "ApprovalForAll",
      "type": "event"
    },
    {
      "anonymous": false,
      "inputs": [
        {
          "indexed": true,
          "internalType": "uint256",
          "name": "sessionId",
          "type": "uint256"
        },
        {
          "indexed": false,
          "internalType": "uint256",
          "name": "candidateId",
          "type": "uint256"
        },
        {
          "indexed": false,
          "internalType": "string",
          "name": "name",
          "type": "string"
        },
        {
          "indexed": false,
          "internalType": "string",
          "name": "photoUrl",
          "type": "string"
        }
      ],
      "name": "CandidateAdded",
      "type": "event"
    },
    {
      "anonymous": false,
      "inputs": [
        {
          "indexed": true,
          "internalType": "address",
          "name": "previousOwner",
          "type": "address"
        },
        {
          "indexed": true,
          "internalType": "address",
          "name": "newOwner",
          "type": "address"
        }
      ],
      "name": "OwnershipTransferred",
      "type": "event"
    },
    {
      "anonymous": false,
      "inputs": [
        {
          "indexed": true,
          "internalType": "uint256",
          "name": "sessionId",
          "type": "uint256"
        },
        {
          "indexed": false,
          "internalType": "uint256",
          "name": "voterCount",
          "type": "uint256"
        }
      ],
      "name": "SessionAllowedVotersUpdated",
      "type": "event"
    },
    {
      "anonymous": false,
      "inputs": [
        {
          "indexed": true,
          "internalType": "uint256",
          "name": "sessionId",
          "type": "uint256"
        },
        {
          "indexed": false,
          "internalType": "string",
          "name": "name",
          "type": "string"
        },
        {
          "indexed": false,
          "internalType": "uint256",
          "name": "startTime",
          "type": "uint256"
        },
        {
          "indexed": false,
          "internalType": "uint256",
          "name": "endTime",
          "type": "uint256"
        }
      ],
      "name": "SessionCreated",
      "type": "event"
    },
    {
      "anonymous": false,
      "inputs": [
        {
          "indexed": true,
          "internalType": "uint256",
          "name": "sessionId",
          "type": "uint256"
        },
        {
          "indexed": false,
          "internalType": "bool",
          "name": "isActive",
          "type": "bool"
        }
      ],
      "name": "SessionStatusChanged",
      "type": "event"
    },
    {
      "anonymous": false,
      "inputs": [
        {
          "indexed": true,
          "internalType": "address",
          "name": "from",
          "type": "address"
        },
        {
          "indexed": true,
          "internalType": "address",
          "name": "to",
          "type": "address"
        },
        {
          "indexed": true,
          "internalType": "uint256",
          "name": "tokenId",
          "type": "uint256"
        }
      ],
      "name": "Transfer",
      "type": "event"
    },
    {
      "anonymous": false,
      "inputs": [
        {
          "indexed": true,
          "internalType": "uint256",
          "name": "sessionId",
          "type": "uint256"
        },
        {
          "indexed": true,
          "internalType": "address",
          "name": "voter",
          "type": "address"
        },
        {
          "indexed": true,
          "internalType": "uint256",
          "name": "candidateId",
          "type": "uint256"
        }
      ],
      "name": "Voted",
      "type": "event"
    },
    {
      "inputs": [
        {
          "internalType": "uint256",
          "name": "_sessionId",
          "type": "uint256"
        },
        {
          "internalType": "string",
          "name": "_name",
          "type": "string"
        },
        {
          "internalType": "string",
          "name": "_photoUrl",
          "type": "string"
        },
        {
          "internalType": "string",
          "name": "_vision",
          "type": "string"
        },
        {
          "internalType": "string",
          "name": "_mission",
          "type": "string"
        }
      ],
      "name": "addCandidate",
      "outputs": [],
      "stateMutability": "nonpayable",
      "type": "function"
    },
    {
      "inputs": [
        {
          "internalType": "address",
          "name": "to",
          "type": "address"
        },
        {
          "internalType": "uint256",
          "name": "tokenId",
          "type": "uint256"
        }
      ],
      "name": "approve",
      "outputs": [],
      "stateMutability": "nonpayable",
      "type": "function"
    },
    {
      "inputs": [
        {
          "internalType": "address",
          "name": "owner",
          "type": "address"
        }
      ],
      "name": "balanceOf",
      "outputs": [
        {
          "internalType": "uint256",
          "name": "",
          "type": "uint256"
        }
      ],
      "stateMutability": "view",
      "type": "function"
    },
    {
      "inputs": [
        {
          "internalType": "uint256",
          "name": "_sessionId",
          "type": "uint256"
        },
        {
          "internalType": "address",
          "name": "_user",
          "type": "address"
        }
      ],
      "name": "checkUserVoted",
      "outputs": [
        {
          "internalType": "bool",
          "name": "",
          "type": "bool"
        }
      ],
      "stateMutability": "view",
      "type": "function"
    },
    {
      "inputs": [
        {
          "internalType": "string",
          "name": "_name",
          "type": "string"
        },
        {
          "internalType": "string",
          "name": "_description",
          "type": "string"
        },
        {
          "internalType": "uint256",
          "name": "_startTime",
          "type": "uint256"
        },
        {
          "internalType": "uint256",
          "name": "_endTime",
          "type": "uint256"
        }
      ],
      "name": "createSession",
      "outputs": [],
      "stateMutability": "nonpayable",
      "type": "function"
    },
    {
      "inputs": [],
      "name": "getAllSessions",
      "outputs": [
        {
          "components": [
            {
              "internalType": "uint256",
              "name": "id",
              "type": "uint256"
            },
            {
              "internalType": "string",
              "name": "name",
              "type": "string"
            },
            {
              "internalType": "string",
              "name": "description",
              "type": "string"
            },
            {
              "internalType": "uint256",
              "name": "startTime",
              "type": "uint256"
            },
            {
              "internalType": "uint256",
              "name": "endTime",
              "type": "uint256"
            },
            {
              "internalType": "bool",
              "name": "isActive",
              "type": "bool"
            }
          ],
          "internalType": "struct VotingSystem.Session[]",
          "name": "",
          "type": "tuple[]"
        }
      ],
      "stateMutability": "view",
      "type": "function"
    },
    {
      "inputs": [
        {
          "internalType": "uint256",
          "name": "tokenId",
          "type": "uint256"
        }
      ],
      "name": "getApproved",
      "outputs": [
        {
          "internalType": "address",
          "name": "",
          "type": "address"
        }
      ],
      "stateMutability": "view",
      "type": "function"
    },
    {
      "inputs": [
        {
          "internalType": "uint256",
          "name": "_sessionId",
          "type": "uint256"
        }
      ],
      "name": "getCandidates",
      "outputs": [
        {
          "components": [
            {
              "internalType": "uint256",
              "name": "id",
              "type": "uint256"
            },
            {
              "internalType": "string",
              "name": "name",
              "type": "string"
            },
            {
              "internalType": "string",
              "name": "photoUrl",
              "type": "string"
            },
            {
              "internalType": "string",
              "name": "vision",
              "type": "string"
            },
            {
              "internalType": "string",
              "name": "mission",
              "type": "string"
            },
            {
              "internalType": "uint256",
              "name": "voteCount",
              "type": "uint256"
            }
          ],
          "internalType": "struct VotingSystem.Candidate[]",
          "name": "",
          "type": "tuple[]"
        }
      ],
      "stateMutability": "view",
      "type": "function"
    },
    {
      "inputs": [
        {
          "internalType": "uint256",
          "name": "_sessionId",
          "type": "uint256"
        }
      ],
      "name": "getSessionAllowedVoters",
      "outputs": [
        {
          "internalType": "address[]",
          "name": "",
          "type": "address[]"
        }
      ],
      "stateMutability": "view",
      "type": "function"
    },
    {
      "inputs": [
        {
          "internalType": "address",
          "name": "_user",
          "type": "address"
        }
      ],
      "name": "getUserHistory",
      "outputs": [
        {
          "components": [
            {
              "internalType": "uint256",
              "name": "sessionId",
              "type": "uint256"
            },
            {
              "internalType": "uint256",
              "name": "candidateId",
              "type": "uint256"
            },
            {
              "internalType": "uint256",
              "name": "timestamp",
              "type": "uint256"
            },
            {
              "internalType": "string",
              "name": "sessionName",
              "type": "string"
            },
            {
              "internalType": "string",
              "name": "candidateName",
              "type": "string"
            }
          ],
          "internalType": "struct VotingSystem.VoteRecord[]",
          "name": "",
          "type": "tuple[]"
        }
      ],
      "stateMutability": "view",
      "type": "function"
    },
    {
      "inputs": [
        {
          "internalType": "uint256",
          "name": "",
          "type": "uint256"
        },
        {
          "internalType": "address",
          "name": "",
          "type": "address"
        }
      ],
      "name": "hasVotedInSession",
      "outputs": [
        {
          "internalType": "bool",
          "name": "",
          "type": "bool"
        }
      ],
      "stateMutability": "view",
      "type": "function"
    },
    {
      "inputs": [
        {
          "internalType": "address",
          "name": "owner",
          "type": "address"
        },
        {
          "internalType": "address",
          "name": "operator",
          "type": "address"
        }
      ],
      "name": "isApprovedForAll",
      "outputs": [
        {
          "internalType": "bool",
          "name": "",
          "type": "bool"
        }
      ],
      "stateMutability": "view",
      "type": "function"
    },
    {
      "inputs": [
        {
          "internalType": "uint256",
          "name": "_sessionId",
          "type": "uint256"
        },
        {
          "internalType": "address",
          "name": "_voter",
          "type": "address"
        }
      ],
      "name": "isEligibleForSession",
      "outputs": [
        {
          "internalType": "bool",
          "name": "",
          "type": "bool"
        }
      ],
      "stateMutability": "view",
      "type": "function"
    },
    {
      "inputs": [
        {
          "internalType": "uint256",
          "name": "",
          "type": "uint256"
        },
        {
          "internalType": "address",
          "name": "",
          "type": "address"
        }
      ],
      "name": "isSessionVoterAllowed",
      "outputs": [
        {
          "internalType": "bool",
          "name": "",
          "type": "bool"
        }
      ],
      "stateMutability": "view",
      "type": "function"
    },
    {
      "inputs": [
        {
          "internalType": "address",
          "name": "to",
          "type": "address"
        },
        {
          "internalType": "string",
          "name": "_studentId",
          "type": "string"
        }
      ],
      "name": "mint",
      "outputs": [],
      "stateMutability": "nonpayable",
      "type": "function"
    },
    {
      "inputs": [],
      "name": "name",
      "outputs": [
        {
          "internalType": "string",
          "name": "",
          "type": "string"
        }
      ],
      "stateMutability": "view",
      "type": "function"
    },
    {
      "inputs": [],
      "name": "nextTokenId",
      "outputs": [
        {
          "internalType": "uint256",
          "name": "",
          "type": "uint256"
        }
      ],
      "stateMutability": "view",
      "type": "function"
    },
    {
      "inputs": [],
      "name": "owner",
      "outputs": [
        {
          "internalType": "address",
          "name": "",
          "type": "address"
        }
      ],
      "stateMutability": "view",
      "type": "function"
    },
    {
      "inputs": [
        {
          "internalType": "uint256",
          "name": "tokenId",
          "type": "uint256"
        }
      ],
      "name": "ownerOf",
      "outputs": [
        {
          "internalType": "address",
          "name": "",
          "type": "address"
        }
      ],
      "stateMutability": "view",
      "type": "function"
    },
    {
      "inputs": [],
      "name": "renounceOwnership",
      "outputs": [],
      "stateMutability": "nonpayable",
      "type": "function"
    },
    {
      "inputs": [
        {
          "internalType": "address",
          "name": "from",
          "type": "address"
        },
        {
          "internalType": "address",
          "name": "to",
          "type": "address"
        },
        {
          "internalType": "uint256",
          "name": "tokenId",
          "type": "uint256"
        }
      ],
      "name": "safeTransferFrom",
      "outputs": [],
      "stateMutability": "nonpayable",
      "type": "function"
    },
    {
      "inputs": [
        {
          "internalType": "address",
          "name": "from",
          "type": "address"
        },
        {
          "internalType": "address",
          "name": "to",
          "type": "address"
        },
        {
          "internalType": "uint256",
          "name": "tokenId",
          "type": "uint256"
        },
        {
          "internalType": "bytes",
          "name": "data",
          "type": "bytes"
        }
      ],
      "name": "safeTransferFrom",
      "outputs": [],
      "stateMutability": "nonpayable",
      "type": "function"
    },
    {
      "inputs": [
        {
          "internalType": "uint256",
          "name": "",
          "type": "uint256"
        },
        {
          "internalType": "uint256",
          "name": "",
          "type": "uint256"
        }
      ],
      "name": "sessionCandidates",
      "outputs": [
        {
          "internalType": "uint256",
          "name": "id",
          "type": "uint256"
        },
        {
          "internalType": "string",
          "name": "name",
          "type": "string"
        },
        {
          "internalType": "string",
          "name": "photoUrl",
          "type": "string"
        },
        {
          "internalType": "string",
          "name": "vision",
          "type": "string"
        },
        {
          "internalType": "string",
          "name": "mission",
          "type": "string"
        },
        {
          "internalType": "uint256",
          "name": "voteCount",
          "type": "uint256"
        }
      ],
      "stateMutability": "view",
      "type": "function"
    },
    {
      "inputs": [
        {
          "internalType": "uint256",
          "name": "",
          "type": "uint256"
        }
      ],
      "name": "sessions",
      "outputs": [
        {
          "internalType": "uint256",
          "name": "id",
          "type": "uint256"
        },
        {
          "internalType": "string",
          "name": "name",
          "type": "string"
        },
        {
          "internalType": "string",
          "name": "description",
          "type": "string"
        },
        {
          "internalType": "uint256",
          "name": "startTime",
          "type": "uint256"
        },
        {
          "internalType": "uint256",
          "name": "endTime",
          "type": "uint256"
        },
        {
          "internalType": "bool",
          "name": "isActive",
          "type": "bool"
        }
      ],
      "stateMutability": "view",
      "type": "function"
    },
    {
      "inputs": [],
      "name": "sessionsCount",
      "outputs": [
        {
          "internalType": "uint256",
          "name": "",
          "type": "uint256"
        }
      ],
      "stateMutability": "view",
      "type": "function"
    },
    {
      "inputs": [
        {
          "internalType": "address",
          "name": "operator",
          "type": "address"
        },
        {
          "internalType": "bool",
          "name": "approved",
          "type": "bool"
        }
      ],
      "name": "setApprovalForAll",
      "outputs": [],
      "stateMutability": "nonpayable",
      "type": "function"
    },
    {
      "inputs": [
        {
          "internalType": "uint256",
          "name": "_sessionId",
          "type": "uint256"
        },
        {
          "internalType": "address[]",
          "name": "_voters",
          "type": "address[]"
        }
      ],
      "name": "setSessionAllowedVoters",
      "outputs": [],
      "stateMutability": "nonpayable",
      "type": "function"
    },
    {
      "inputs": [
        {
          "internalType": "uint256",
          "name": "_sessionId",
          "type": "uint256"
        },
        {
          "internalType": "bool",
          "name": "_isActive",
          "type": "bool"
        }
      ],
      "name": "setSessionStatus",
      "outputs": [],
      "stateMutability": "nonpayable",
      "type": "function"
    },
    {
      "inputs": [
        {
          "internalType": "uint256",
          "name": "",
          "type": "uint256"
        }
      ],
      "name": "studentIds",
      "outputs": [
        {
          "internalType": "string",
          "name": "",
          "type": "string"
        }
      ],
      "stateMutability": "view",
      "type": "function"
    },
    {
      "inputs": [
        {
          "internalType": "bytes4",
          "name": "interfaceId",
          "type": "bytes4"
        }
      ],
      "name": "supportsInterface",
      "outputs": [
        {
          "internalType": "bool",
          "name": "",
          "type": "bool"
        }
      ],
      "stateMutability": "view",
      "type": "function"
    },
    {
      "inputs": [],
      "name": "symbol",
      "outputs": [
        {
          "internalType": "string",
          "name": "",
          "type": "string"
        }
      ],
      "stateMutability": "view",
      "type": "function"
    },
    {
      "inputs": [
        {
          "internalType": "uint256",
          "name": "tokenId",
          "type": "uint256"
        }
      ],
      "name": "tokenURI",
      "outputs": [
        {
          "internalType": "string",
          "name": "",
          "type": "string"
        }
      ],
      "stateMutability": "view",
      "type": "function"
    },
    {
      "inputs": [
        {
          "internalType": "address",
          "name": "from",
          "type": "address"
        },
        {
          "internalType": "address",
          "name": "to",
          "type": "address"
        },
        {
          "internalType": "uint256",
          "name": "tokenId",
          "type": "uint256"
        }
      ],
      "name": "transferFrom",
      "outputs": [],
      "stateMutability": "nonpayable",
      "type": "function"
    },
    {
      "inputs": [
        {
          "internalType": "address",
          "name": "newOwner",
          "type": "address"
        }
      ],
      "name": "transferOwnership",
      "outputs": [],
      "stateMutability": "nonpayable",
      "type": "function"
    },
    {
      "inputs": [
        {
          "internalType": "address",
          "name": "",
          "type": "address"
        },
        {
          "internalType": "uint256",
          "name": "",
          "type": "uint256"
        }
      ],
      "name": "userVoteHistory",
      "outputs": [
        {
          "internalType": "uint256",
          "name": "sessionId",
          "type": "uint256"
        },
        {
          "internalType": "uint256",
          "name": "candidateId",
          "type": "uint256"
        },
        {
          "internalType": "uint256",
          "name": "timestamp",
          "type": "uint256"
        },
        {
          "internalType": "string",
          "name": "sessionName",
          "type": "string"
        },
        {
          "internalType": "string",
          "name": "candidateName",
          "type": "string"
        }
      ],
      "stateMutability": "view",
      "type": "function"
    },
    {
      "inputs": [
        {
          "internalType": "uint256",
          "name": "_sessionId",
          "type": "uint256"
        },
        {
          "internalType": "uint256",
          "name": "_candidateId",
          "type": "uint256"
        }
      ],
      "name": "vote",
      "outputs": [],
      "stateMutability": "nonpayable",
      "type": "function"
    }
  ],
  "bytecode": "0x608060405234801561001057600080fd5b50336040518060400160405280600f81526020017f53747564656e744964656e7469747900000000000000000000000000000000008152506040518060400160405280600381526020017f5354550000000000000000000000000000000000000000000000000000000000815250816000908161008d919061043d565b50806001908161009d919061043d565b505050600073ffffffffffffffffffffffffffffffffffffffff168173ffffffffffffffffffffffffffffffffffffffff16036101125760006040517f1e4fbdf70000000000000000000000000000000000000000000000000000000081526004016101099190610550565b60405180910390fd5b6101218161012760201b60201c565b5061056b565b6000600660009054906101000a900473ffffffffffffffffffffffffffffffffffffffff16905081600660006101000a81548173ffffffffffffffffffffffffffffffffffffffff021916908373ffffffffffffffffffffffffffffffffffffffff1602179055508173ffffffffffffffffffffffffffffffffffffffff168173ffffffffffffffffffffffffffffffffffffffff167f8be0079c531659141344cd1fd0a4f28419497f9722a3daafe3b4186f6b6457e060405160405180910390a35050565b600081519050919050565b7f4e487b7100000000000000000000000000000000000000000000000000000000600052604160045260246000fd5b7f4e487b7100000000000000000000000000000000000000000000000000000000600052602260045260246000fd5b6000600282049050600182168061026e57607f821691505b60208210810361028157610280610227565b5b50919050565b60008190508160005260206000209050919050565b60006020601f8301049050919050565b600082821b905092915050565b6000600883026102e97fffffffffffffffffffffffffffffffffffffffffffffffffffffffffffffffff826102ac565b6102f386836102ac565b95508019841693508086168417925050509392505050565b6000819050919050565b6000819050919050565b600061033a6103356103308461030b565b610315565b61030b565b9050919050565b6000819050919050565b6103548361031f565b61036861036082610341565b8484546102b9565b825550505050565b600090565b61037d610370565b61038881848461034b565b505050565b5b818110156103ac576103a1600082610375565b60018101905061038e565b5050565b601f8211156103f1576103c281610287565b6103cb8461029c565b810160208510156103da578190505b6103ee6103e68561029c565b83018261038d565b50505b505050565b600082821c905092915050565b6000610414600019846008026103f6565b1980831691505092915050565b600061042d8383610403565b9150826002028217905092915050565b610446826101ed565b67ffffffffffffffff81111561045f5761045e6101f8565b5b6104698254610256565b6104748282856103b0565b600060209050601f8311600181146104a75760008415610495578287015190505b61049f8582610421565b865550610507565b601f1984166104b586610287565b60005b828110156104dd578489015182556001820191506020850194506020810190506104b8565b868310156104fa57848901516104f6601f891682610403565b8355505b6001600288020188555050505b505050505050565b600073ffffffffffffffffffffffffffffffffffffffff82169050919050565b600061053a8261050f565b9050919050565b61054a8161052f565b82525050565b60006020820190506105656000830184610541565b92915050565b615d308061057a6000396000f3fe608060405234801561001057600080fd5b506004361061021c5760003560e01c806375794a3c11610125578063a80e6e38116100ad578063c87b56dd1161007c578063c87b56dd146106a5578063d0def521146106d5578063d2bd5bb7146106f1578063e985e9c514610721578063f2fde38b146107515761021c565b8063a80e6e3814610609578063b384abef1461063d578063b410ca7814610659578063b88d4fde146106895761021c565b80638da5cb5b116100f45780638da5cb5b1461056557806395d89b41146105835780639ab8f8fc146105a1578063a22cb465146105d1578063a5bdf4e4146105ed5761021c565b806375794a3c146104ad57806378548399146104cb5780637d6ba55d146104fb57806383c4b7a3146105305761021c565b8063414c2c49116101a857806354ca06b41161017757806354ca06b4146103f55780636352211e146104135780636f28c3551461044357806370a0823114610473578063715018a6146104a35761021c565b8063414c2c491461037157806342842e0e1461038d5780634ab0a898146103a95780634fb3d3b1146103c55761021c565b8063095ea7b3116101ef578063095ea7b3146102cf578063119aeab7146102eb57806323b872dd14610307578063312f6307146103235780633e39a7a5146103415761021c565b806301ffc9a71461022157806306fdde0314610251578063081812fc1461026f5780630819ad5c1461029f575b600080fd5b61023b60048036038101906102369190613cd1565b61076d565b6040516102489190613d19565b60405180910390f35b61025961084f565b6040516102669190613dc4565b60405180910390f35b61028960048036038101906102849190613e1c565b6108e1565b6040516102969190613e8a565b60405180910390f35b6102b960048036038101906102b49190613e1c565b6108fd565b6040516102c69190613f63565b60405180910390f35b6102e960048036038101906102e49190613fb1565b6109ef565b005b61030560048036038101906103009190614126565b610a05565b005b610321600480360381019061031c9190614211565b610c04565b005b61032b610d06565b6040516103389190614273565b60405180910390f35b61035b60048036038101906103569190613e1c565b610d0c565b6040516103689190614447565b60405180910390f35b61038b60048036038101906103869190614495565b610fda565b005b6103a760048036038101906103a29190614211565b61109d565b005b6103c360048036038101906103be919061459d565b6110bd565b005b6103df60048036038101906103da91906145f9565b61144b565b6040516103ec9190614765565b60405180910390f35b6103fd61162b565b60405161040a91906148e8565b60405180910390f35b61042d60048036038101906104289190613e1c565b611857565b60405161043a9190613e8a565b60405180910390f35b61045d60048036038101906104589190613e1c565b611869565b60405161046a9190613dc4565b60405180910390f35b61048d600480360381019061048891906145f9565b611909565b60405161049a9190614273565b60405180910390f35b6104ab6119c3565b005b6104b56119d7565b6040516104c29190614273565b60405180910390f35b6104e560048036038101906104e0919061490a565b6119dd565b6040516104f29190613d19565b60405180910390f35b6105156004803603810190610510919061494a565b611a45565b6040516105279695949392919061498a565b60405180910390f35b61054a60048036038101906105459190613e1c565b611cbe565b60405161055c96959493929190614a07565b60405180910390f35b61056d611e17565b60405161057a9190613e8a565b60405180910390f35b61058b611e41565b6040516105989190613dc4565b60405180910390f35b6105bb60048036038101906105b6919061490a565b611ed3565b6040516105c89190613d19565b60405180910390f35b6105eb60048036038101906105e69190614a76565b611f02565b005b61060760048036038101906106029190614ab6565b611f18565b005b610623600480360381019061061e9190613fb1565b612030565b604051610634959493929190614b55565b60405180910390f35b6106576004803603810190610652919061494a565b612193565b005b610673600480360381019061066e919061490a565b612886565b6040516106809190613d19565b60405180910390f35b6106a3600480360381019061069e9190614c57565b612966565b005b6106bf60048036038101906106ba9190613e1c565b61298b565b6040516106cc9190613dc4565b60405180910390f35b6106ef60048036038101906106ea9190614cda565b612a90565b005b61070b6004803603810190610706919061490a565b612b86565b6040516107189190613d19565b60405180910390f35b61073b60048036038101906107369190614d36565b612bb5565b6040516107489190613d19565b60405180910390f35b61076b600480360381019061076691906145f9565b612c49565b005b60007f80ac58cd000000000000000000000000000000000000000000000000000000007bffffffffffffffffffffffffffffffffffffffffffffffffffffffff1916827bffffffffffffffffffffffffffffffffffffffffffffffffffffffff1916148061083857507f5b5e139f000000000000000000000000000000000000000000000000000000007bffffffffffffffffffffffffffffffffffffffffffffffffffffffff1916827bffffffffffffffffffffffffffffffffffffffffffffffffffffffff1916145b80610848575061084782612ccf565b5b9050919050565b60606000805461085e90614da5565b80601f016020809104026020016040519081016040528092919081815260200182805461088a90614da5565b80156108d75780601f106108ac576101008083540402835291602001916108d7565b820191906000526020600020905b8154815290600101906020018083116108ba57829003601f168201915b5050505050905090565b60006108ec82612d39565b506108f682612dc1565b9050919050565b60606000821180156109115750600f548211155b610950576040517f08c379a000000000000000000000000000000000000000000000000000000000815260040161094790614e22565b60405180910390fd5b600d60008381526020019081526020016000208054806020026020016040519081016040528092919081815260200182805480156109e357602002820191906000526020600020905b8160009054906101000a900473ffffffffffffffffffffffffffffffffffffffff1673ffffffffffffffffffffffffffffffffffffffff1681526020019060010190808311610999575b50505050509050919050565b610a0182826109fc612dfe565b612e06565b5050565b610a0d612e18565b600085118015610a1f5750600f548511155b610a5e576040517f08c379a0000000000000000000000000000000000000000000000000000000008152600401610a5590614e22565b60405180910390fd5b6009600086815260200190815260200160002060050160009054906101000a900460ff16610ac1576040517f08c379a0000000000000000000000000000000000000000000000000000000008152600401610ab890614e8e565b60405180910390fd5b60006001600a600088815260200190815260200160002080549050610ae69190614edd565b9050600a60008781526020019081526020016000206040518060c0016040528083815260200187815260200186815260200185815260200184815260200160008152509080600181540180825580915050600190039060005260206000209060060201600090919091909150600082015181600001556020820151816001019081610b7191906150bd565b506040820151816002019081610b8791906150bd565b506060820151816003019081610b9d91906150bd565b506080820151816004019081610bb391906150bd565b5060a082015181600501555050857f503cfceb0fb2178c5fb47ff394c816e4075abc8066c3dcb16d08a76847ee6e16828787604051610bf49392919061518f565b60405180910390a2505050505050565b600073ffffffffffffffffffffffffffffffffffffffff168273ffffffffffffffffffffffffffffffffffffffff1603610c765760006040517f64a0ae92000000000000000000000000000000000000000000000000000000008152600401610c6d9190613e8a565b60405180910390fd5b6000610c8a8383610c85612dfe565b612e9f565b90508373ffffffffffffffffffffffffffffffffffffffff168173ffffffffffffffffffffffffffffffffffffffff1614610d00578382826040517f64283d7b000000000000000000000000000000000000000000000000000000008152600401610cf7939291906151d4565b60405180910390fd5b50505050565b600f5481565b6060600a6000838152602001908152602001600020805480602002602001604051908101604052809291908181526020016000905b82821015610fcf57838290600052602060002090600602016040518060c001604052908160008201548152602001600182018054610d7e90614da5565b80601f0160208091040260200160405190810160405280929190818152602001828054610daa90614da5565b8015610df75780601f10610dcc57610100808354040283529160200191610df7565b820191906000526020600020905b815481529060010190602001808311610dda57829003601f168201915b50505050508152602001600282018054610e1090614da5565b80601f0160208091040260200160405190810160405280929190818152602001828054610e3c90614da5565b8015610e895780601f10610e5e57610100808354040283529160200191610e89565b820191906000526020600020905b815481529060010190602001808311610e6c57829003601f168201915b50505050508152602001600382018054610ea290614da5565b80601f0160208091040260200160405190810160405280929190818152602001828054610ece90614da5565b8015610f1b5780601f10610ef057610100808354040283529160200191610f1b565b820191906000526020600020905b815481529060010190602001808311610efe57829003601f168201915b50505050508152602001600482018054610f3490614da5565b80601f0160208091040260200160405190810160405280929190818152602001828054610f6090614da5565b8015610fad5780601f10610f8257610100808354040283529160200191610fad565b820191906000526020600020905b815481529060010190602001808311610f9057829003601f168201915b5050505050815260200160058201548152505081526020019060010190610d41565b505050509050919050565b610fe2612e18565b600082118015610ff45750600f548211155b611033576040517f08c379a000000000000000000000000000000000000000000000000000000000815260040161102a90614e22565b60405180910390fd5b806009600084815260200190815260200160002060050160006101000a81548160ff021916908315150217905550817fb9780f4122c541e2b1edee07b1a4ce43dd3780c564bed9d103c302c17260dc5a826040516110919190613d19565b60405180910390a25050565b6110b883838360405180602001604052806000815250612966565b505050565b6110c5612e18565b6000821180156110d75750600f548211155b611116576040517f08c379a000000000000000000000000000000000000000000000000000000000815260040161110d90614e22565b60405180910390fd5b6000600d6000848152602001908152602001600020905060005b81805490508110156111ef576000600c600086815260200190815260200160002060008484815481106111665761116561520b565b5b9060005260206000200160009054906101000a900473ffffffffffffffffffffffffffffffffffffffff1673ffffffffffffffffffffffffffffffffffffffff1673ffffffffffffffffffffffffffffffffffffffff16815260200190815260200160002060006101000a81548160ff0219169083151502179055508080600101915050611130565b50600d6000848152602001908152602001600020600061120f9190613bef565b60005b82518110156113f75760008382815181106112305761122f61520b565b5b60200260200101519050600073ffffffffffffffffffffffffffffffffffffffff168173ffffffffffffffffffffffffffffffffffffffff16036112a9576040517f08c379a00000000000000000000000000000000000000000000000000000000081526004016112a090615286565b60405180910390fd5b600c600086815260200190815260200160002060008273ffffffffffffffffffffffffffffffffffffffff1673ffffffffffffffffffffffffffffffffffffffff16815260200190815260200160002060009054906101000a900460ff166113e9576001600c600087815260200190815260200160002060008373ffffffffffffffffffffffffffffffffffffffff1673ffffffffffffffffffffffffffffffffffffffff16815260200190815260200160002060006101000a81548160ff021916908315150217905550600d6000868152602001908152602001600020819080600181540180825580915050600190039060005260206000200160009091909190916101000a81548173ffffffffffffffffffffffffffffffffffffffff021916908373ffffffffffffffffffffffffffffffffffffffff1602179055505b508080600101915050611212565b50827fcb154e3e500347cc5c18d8cf97dff834f3422c9c65ebfd2afb8fc3de1fe38fcf600d60008681526020019081526020016000208054905060405161143e9190614273565b60405180910390a2505050565b6060600e60008373ffffffffffffffffffffffffffffffffffffffff1673ffffffffffffffffffffffffffffffffffffffff168152602001908152602001600020805480602002602001604051908101604052809291908181526020016000905b8282101561162057838290600052602060002090600502016040518060a00160405290816000820154815260200160018201548152602001600282015481526020016003820180546114fd90614da5565b80601f016020809104026020016040519081016040528092919081815260200182805461152990614da5565b80156115765780601f1061154b57610100808354040283529160200191611576565b820191906000526020600020905b81548152906001019060200180831161155957829003601f168201915b5050505050815260200160048201805461158f90614da5565b80601f01602080910402602001604051908101604052809291908181526020018280546115bb90614da5565b80156116085780601f106115dd57610100808354040283529160200191611608565b820191906000526020600020905b8154815290600101906020018083116115eb57829003601f168201915b505050505081525050815260200190600101906114ac565b505050509050919050565b60606000600f5467ffffffffffffffff81111561164b5761164a613ffb565b5b60405190808252806020026020018201604052801561168457816020015b611671613c10565b8152602001906001900390816116695790505b5090506000600190505b600f54811161184f57600960008281526020019081526020016000206040518060c0016040529081600082015481526020016001820180546116cf90614da5565b80601f01602080910402602001604051908101604052809291908181526020018280546116fb90614da5565b80156117485780601f1061171d57610100808354040283529160200191611748565b820191906000526020600020905b81548152906001019060200180831161172b57829003601f168201915b5050505050815260200160028201805461176190614da5565b80601f016020809104026020016040519081016040528092919081815260200182805461178d90614da5565b80156117da5780601f106117af576101008083540402835291602001916117da565b820191906000526020600020905b8154815290600101906020018083116117bd57829003601f168201915b5050505050815260200160038201548152602001600482015481526020016005820160009054906101000a900460ff1615151515815250508260018361182091906152a6565b815181106118315761183061520b565b5b60200260200101819052508080611847906152da565b91505061168e565b508091505090565b600061186282612d39565b9050919050565b6008602052806000526040600020600091509050805461188890614da5565b80601f01602080910402602001604051908101604052809291908181526020018280546118b490614da5565b80156119015780601f106118d657610100808354040283529160200191611901565b820191906000526020600020905b8154815290600101906020018083116118e457829003601f168201915b505050505081565b60008073ffffffffffffffffffffffffffffffffffffffff168273ffffffffffffffffffffffffffffffffffffffff160361197c5760006040517f89c62b640000000000000000000000000000000000000000000000000000000081526004016119739190613e8a565b60405180910390fd5b600360008373ffffffffffffffffffffffffffffffffffffffff1673ffffffffffffffffffffffffffffffffffffffff168152602001908152602001600020549050919050565b6119cb612e18565b6119d56000612f6c565b565b60075481565b6000600b600084815260200190815260200160002060008373ffffffffffffffffffffffffffffffffffffffff1673ffffffffffffffffffffffffffffffffffffffff16815260200190815260200160002060009054906101000a900460ff16905092915050565b600a6020528160005260406000208181548110611a6157600080fd5b906000526020600020906006020160009150915050806000015490806001018054611a8b90614da5565b80601f0160208091040260200160405190810160405280929190818152602001828054611ab790614da5565b8015611b045780601f10611ad957610100808354040283529160200191611b04565b820191906000526020600020905b815481529060010190602001808311611ae757829003601f168201915b505050505090806002018054611b1990614da5565b80601f0160208091040260200160405190810160405280929190818152602001828054611b4590614da5565b8015611b925780601f10611b6757610100808354040283529160200191611b92565b820191906000526020600020905b815481529060010190602001808311611b7557829003601f168201915b505050505090806003018054611ba790614da5565b80601f0160208091040260200160405190810160405280929190818152602001828054611bd390614da5565b8015611c205780601f10611bf557610100808354040283529160200191611c20565b820191906000526020600020905b815481529060010190602001808311611c0357829003601f168201915b505050505090806004018054611c3590614da5565b80601f0160208091040260200160405190810160405280929190818152602001828054611c6190614da5565b8015611cae5780601f10611c8357610100808354040283529160200191611cae565b820191906000526020600020905b815481529060010190602001808311611c9157829003601f168201915b5050505050908060050154905086565b6009602052806000526040600020600091509050806000015490806001018054611ce790614da5565b80601f0160208091040260200160405190810160405280929190818152602001828054611d1390614da5565b8015611d605780601f10611d3557610100808354040283529160200191611d60565b820191906000526020600020905b815481529060010190602001808311611d4357829003601f168201915b505050505090806002018054611d7590614da5565b80601f0160208091040260200160405190810160405280929190818152602001828054611da190614da5565b8015611dee5780601f10611dc357610100808354040283529160200191611dee565b820191906000526020600020905b815481529060010190602001808311611dd157829003601f168201915b5050505050908060030154908060040154908060050160009054906101000a900460ff16905086565b6000600660009054906101000a900473ffffffffffffffffffffffffffffffffffffffff16905090565b606060018054611e5090614da5565b80601f0160208091040260200160405190810160405280929190818152602001828054611e7c90614da5565b8015611ec95780601f10611e9e57610100808354040283529160200191611ec9565b820191906000526020600020905b815481529060010190602001808311611eac57829003601f168201915b5050505050905090565b600c6020528160005260406000206020528060005260406000206000915091509054906101000a900460ff1681565b611f14611f0d612dfe565b8383613032565b5050565b611f20612e18565b600f6000815480929190611f33906152da565b91905055506040518060c00160405280600f5481526020018581526020018481526020018381526020018281526020016001151581525060096000600f548152602001908152602001600020600082015181600001556020820151816001019081611f9e91906150bd565b506040820151816002019081611fb491906150bd565b50606082015181600301556080820151816004015560a08201518160050160006101000a81548160ff021916908315150217905550905050600f547f4904011aa43162d2343adeb37498885f778d0af67c7ccfc7810d7068192b2a1b85848460405161202293929190615322565b60405180910390a250505050565b600e602052816000526040600020818154811061204c57600080fd5b90600052602060002090600502016000915091505080600001549080600101549080600201549080600301805461208290614da5565b80601f01602080910402602001604051908101604052809291908181526020018280546120ae90614da5565b80156120fb5780601f106120d0576101008083540402835291602001916120fb565b820191906000526020600020905b8154815290600101906020018083116120de57829003601f168201915b50505050509080600401805461211090614da5565b80601f016020809104026020016040519081016040528092919081815260200182805461213c90614da5565b80156121895780601f1061215e57610100808354040283529160200191612189565b820191906000526020600020905b81548152906001019060200180831161216c57829003601f168201915b5050505050905085565b6000821180156121a55750600f548211155b6121e4576040517f08c379a00000000000000000000000000000000000000000000000000000000081526004016121db90614e22565b60405180910390fd5b6000600960008481526020019081526020016000206040518060c00160405290816000820154815260200160018201805461221e90614da5565b80601f016020809104026020016040519081016040528092919081815260200182805461224a90614da5565b80156122975780601f1061226c57610100808354040283529160200191612297565b820191906000526020600020905b81548152906001019060200180831161227a57829003601f168201915b505050505081526020016002820180546122b090614da5565b80601f01602080910402602001604051908101604052809291908181526020018280546122dc90614da5565b80156123295780601f106122fe57610100808354040283529160200191612329565b820191906000526020600020905b81548152906001019060200180831161230c57829003601f168201915b5050505050815260200160038201548152602001600482015481526020016005820160009054906101000a900460ff16151515158152505090508060a001516123a7576040517f08c379a000000000000000000000000000000000000000000000000000000000815260040161239e906153ac565b60405180910390fd5b80606001514210156123ee576040517f08c379a00000000000000000000000000000000000000000000000000000000081526004016123e590615418565b60405180910390fd5b8060800151421115612435576040517f08c379a000000000000000000000000000000000000000000000000000000000815260040161242c90615484565b60405180910390fd5b600b600084815260200190815260200160002060003373ffffffffffffffffffffffffffffffffffffffff1673ffffffffffffffffffffffffffffffffffffffff16815260200190815260200160002060009054906101000a900460ff16156124d3576040517f08c379a00000000000000000000000000000000000000000000000000000000081526004016124ca90615516565b60405180910390fd5b6124dd8333612886565b61251c576040517f08c379a0000000000000000000000000000000000000000000000000000000008152600401612513906155a8565b60405180910390fd5b600061252733611909565b11612567576040517f08c379a000000000000000000000000000000000000000000000000000000000815260040161255e9061563a565b60405180910390fd5b60008211801561258d5750600a6000848152602001908152602001600020805490508211155b6125cc576040517f08c379a00000000000000000000000000000000000000000000000000000000081526004016125c3906156a6565b60405180910390fd5b6001600b600085815260200190815260200160002060003373ffffffffffffffffffffffffffffffffffffffff1673ffffffffffffffffffffffffffffffffffffffff16815260200190815260200160002060006101000a81548160ff021916908315150217905550600a600084815260200190815260200160002060018361265591906152a6565b815481106126665761266561520b565b5b90600052602060002090600602016005016000815480929190612688906152da565b91905055506000600a60008581526020019081526020016000206001846126af91906152a6565b815481106126c0576126bf61520b565b5b906000526020600020906006020160010180546126dc90614da5565b80601f016020809104026020016040519081016040528092919081815260200182805461270890614da5565b80156127555780601f1061272a57610100808354040283529160200191612755565b820191906000526020600020905b81548152906001019060200180831161273857829003601f168201915b50505050509050600e60003373ffffffffffffffffffffffffffffffffffffffff1673ffffffffffffffffffffffffffffffffffffffff1681526020019081526020016000206040518060a0016040528086815260200185815260200142815260200184602001518152602001838152509080600181540180825580915050600190039060005260206000209060050201600090919091909150600082015181600001556020820151816001015560408201518160020155606082015181600301908161282291906150bd565b50608082015181600401908161283891906150bd565b505050823373ffffffffffffffffffffffffffffffffffffffff16857f1abe610cf2bf87e57dcc1181fcf5ac0934e843d8344ab9eed6e86c799f62585e60405160405180910390a450505050565b600080831180156128995750600f548311155b6128d8576040517f08c379a00000000000000000000000000000000000000000000000000000000081526004016128cf90614e22565b60405180910390fd5b6000600d600085815260200190815260200160002080549050036128ff5760019050612960565b600c600084815260200190815260200160002060008373ffffffffffffffffffffffffffffffffffffffff1673ffffffffffffffffffffffffffffffffffffffff16815260200190815260200160002060009054906101000a900460ff1690505b92915050565b612971848484610c04565b61298561297c612dfe565b858585856131a1565b50505050565b606061299682612d39565b5060006008600084815260200190815260200160002080546129b790614da5565b80601f01602080910402602001604051908101604052809291908181526020018280546129e390614da5565b8015612a305780601f10612a0557610100808354040283529160200191612a30565b820191906000526020600020905b815481529060010190602001808311612a1357829003601f168201915b505050505090506000612a65828384604051602001612a5193929190615916565b604051602081830303815290604052613352565b905080604051602001612a7891906159d5565b60405160208183030381529060405292505050919050565b612a98612e18565b601081604051612aa891906159f7565b908152602001604051809103902060009054906101000a900460ff1615612b04576040517f08c379a0000000000000000000000000000000000000000000000000000000008152600401612afb90615a5a565b60405180910390fd5b600060076000815480929190612b19906152da565b91905055905081600860008381526020019081526020016000209081612b3f91906150bd565b506001601083604051612b5291906159f7565b908152602001604051809103902060006101000a81548160ff021916908315150217905550612b81838261337f565b505050565b600b6020528160005260406000206020528060005260406000206000915091509054906101000a900460ff1681565b6000600560008473ffffffffffffffffffffffffffffffffffffffff1673ffffffffffffffffffffffffffffffffffffffff16815260200190815260200160002060008373ffffffffffffffffffffffffffffffffffffffff1673ffffffffffffffffffffffffffffffffffffffff16815260200190815260200160002060009054906101000a900460ff16905092915050565b612c51612e18565b600073ffffffffffffffffffffffffffffffffffffffff168173ffffffffffffffffffffffffffffffffffffffff1603612cc35760006040517f1e4fbdf7000000000000000000000000000000000000000000000000000000008152600401612cba9190613e8a565b60405180910390fd5b612ccc81612f6c565b50565b60007f01ffc9a7000000000000000000000000000000000000000000000000000000007bffffffffffffffffffffffffffffffffffffffffffffffffffffffff1916827bffffffffffffffffffffffffffffffffffffffffffffffffffffffff1916149050919050565b600080612d458361339d565b9050600073ffffffffffffffffffffffffffffffffffffffff168173ffffffffffffffffffffffffffffffffffffffff1603612db857826040517f7e273289000000000000000000000000000000000000000000000000000000008152600401612daf9190614273565b60405180910390fd5b80915050919050565b60006004600083815260200190815260200160002060009054906101000a900473ffffffffffffffffffffffffffffffffffffffff169050919050565b600033905090565b612e1383838360016133da565b505050565b612e20612dfe565b73ffffffffffffffffffffffffffffffffffffffff16612e3e611e17565b73ffffffffffffffffffffffffffffffffffffffff1614612e9d57612e61612dfe565b6040517f118cdaa7000000000000000000000000000000000000000000000000000000008152600401612e949190613e8a565b60405180910390fd5b565b600080612eab8461339d565b9050600073ffffffffffffffffffffffffffffffffffffffff168173ffffffffffffffffffffffffffffffffffffffff1614158015612f175750600073ffffffffffffffffffffffffffffffffffffffff168573ffffffffffffffffffffffffffffffffffffffff1614155b15612f57576040517f08c379a0000000000000000000000000000000000000000000000000000000008152600401612f4e90615aec565b60405180910390fd5b612f6285858561359f565b9150509392505050565b6000600660009054906101000a900473ffffffffffffffffffffffffffffffffffffffff16905081600660006101000a81548173ffffffffffffffffffffffffffffffffffffffff021916908373ffffffffffffffffffffffffffffffffffffffff1602179055508173ffffffffffffffffffffffffffffffffffffffff168173ffffffffffffffffffffffffffffffffffffffff167f8be0079c531659141344cd1fd0a4f28419497f9722a3daafe3b4186f6b6457e060405160405180910390a35050565b600073ffffffffffffffffffffffffffffffffffffffff168273ffffffffffffffffffffffffffffffffffffffff16036130a357816040517f5b08ba1800000000000000000000000000000000000000000000000000000000815260040161309a9190613e8a565b60405180910390fd5b80600560008573ffffffffffffffffffffffffffffffffffffffff1673ffffffffffffffffffffffffffffffffffffffff16815260200190815260200160002060008473ffffffffffffffffffffffffffffffffffffffff1673ffffffffffffffffffffffffffffffffffffffff16815260200190815260200160002060006101000a81548160ff0219169083151502179055508173ffffffffffffffffffffffffffffffffffffffff168373ffffffffffffffffffffffffffffffffffffffff167f17307eab39ab6107e8899845ad3d59bd9653f200f220920489ca2b5937696c31836040516131949190613d19565b60405180910390a3505050565b60008373ffffffffffffffffffffffffffffffffffffffff163b111561334b578273ffffffffffffffffffffffffffffffffffffffff1663150b7a02868685856040518563ffffffff1660e01b81526004016132009493929190615b61565b6020604051808303816000875af192505050801561323c57506040513d601f19601f820116820180604052508101906132399190615bc2565b60015b6132c0573d806000811461326c576040519150601f19603f3d011682016040523d82523d6000602084013e613271565b606091505b5060008151036132b857836040517f64a0ae920000000000000000000000000000000000000000000000000000000081526004016132af9190613e8a565b60405180910390fd5b805160208201fd5b63150b7a0260e01b7bffffffffffffffffffffffffffffffffffffffffffffffffffffffff1916817bffffffffffffffffffffffffffffffffffffffffffffffffffffffff19161461334957836040517f64a0ae920000000000000000000000000000000000000000000000000000000081526004016133409190613e8a565b60405180910390fd5b505b5050505050565b606061337882604051806060016040528060408152602001615cbb6040913960016137b9565b9050919050565b61339982826040518060200160405280600081525061394d565b5050565b60006002600083815260200190815260200160002060009054906101000a900473ffffffffffffffffffffffffffffffffffffffff169050919050565b80806134135750600073ffffffffffffffffffffffffffffffffffffffff168273ffffffffffffffffffffffffffffffffffffffff1614155b1561354757600061342384612d39565b9050600073ffffffffffffffffffffffffffffffffffffffff168373ffffffffffffffffffffffffffffffffffffffff161415801561348e57508273ffffffffffffffffffffffffffffffffffffffff168173ffffffffffffffffffffffffffffffffffffffff1614155b80156134a1575061349f8184612bb5565b155b156134e357826040517fa9fbf51f0000000000000000000000000000000000000000000000000000000081526004016134da9190613e8a565b60405180910390fd5b811561354557838573ffffffffffffffffffffffffffffffffffffffff168273ffffffffffffffffffffffffffffffffffffffff167f8c5be1e5ebec7d5bd14f71427d1e84f3dd0314c0f7b2291e5b200ac8c7c3b92560405160405180910390a45b505b836004600085815260200190815260200160002060006101000a81548173ffffffffffffffffffffffffffffffffffffffff021916908373ffffffffffffffffffffffffffffffffffffffff16021790555050505050565b6000806135ab8461339d565b9050600073ffffffffffffffffffffffffffffffffffffffff168373ffffffffffffffffffffffffffffffffffffffff16146135ed576135ec818486613971565b5b600073ffffffffffffffffffffffffffffffffffffffff168173ffffffffffffffffffffffffffffffffffffffff161461367e5761362f6000856000806133da565b6001600360008373ffffffffffffffffffffffffffffffffffffffff1673ffffffffffffffffffffffffffffffffffffffff168152602001908152602001600020600082825403925050819055505b600073ffffffffffffffffffffffffffffffffffffffff168573ffffffffffffffffffffffffffffffffffffffff1614613701576001600360008773ffffffffffffffffffffffffffffffffffffffff1673ffffffffffffffffffffffffffffffffffffffff168152602001908152602001600020600082825401925050819055505b846002600086815260200190815260200160002060006101000a81548173ffffffffffffffffffffffffffffffffffffffff021916908373ffffffffffffffffffffffffffffffffffffffff160217905550838573ffffffffffffffffffffffffffffffffffffffff168273ffffffffffffffffffffffffffffffffffffffff167fddf252ad1be2c89b69c2b068fc378daa952ba7f163c4a11628f55a4df523b3ef60405160405180910390a4809150509392505050565b606060008451036137db57604051806020016040528060008152509050613946565b60008261380d5760036002865160046137f49190615bef565b6137fe9190614edd565b6138089190615c60565b613834565b60036002865161381d9190614edd565b6138279190615c60565b60046138339190615bef565b5b905060008167ffffffffffffffff81111561385257613851613ffb565b5b6040519080825280601f01601f1916602001820160405280156138845781602001600182028036833780820191505090505b50905060018501602082018788518901602081018051600082525b828410156138fa576003840193508351603f8160121c168701518653600186019550603f81600c1c168701518653600186019550603f8160061c168701518653600186019550603f811687015186536001860195505061389f565b808252891561393a5760038c51066001811461391d576002811461393057613938565b603d6001870353603d6002870353613938565b603d60018703535b505b50505050505080925050505b9392505050565b6139578383613a35565b61396c613962612dfe565b60008585856131a1565b505050565b61397c838383613b2e565b613a3057600073ffffffffffffffffffffffffffffffffffffffff168373ffffffffffffffffffffffffffffffffffffffff16036139f157806040517f7e2732890000000000000000000000000000000000000000000000000000000081526004016139e89190614273565b60405180910390fd5b81816040517f177e802f000000000000000000000000000000000000000000000000000000008152600401613a27929190615c91565b60405180910390fd5b505050565b600073ffffffffffffffffffffffffffffffffffffffff168273ffffffffffffffffffffffffffffffffffffffff1603613aa75760006040517f64a0ae92000000000000000000000000000000000000000000000000000000008152600401613a9e9190613e8a565b60405180910390fd5b6000613ab583836000612e9f565b9050600073ffffffffffffffffffffffffffffffffffffffff168173ffffffffffffffffffffffffffffffffffffffff1614613b295760006040517f73c6ac6e000000000000000000000000000000000000000000000000000000008152600401613b209190613e8a565b60405180910390fd5b505050565b60008073ffffffffffffffffffffffffffffffffffffffff168373ffffffffffffffffffffffffffffffffffffffff1614158015613be657508273ffffffffffffffffffffffffffffffffffffffff168473ffffffffffffffffffffffffffffffffffffffff161480613ba75750613ba68484612bb5565b5b80613be557508273ffffffffffffffffffffffffffffffffffffffff16613bcd83612dc1565b73ffffffffffffffffffffffffffffffffffffffff16145b5b90509392505050565b5080546000825590600052602060002090810190613c0d9190613c48565b50565b6040518060c0016040528060008152602001606081526020016060815260200160008152602001600081526020016000151581525090565b5b80821115613c61576000816000905550600101613c49565b5090565b6000604051905090565b600080fd5b600080fd5b60007fffffffff0000000000000000000000000000000000000000000000000000000082169050919050565b613cae81613c79565b8114613cb957600080fd5b50565b600081359050613ccb81613ca5565b92915050565b600060208284031215613ce757613ce6613c6f565b5b6000613cf584828501613cbc565b91505092915050565b60008115159050919050565b613d1381613cfe565b82525050565b6000602082019050613d2e6000830184613d0a565b92915050565b600081519050919050565b600082825260208201905092915050565b60005b83811015613d6e578082015181840152602081019050613d53565b60008484015250505050565b6000601f19601f8301169050919050565b6000613d9682613d34565b613da08185613d3f565b9350613db0818560208601613d50565b613db981613d7a565b840191505092915050565b60006020820190508181036000830152613dde8184613d8b565b905092915050565b6000819050919050565b613df981613de6565b8114613e0457600080fd5b50565b600081359050613e1681613df0565b92915050565b600060208284031215613e3257613e31613c6f565b5b6000613e4084828501613e07565b91505092915050565b600073ffffffffffffffffffffffffffffffffffffffff82169050919050565b6000613e7482613e49565b9050919050565b613e8481613e69565b82525050565b6000602082019050613e9f6000830184613e7b565b92915050565b600081519050919050565b600082825260208201905092915050565b6000819050602082019050919050565b613eda81613e69565b82525050565b6000613eec8383613ed1565b60208301905092915050565b6000602082019050919050565b6000613f1082613ea5565b613f1a8185613eb0565b9350613f2583613ec1565b8060005b83811015613f56578151613f3d8882613ee0565b9750613f4883613ef8565b925050600181019050613f29565b5085935050505092915050565b60006020820190508181036000830152613f7d8184613f05565b905092915050565b613f8e81613e69565b8114613f9957600080fd5b50565b600081359050613fab81613f85565b92915050565b60008060408385031215613fc857613fc7613c6f565b5b6000613fd685828601613f9c565b9250506020613fe785828601613e07565b9150509250929050565b600080fd5b600080fd5b7f4e487b7100000000000000000000000000000000000000000000000000000000600052604160045260246000fd5b61403382613d7a565b810181811067ffffffffffffffff8211171561405257614051613ffb565b5b80604052505050565b6000614065613c65565b9050614071828261402a565b919050565b600067ffffffffffffffff82111561409157614090613ffb565b5b61409a82613d7a565b9050602081019050919050565b82818337600083830152505050565b60006140c96140c484614076565b61405b565b9050828152602081018484840111156140e5576140e4613ff6565b5b6140f08482856140a7565b509392505050565b600082601f83011261410d5761410c613ff1565b5b813561411d8482602086016140b6565b91505092915050565b600080600080600060a0868803121561414257614141613c6f565b5b600061415088828901613e07565b955050602086013567ffffffffffffffff81111561417157614170613c74565b5b61417d888289016140f8565b945050604086013567ffffffffffffffff81111561419e5761419d613c74565b5b6141aa888289016140f8565b935050606086013567ffffffffffffffff8111156141cb576141ca613c74565b5b6141d7888289016140f8565b925050608086013567ffffffffffffffff8111156141f8576141f7613c74565b5b614204888289016140f8565b9150509295509295909350565b60008060006060848603121561422a57614229613c6f565b5b600061423886828701613f9c565b935050602061424986828701613f9c565b925050604061425a86828701613e07565b9150509250925092565b61426d81613de6565b82525050565b60006020820190506142886000830184614264565b92915050565b600081519050919050565b600082825260208201905092915050565b6000819050602082019050919050565b6142c381613de6565b82525050565b600082825260208201905092915050565b60006142e582613d34565b6142ef81856142c9565b93506142ff818560208601613d50565b61430881613d7a565b840191505092915050565b600060c08301600083015161432b60008601826142ba565b506020830151848203602086015261434382826142da565b9150506040830151848203604086015261435d82826142da565b9150506060830151848203606086015261437782826142da565b9150506080830151848203608086015261439182826142da565b91505060a08301516143a660a08601826142ba565b508091505092915050565b60006143bd8383614313565b905092915050565b6000602082019050919050565b60006143dd8261428e565b6143e78185614299565b9350836020820285016143f9856142aa565b8060005b85811015614435578484038952815161441685826143b1565b9450614421836143c5565b925060208a019950506001810190506143fd565b50829750879550505050505092915050565b6000602082019050818103600083015261446181846143d2565b905092915050565b61447281613cfe565b811461447d57600080fd5b50565b60008135905061448f81614469565b92915050565b600080604083850312156144ac576144ab613c6f565b5b60006144ba85828601613e07565b92505060206144cb85828601614480565b9150509250929050565b600067ffffffffffffffff8211156144f0576144ef613ffb565b5b602082029050602081019050919050565b600080fd5b6000614519614514846144d5565b61405b565b9050808382526020820190506020840283018581111561453c5761453b614501565b5b835b8181101561456557806145518882613f9c565b84526020840193505060208101905061453e565b5050509392505050565b600082601f83011261458457614583613ff1565b5b8135614594848260208601614506565b91505092915050565b600080604083850312156145b4576145b3613c6f565b5b60006145c285828601613e07565b925050602083013567ffffffffffffffff8111156145e3576145e2613c74565b5b6145ef8582860161456f565b9150509250929050565b60006020828403121561460f5761460e613c6f565b5b600061461d84828501613f9c565b91505092915050565b600081519050919050565b600082825260208201905092915050565b6000819050602082019050919050565b600060a08301600083015161466a60008601826142ba565b50602083015161467d60208601826142ba565b50604083015161469060408601826142ba565b50606083015184820360608601526146a882826142da565b915050608083015184820360808601526146c282826142da565b9150508091505092915050565b60006146db8383614652565b905092915050565b6000602082019050919050565b60006146fb82614626565b6147058185614631565b93508360208202850161471785614642565b8060005b85811015614753578484038952815161473485826146cf565b945061473f836146e3565b925060208a0199505060018101905061471b565b50829750879550505050505092915050565b6000602082019050818103600083015261477f81846146f0565b905092915050565b600081519050919050565b600082825260208201905092915050565b6000819050602082019050919050565b6147bc81613cfe565b82525050565b600060c0830160008301516147da60008601826142ba565b50602083015184820360208601526147f282826142da565b9150506040830151848203604086015261480c82826142da565b915050606083015161482160608601826142ba565b50608083015161483460808601826142ba565b5060a083015161484760a08601826147b3565b508091505092915050565b600061485e83836147c2565b905092915050565b6000602082019050919050565b600061487e82614787565b6148888185614792565b93508360208202850161489a856147a3565b8060005b858110156148d657848403895281516148b78582614852565b94506148c283614866565b925060208a0199505060018101905061489e565b50829750879550505050505092915050565b600060208201905081810360008301526149028184614873565b905092915050565b6000806040838503121561492157614920613c6f565b5b600061492f85828601613e07565b925050602061494085828601613f9c565b9150509250929050565b6000806040838503121561496157614960613c6f565b5b600061496f85828601613e07565b925050602061498085828601613e07565b9150509250929050565b600060c08201905061499f6000830189614264565b81810360208301526149b18188613d8b565b905081810360408301526149c58187613d8b565b905081810360608301526149d98186613d8b565b905081810360808301526149ed8185613d8b565b90506149fc60a0830184614264565b979650505050505050565b600060c082019050614a1c6000830189614264565b8181036020830152614a2e8188613d8b565b90508181036040830152614a428187613d8b565b9050614a516060830186614264565b614a5e6080830185614264565b614a6b60a0830184613d0a565b979650505050505050565b60008060408385031215614a8d57614a8c613c6f565b5b6000614a9b85828601613f9c565b9250506020614aac85828601614480565b9150509250929050565b60008060008060808587031215614ad057614acf613c6f565b5b600085013567ffffffffffffffff811115614aee57614aed613c74565b5b614afa878288016140f8565b945050602085013567ffffffffffffffff811115614b1b57614b1a613c74565b5b614b27878288016140f8565b9350506040614b3887828801613e07565b9250506060614b4987828801613e07565b91505092959194509250565b600060a082019050614b6a6000830188614264565b614b776020830187614264565b614b846040830186614264565b8181036060830152614b968185613d8b565b90508181036080830152614baa8184613d8b565b90509695505050505050565b600067ffffffffffffffff821115614bd157614bd0613ffb565b5b614bda82613d7a565b9050602081019050919050565b6000614bfa614bf584614bb6565b61405b565b905082815260208101848484011115614c1657614c15613ff6565b5b614c218482856140a7565b509392505050565b600082601f830112614c3e57614c3d613ff1565b5b8135614c4e848260208601614be7565b91505092915050565b60008060008060808587031215614c7157614c70613c6f565b5b6000614c7f87828801613f9c565b9450506020614c9087828801613f9c565b9350506040614ca187828801613e07565b925050606085013567ffffffffffffffff811115614cc257614cc1613c74565b5b614cce87828801614c29565b91505092959194509250565b60008060408385031215614cf157614cf0613c6f565b5b6000614cff85828601613f9c565b925050602083013567ffffffffffffffff811115614d2057614d1f613c74565b5b614d2c858286016140f8565b9150509250929050565b60008060408385031215614d4d57614d4c613c6f565b5b6000614d5b85828601613f9c565b9250506020614d6c85828601613f9c565b9150509250929050565b7f4e487b7100000000000000000000000000000000000000000000000000000000600052602260045260246000fd5b60006002820490506001821680614dbd57607f821691505b602082108103614dd057614dcf614d76565b5b50919050565b7f496e76616c69642073657373696f6e2049440000000000000000000000000000600082015250565b6000614e0c601283613d3f565b9150614e1782614dd6565b602082019050919050565b60006020820190508181036000830152614e3b81614dff565b9050919050565b7f53657373696f6e206973206e6f74206163746976650000000000000000000000600082015250565b6000614e78601583613d3f565b9150614e8382614e42565b602082019050919050565b60006020820190508181036000830152614ea781614e6b565b9050919050565b7f4e487b7100000000000000000000000000000000000000000000000000000000600052601160045260246000fd5b6000614ee882613de6565b9150614ef383613de6565b9250828201905080821115614f0b57614f0a614eae565b5b92915050565b60008190508160005260206000209050919050565b60006020601f8301049050919050565b600082821b905092915050565b600060088302614f737fffffffffffffffffffffffffffffffffffffffffffffffffffffffffffffffff82614f36565b614f7d8683614f36565b95508019841693508086168417925050509392505050565b6000819050919050565b6000614fba614fb5614fb084613de6565b614f95565b613de6565b9050919050565b6000819050919050565b614fd483614f9f565b614fe8614fe082614fc1565b848454614f43565b825550505050565b600090565b614ffd614ff0565b615008818484614fcb565b505050565b5b8181101561502c57615021600082614ff5565b60018101905061500e565b5050565b601f8211156150715761504281614f11565b61504b84614f26565b8101602085101561505a578190505b61506e61506685614f26565b83018261500d565b50505b505050565b600082821c905092915050565b600061509460001984600802615076565b1980831691505092915050565b60006150ad8383615083565b9150826002028217905092915050565b6150c682613d34565b67ffffffffffffffff8111156150df576150de613ffb565b5b6150e98254614da5565b6150f4828285615030565b600060209050601f8311600181146151275760008415615115578287015190505b61511f85826150a1565b865550615187565b601f19841661513586614f11565b60005b8281101561515d57848901518255600182019150602085019450602081019050615138565b8683101561517a5784890151615176601f891682615083565b8355505b6001600288020188555050505b505050505050565b60006060820190506151a46000830186614264565b81810360208301526151b68185613d8b565b905081810360408301526151ca8184613d8b565b9050949350505050565b60006060820190506151e96000830186613e7b565b6151f66020830185614264565b6152036040830184613e7b565b949350505050565b7f4e487b7100000000000000000000000000000000000000000000000000000000600052603260045260246000fd5b7f496e76616c696420766f74657220616464726573730000000000000000000000600082015250565b6000615270601583613d3f565b915061527b8261523a565b602082019050919050565b6000602082019050818103600083015261529f81615263565b9050919050565b60006152b182613de6565b91506152bc83613de6565b92508282039050818111156152d4576152d3614eae565b5b92915050565b60006152e582613de6565b91507fffffffffffffffffffffffffffffffffffffffffffffffffffffffffffffffff820361531757615316614eae565b5b600182019050919050565b6000606082019050818103600083015261533c8186613d8b565b905061534b6020830185614264565b6153586040830184614264565b949350505050565b7f53657373696f6e20697320636c6f736564000000000000000000000000000000600082015250565b6000615396601183613d3f565b91506153a182615360565b602082019050919050565b600060208201905081810360008301526153c581615389565b9050919050565b7f566f74696e6720686173206e6f74207374617274656400000000000000000000600082015250565b6000615402601683613d3f565b915061540d826153cc565b602082019050919050565b60006020820190508181036000830152615431816153f5565b9050919050565b7f566f74696e672068617320656e64656400000000000000000000000000000000600082015250565b600061546e601083613d3f565b915061547982615438565b602082019050919050565b6000602082019050818103600083015261549d81615461565b9050919050565b7f596f75206861766520616c726561647920766f74656420696e2074686973207360008201527f657373696f6e0000000000000000000000000000000000000000000000000000602082015250565b6000615500602683613d3f565b915061550b826154a4565b604082019050919050565b6000602082019050818103600083015261552f816154f3565b9050919050565b7f596f7520617265206e6f7420656c696769626c6520666f72207468697320736560008201527f7373696f6e000000000000000000000000000000000000000000000000000000602082015250565b6000615592602583613d3f565b915061559d82615536565b604082019050919050565b600060208201905081810360008301526155c181615585565b9050919050565b7f596f75206d75737420686f6c6420612053747564656e74204e465420746f207660008201527f6f74650000000000000000000000000000000000000000000000000000000000602082015250565b6000615624602383613d3f565b915061562f826155c8565b604082019050919050565b6000602082019050818103600083015261565381615617565b9050919050565b7f496e76616c69642063616e646964617465204944000000000000000000000000600082015250565b6000615690601483613d3f565b915061569b8261565a565b602082019050919050565b600060208201905081810360008301526156bf81615683565b9050919050565b600081905092915050565b7f7b226e616d65223a202253747564656e742049443a2000000000000000000000600082015250565b60006157076016836156c6565b9150615712826156d1565b601682019050919050565b600061572882613d34565b61573281856156c6565b9350615742818560208601613d50565b80840191505092915050565b7f222c000000000000000000000000000000000000000000000000000000000000600082015250565b60006157846002836156c6565b915061578f8261574e565b600282019050919050565b7f226465736372697074696f6e223a20224469676974616c204964656e7469747960008201527f20666f722053747564656e742049442000000000000000000000000000000000602082015250565b60006157f66030836156c6565b91506158018261579a565b603082019050919050565b7f2e20566572696669656420627920556e69766572736974792e222c0000000000600082015250565b6000615842601b836156c6565b915061584d8261580c565b601b82019050919050565b7f2261747472696275746573223a205b7b2274726169745f74797065223a20225360008201527f747564656e74204944222c202276616c7565223a202200000000000000000000602082015250565b60006158b46036836156c6565b91506158bf82615858565b603682019050919050565b7f227d5d7d00000000000000000000000000000000000000000000000000000000600082015250565b60006159006004836156c6565b915061590b826158ca565b600482019050919050565b6000615921826156fa565b915061592d828661571d565b915061593882615777565b9150615943826157e9565b915061594f828561571d565b915061595a82615835565b9150615965826158a7565b9150615971828461571d565b915061597c826158f3565b9150819050949350505050565b7f646174613a6170706c69636174696f6e2f6a736f6e3b6261736536342c000000600082015250565b60006159bf601d836156c6565b91506159ca82615989565b601d82019050919050565b60006159e0826159b2565b91506159ec828461571d565b915081905092915050565b6000615a03828461571d565b915081905092915050565b7f53747564656e7420494420616c72656164792068617320616e204e4654000000600082015250565b6000615a44601d83613d3f565b9150615a4f82615a0e565b602082019050919050565b60006020820190508181036000830152615a7381615a37565b9050919050565b7f566f74696e6753797374656d3a20536f756c626f756e6420746f6b656e20636160008201527f6e6e6f74206265207472616e7366657272656400000000000000000000000000602082015250565b6000615ad6603383613d3f565b9150615ae182615a7a565b604082019050919050565b60006020820190508181036000830152615b0581615ac9565b9050919050565b600081519050919050565b600082825260208201905092915050565b6000615b3382615b0c565b615b3d8185615b17565b9350615b4d818560208601613d50565b615b5681613d7a565b840191505092915050565b6000608082019050615b766000830187613e7b565b615b836020830186613e7b565b615b906040830185614264565b8181036060830152615ba28184615b28565b905095945050505050565b600081519050615bbc81613ca5565b92915050565b600060208284031215615bd857615bd7613c6f565b5b6000615be684828501615bad565b91505092915050565b6000615bfa82613de6565b9150615c0583613de6565b9250828202615c1381613de6565b91508282048414831517615c2a57615c29614eae565b5b5092915050565b7f4e487b7100000000000000000000000000000000000000000000000000000000600052601260045260246000fd5b6000615c6b82613de6565b9150615c7683613de6565b925082615c8657615c85615c31565b5b828204905092915050565b6000604082019050615ca66000830185613e7b565b615cb36020830184614264565b939250505056fe4142434445464748494a4b4c4d4e4f505152535455565758595a6162636465666768696a6b6c6d6e6f707172737475767778797a303132333435363738392b2fa2646970667358221220cc2f8f49e316a774f3bd1334a3488ad20259c6a4e1a081aa97e012cfa56fbe0264736f6c634300081c0033",
  "linkReferences": {},
  "deployedLinkReferences": {}
}