{
  "_format": "hh-sol-artifact-1",
  "contractName": "Voting",
  "sourceName": "contracts/Voting.sol",
  "abi": [
    {
      "inputs": [
        {
          "internalType": "address",
          "name": "_studentNFTAddress",
          "type": "address"
        }
      ],
      "stateMutability": "nonpayable",
      "type": "constructor"
    },
    {
      "inputs": [
        {
          "internalType": "address",
          "name": "owner",
          "type": "address"
        }
      ],
      "name": "OwnableInvalidOwner",
      "type": "error"
    },
    {
      "inputs": [
        {
          "internalType": "address",
          "name": "account",
          "type": "address"
        }
      ],
      "name": "OwnableUnauthorizedAccount",
      "type": "error"
    },
    {
      "anonymous": false,
      "inputs": [
        {
          "indexed": true,
          "internalType": "uint256",
          "name": "sessionId",
          "type": "uint256"
        },
        {
          "indexed": false,
          "internalType": "uint256",
          "name": "candidateId",
          "type": "uint256"
        },
        {
          "indexed": false,
          "internalType": "string",
          "name": "name",
          "type": "string"
        }
      ],
      "name": "CandidateAdded",
      "type": "event"
    },
    {
      "anonymous": false,
      "inputs": [
        {
          "indexed": true,
          "internalType": "address",
          "name": "previousOwner",
          "type": "address"
        },
        {
          "indexed": true,
          "internalType": "address",
          "name": "newOwner",
          "type": "address"
        }
      ],
      "name": "OwnershipTransferred",
      "type": "event"
    },
    {
      "anonymous": false,
      "inputs": [
        {
          "indexed": true,
          "internalType": "uint256",
          "name": "sessionId",
          "type": "uint256"
        },
        {
          "indexed": false,
          "internalType": "string",
          "name": "name",
          "type": "string"
        },
        {
          "indexed": false,
          "internalType": "uint256",
          "name": "startTime",
          "type": "uint256"
        },
        {
          "indexed": false,
          "internalType": "uint256",
          "name": "endTime",
          "type": "uint256"
        }
      ],
      "name": "SessionCreated",
      "type": "event"
    },
    {
      "anonymous": false,
      "inputs": [
        {
          "indexed": true,
          "internalType": "uint256",
          "name": "sessionId",
          "type": "uint256"
        },
        {
          "indexed": false,
          "internalType": "bool",
          "name": "isActive",
          "type": "bool"
        }
      ],
      "name": "SessionStatusChanged",
      "type": "event"
    },
    {
      "anonymous": false,
      "inputs": [
        {
          "indexed": true,
          "internalType": "uint256",
          "name": "sessionId",
          "type": "uint256"
        },
        {
          "indexed": true,
          "internalType": "address",
          "name": "voter",
          "type": "address"
        },
        {
          "indexed": true,
          "internalType": "uint256",
          "name": "candidateId",
          "type": "uint256"
        }
      ],
      "name": "Voted",
      "type": "event"
    },
    {
      "inputs": [
        {
          "internalType": "uint256",
          "name": "_sessionId",
          "type": "uint256"
        },
        {
          "internalType": "string",
          "name": "_name",
          "type": "string"
        }
      ],
      "name": "addCandidate",
      "outputs": [],
      "stateMutability": "nonpayable",
      "type": "function"
    },
    {
      "inputs": [
        {
          "internalType": "uint256",
          "name": "_sessionId",
          "type": "uint256"
        },
        {
          "internalType": "address",
          "name": "_user",
          "type": "address"
        }
      ],
      "name": "checkUserVoted",
      "outputs": [
        {
          "internalType": "bool",
          "name": "",
          "type": "bool"
        }
      ],
      "stateMutability": "view",
      "type": "function"
    },
    {
      "inputs": [
        {
          "internalType": "string",
          "name": "_name",
          "type": "string"
        },
        {
          "internalType": "string",
          "name": "_description",
          "type": "string"
        },
        {
          "internalType": "uint256",
          "name": "_startTime",
          "type": "uint256"
        },
        {
          "internalType": "uint256",
          "name": "_endTime",
          "type": "uint256"
        }
      ],
      "name": "createSession",
      "outputs": [],
      "stateMutability": "nonpayable",
      "type": "function"
    },
    {
      "inputs": [],
      "name": "getAllSessions",
      "outputs": [
        {
          "components": [
            {
              "internalType": "uint256",
              "name": "id",
              "type": "uint256"
            },
            {
              "internalType": "string",
              "name": "name",
              "type": "string"
            },
            {
              "internalType": "string",
              "name": "description",
              "type": "string"
            },
            {
              "internalType": "uint256",
              "name": "startTime",
              "type": "uint256"
            },
            {
              "internalType": "uint256",
              "name": "endTime",
              "type": "uint256"
            },
            {
              "internalType": "bool",
              "name": "isActive",
              "type": "bool"
            }
          ],
          "internalType": "struct Voting.Session[]",
          "name": "",
          "type": "tuple[]"
        }
      ],
      "stateMutability": "view",
      "type": "function"
    },
    {
      "inputs": [
        {
          "internalType": "uint256",
          "name": "_sessionId",
          "type": "uint256"
        }
      ],
      "name": "getCandidates",
      "outputs": [
        {
          "components": [
            {
              "internalType": "uint256",
              "name": "id",
              "type": "uint256"
            },
            {
              "internalType": "string",
              "name": "name",
              "type": "string"
            },
            {
              "internalType": "uint256",
              "name": "voteCount",
              "type": "uint256"
            }
          ],
          "internalType": "struct Voting.Candidate[]",
          "name": "",
          "type": "tuple[]"
        }
      ],
      "stateMutability": "view",
      "type": "function"
    },
    {
      "inputs": [
        {
          "internalType": "address",
          "name": "_user",
          "type": "address"
        }
      ],
      "name": "getUserHistory",
      "outputs": [
        {
          "components": [
            {
              "internalType": "uint256",
              "name": "sessionId",
              "type": "uint256"
            },
            {
              "internalType": "uint256",
              "name": "candidateId",
              "type": "uint256"
            },
            {
              "internalType": "uint256",
              "name": "timestamp",
              "type": "uint256"
            },
            {
              "internalType": "string",
              "name": "sessionName",
              "type": "string"
            },
            {
              "internalType": "string",
              "name": "candidateName",
              "type": "string"
            }
          ],
          "internalType": "struct Voting.VoteRecord[]",
          "name": "",
          "type": "tuple[]"
        }
      ],
      "stateMutability": "view",
      "type": "function"
    },
    {
      "inputs": [
        {
          "internalType": "uint256",
          "name": "",
          "type": "uint256"
        },
        {
          "internalType": "address",
          "name": "",
          "type": "address"
        }
      ],
      "name": "hasVotedInSession",
      "outputs": [
        {
          "internalType": "bool",
          "name": "",
          "type": "bool"
        }
      ],
      "stateMutability": "view",
      "type": "function"
    },
    {
      "inputs": [],
      "name": "owner",
      "outputs": [
        {
          "internalType": "address",
          "name": "",
          "type": "address"
        }
      ],
      "stateMutability": "view",
      "type": "function"
    },
    {
      "inputs": [],
      "name": "renounceOwnership",
      "outputs": [],
      "stateMutability": "nonpayable",
      "type": "function"
    },
    {
      "inputs": [
        {
          "internalType": "uint256",
          "name": "",
          "type": "uint256"
        },
        {
          "internalType": "uint256",
          "name": "",
          "type": "uint256"
        }
      ],
      "name": "sessionCandidates",
      "outputs": [
        {
          "internalType": "uint256",
          "name": "id",
          "type": "uint256"
        },
        {
          "internalType": "string",
          "name": "name",
          "type": "string"
        },
        {
          "internalType": "uint256",
          "name": "voteCount",
          "type": "uint256"
        }
      ],
      "stateMutability": "view",
      "type": "function"
    },
    {
      "inputs": [
        {
          "internalType": "uint256",
          "name": "",
          "type": "uint256"
        }
      ],
      "name": "sessions",
      "outputs": [
        {
          "internalType": "uint256",
          "name": "id",
          "type": "uint256"
        },
        {
          "internalType": "string",
          "name": "name",
          "type": "string"
        },
        {
          "internalType": "string",
          "name": "description",
          "type": "string"
        },
        {
          "internalType": "uint256",
          "name": "startTime",
          "type": "uint256"
        },
        {
          "internalType": "uint256",
          "name": "endTime",
          "type": "uint256"
        },
        {
          "internalType": "bool",
          "name": "isActive",
          "type": "bool"
        }
      ],
      "stateMutability": "view",
      "type": "function"
    },
    {
      "inputs": [],
      "name": "sessionsCount",
      "outputs": [
        {
          "internalType": "uint256",
          "name": "",
          "type": "uint256"
        }
      ],
      "stateMutability": "view",
      "type": "function"
    },
    {
      "inputs": [
        {
          "internalType": "uint256",
          "name": "_sessionId",
          "type": "uint256"
        },
        {
          "internalType": "bool",
          "name": "_isActive",
          "type": "bool"
        }
      ],
      "name": "setSessionStatus",
      "outputs": [],
      "stateMutability": "nonpayable",
      "type": "function"
    },
    {
      "inputs": [],
      "name": "studentNFT",
      "outputs": [
        {
          "internalType": "contract IERC721",
          "name": "",
          "type": "address"
        }
      ],
      "stateMutability": "view",
      "type": "function"
    },
    {
      "inputs": [
        {
          "internalType": "address",
          "name": "newOwner",
          "type": "address"
        }
      ],
      "name": "transferOwnership",
      "outputs": [],
      "stateMutability": "nonpayable",
      "type": "function"
    },
    {
      "inputs": [
        {
          "internalType": "address",
          "name": "",
          "type": "address"
        },
        {
          "internalType": "uint256",
          "name": "",
          "type": "uint256"
        }
      ],
      "name": "userVoteHistory",
      "outputs": [
        {
          "internalType": "uint256",
          "name": "sessionId",
          "type": "uint256"
        },
        {
          "internalType": "uint256",
          "name": "candidateId",
          "type": "uint256"
        },
        {
          "internalType": "uint256",
          "name": "timestamp",
          "type": "uint256"
        },
        {
          "internalType": "string",
          "name": "sessionName",
          "type": "string"
        },
        {
          "internalType": "string",
          "name": "candidateName",
          "type": "string"
        }
      ],
      "stateMutability": "view",
      "type": "function"
    },
    {
      "inputs": [
        {
          "internalType": "uint256",
          "name": "_sessionId",
          "type": "uint256"
        },
        {
          "internalType": "uint256",
          "name": "_candidateId",
          "type": "uint256"
        }
      ],
      "name": "vote",
      "outputs": [],
      "stateMutability": "nonpayable",
      "type": "function"
    }
  ],
  "bytecode": "0x608060405234801561001057600080fd5b5060405161315138038061315183398181016040528101906100329190610292565b33600073ffffffffffffffffffffffffffffffffffffffff168173ffffffffffffffffffffffffffffffffffffffff16036100a55760006040517f1e4fbdf700000000000000000000000000000000000000000000000000000000815260040161009c91906102ce565b60405180910390fd5b6100b48161016b60201b60201c565b50600073ffffffffffffffffffffffffffffffffffffffff168173ffffffffffffffffffffffffffffffffffffffff1603610124576040517f08c379a000000000000000000000000000000000000000000000000000000000815260040161011b90610346565b60405180910390fd5b80600660006101000a81548173ffffffffffffffffffffffffffffffffffffffff021916908373ffffffffffffffffffffffffffffffffffffffff16021790555050610366565b60008060009054906101000a900473ffffffffffffffffffffffffffffffffffffffff169050816000806101000a81548173ffffffffffffffffffffffffffffffffffffffff021916908373ffffffffffffffffffffffffffffffffffffffff1602179055508173ffffffffffffffffffffffffffffffffffffffff168173ffffffffffffffffffffffffffffffffffffffff167f8be0079c531659141344cd1fd0a4f28419497f9722a3daafe3b4186f6b6457e060405160405180910390a35050565b600080fd5b600073ffffffffffffffffffffffffffffffffffffffff82169050919050565b600061025f82610234565b9050919050565b61026f81610254565b811461027a57600080fd5b50565b60008151905061028c81610266565b92915050565b6000602082840312156102a8576102a761022f565b5b60006102b68482850161027d565b91505092915050565b6102c881610254565b82525050565b60006020820190506102e360008301846102bf565b92915050565b600082825260208201905092915050565b7f496e76616c6964204e4654204164647265737300000000000000000000000000600082015250565b60006103306013836102e9565b915061033b826102fa565b602082019050919050565b6000602082019050818103600083015261035f81610323565b9050919050565b612ddc806103756000396000f3fe608060405234801561001057600080fd5b506004361061010b5760003560e01c80637d6ba55d116100a2578063a80e6e3811610071578063a80e6e38146102bf578063b384abef146102f3578063be20a20a1461030f578063d2bd5bb71461032d578063f2fde38b1461035d5761010b565b80637d6ba55d1461021e57806383c4b7a3146102505780638da5cb5b14610285578063a5bdf4e4146102a35761010b565b80634fb3d3b1116100de5780634fb3d3b11461019657806354ca06b4146101c6578063715018a6146101e457806378548399146101ee5761010b565b80631750a3d014610110578063312f63071461012c5780633e39a7a51461014a578063414c2c491461017a575b600080fd5b61012a60048036038101906101259190611b87565b610379565b005b61013461051f565b6040516101419190611bf2565b60405180910390f35b610164600480360381019061015f9190611c0d565b610525565b6040516101719190611dda565b60405180910390f35b610194600480360381019061018f9190611e34565b61063d565b005b6101b060048036038101906101ab9190611ed2565b610700565b6040516101bd919061203e565b60405180910390f35b6101ce6108e0565b6040516101db91906121c1565b60405180910390f35b6101ec610b0c565b005b610208600480360381019061020391906121e3565b610b20565b6040516102159190612232565b60405180910390f35b6102386004803603810190610233919061224d565b610b88565b604051610247939291906122d7565b60405180910390f35b61026a60048036038101906102659190611c0d565b610c57565b60405161027c96959493929190612315565b60405180910390f35b61028d610db0565b60405161029a9190612393565b60405180910390f35b6102bd60048036038101906102b891906123ae565b610dd9565b005b6102d960048036038101906102d4919061244d565b610ef1565b6040516102ea95949392919061248d565b60405180910390f35b61030d6004803603810190610308919061224d565b611054565b005b610317611791565b604051610324919061254d565b60405180910390f35b610347600480360381019061034291906121e3565b6117b7565b6040516103549190612232565b60405180910390f35b61037760048036038101906103729190611ed2565b6117e6565b005b61038161186c565b60008211801561039357506005548211155b6103d2576040517f08c379a00000000000000000000000000000000000000000000000000000000081526004016103c9906125b4565b60405180910390fd5b6001600083815260200190815260200160002060050160009054906101000a900460ff16610435576040517f08c379a000000000000000000000000000000000000000000000000000000000815260040161042c90612620565b60405180910390fd5b60006001600260008581526020019081526020016000208054905061045a919061266f565b9050600260008481526020019081526020016000206040518060600160405280838152602001848152602001600081525090806001815401808255809150506001900390600052602060002090600302016000909190919091506000820151816000015560208201518160010190816104d391906128a5565b50604082015181600201555050827fed8911b3df733b7d5f75724158e54478ea12e30f49c9d31b5261879f5b76586f8284604051610512929190612977565b60405180910390a2505050565b60055481565b606060026000838152602001908152602001600020805480602002602001604051908101604052809291908181526020016000905b82821015610632578382906000526020600020906003020160405180606001604052908160008201548152602001600182018054610597906126d2565b80601f01602080910402602001604051908101604052809291908181526020018280546105c3906126d2565b80156106105780601f106105e557610100808354040283529160200191610610565b820191906000526020600020905b8154815290600101906020018083116105f357829003601f168201915b505050505081526020016002820154815250508152602001906001019061055a565b505050509050919050565b61064561186c565b60008211801561065757506005548211155b610696576040517f08c379a000000000000000000000000000000000000000000000000000000000815260040161068d906125b4565b60405180910390fd5b806001600084815260200190815260200160002060050160006101000a81548160ff021916908315150217905550817fb9780f4122c541e2b1edee07b1a4ce43dd3780c564bed9d103c302c17260dc5a826040516106f49190612232565b60405180910390a25050565b6060600460008373ffffffffffffffffffffffffffffffffffffffff1673ffffffffffffffffffffffffffffffffffffffff168152602001908152602001600020805480602002602001604051908101604052809291908181526020016000905b828210156108d557838290600052602060002090600502016040518060a00160405290816000820154815260200160018201548152602001600282015481526020016003820180546107b2906126d2565b80601f01602080910402602001604051908101604052809291908181526020018280546107de906126d2565b801561082b5780601f106108005761010080835404028352916020019161082b565b820191906000526020600020905b81548152906001019060200180831161080e57829003601f168201915b50505050508152602001600482018054610844906126d2565b80601f0160208091040260200160405190810160405280929190818152602001828054610870906126d2565b80156108bd5780601f10610892576101008083540402835291602001916108bd565b820191906000526020600020905b8154815290600101906020018083116108a057829003601f168201915b50505050508152505081526020019060010190610761565b505050509050919050565b6060600060055467ffffffffffffffff811115610900576108ff611a5c565b5b60405190808252806020026020018201604052801561093957816020015b6109266119bf565b81526020019060019003908161091e5790505b5090506000600190505b6005548111610b0457600160008281526020019081526020016000206040518060c001604052908160008201548152602001600182018054610984906126d2565b80601f01602080910402602001604051908101604052809291908181526020018280546109b0906126d2565b80156109fd5780601f106109d2576101008083540402835291602001916109fd565b820191906000526020600020905b8154815290600101906020018083116109e057829003601f168201915b50505050508152602001600282018054610a16906126d2565b80601f0160208091040260200160405190810160405280929190818152602001828054610a42906126d2565b8015610a8f5780601f10610a6457610100808354040283529160200191610a8f565b820191906000526020600020905b815481529060010190602001808311610a7257829003601f168201915b5050505050815260200160038201548152602001600482015481526020016005820160009054906101000a900460ff16151515158152505082600183610ad591906129a7565b81518110610ae657610ae56129db565b5b60200260200101819052508080610afc90612a0a565b915050610943565b508091505090565b610b1461186c565b610b1e60006118f3565b565b60006003600084815260200190815260200160002060008373ffffffffffffffffffffffffffffffffffffffff1673ffffffffffffffffffffffffffffffffffffffff16815260200190815260200160002060009054906101000a900460ff16905092915050565b60026020528160005260406000208181548110610ba457600080fd5b906000526020600020906003020160009150915050806000015490806001018054610bce906126d2565b80601f0160208091040260200160405190810160405280929190818152602001828054610bfa906126d2565b8015610c475780601f10610c1c57610100808354040283529160200191610c47565b820191906000526020600020905b815481529060010190602001808311610c2a57829003601f168201915b5050505050908060020154905083565b6001602052806000526040600020600091509050806000015490806001018054610c80906126d2565b80601f0160208091040260200160405190810160405280929190818152602001828054610cac906126d2565b8015610cf95780601f10610cce57610100808354040283529160200191610cf9565b820191906000526020600020905b815481529060010190602001808311610cdc57829003601f168201915b505050505090806002018054610d0e906126d2565b80601f0160208091040260200160405190810160405280929190818152602001828054610d3a906126d2565b8015610d875780601f10610d5c57610100808354040283529160200191610d87565b820191906000526020600020905b815481529060010190602001808311610d6a57829003601f168201915b5050505050908060030154908060040154908060050160009054906101000a900460ff16905086565b60008060009054906101000a900473ffffffffffffffffffffffffffffffffffffffff16905090565b610de161186c565b60056000815480929190610df490612a0a565b91905055506040518060c00160405280600554815260200185815260200184815260200183815260200182815260200160011515815250600160006005548152602001908152602001600020600082015181600001556020820151816001019081610e5f91906128a5565b506040820151816002019081610e7591906128a5565b50606082015181600301556080820151816004015560a08201518160050160006101000a81548160ff0219169083151502179055509050506005547f4904011aa43162d2343adeb37498885f778d0af67c7ccfc7810d7068192b2a1b858484604051610ee393929190612a52565b60405180910390a250505050565b60046020528160005260406000208181548110610f0d57600080fd5b906000526020600020906005020160009150915050806000015490806001015490806002015490806003018054610f43906126d2565b80601f0160208091040260200160405190810160405280929190818152602001828054610f6f906126d2565b8015610fbc5780601f10610f9157610100808354040283529160200191610fbc565b820191906000526020600020905b815481529060010190602001808311610f9f57829003601f168201915b505050505090806004018054610fd1906126d2565b80601f0160208091040260200160405190810160405280929190818152602001828054610ffd906126d2565b801561104a5780601f1061101f5761010080835404028352916020019161104a565b820191906000526020600020905b81548152906001019060200180831161102d57829003601f168201915b5050505050905085565b60008211801561106657506005548211155b6110a5576040517f08c379a000000000000000000000000000000000000000000000000000000000815260040161109c906125b4565b60405180910390fd5b6000600160008481526020019081526020016000206040518060c0016040529081600082015481526020016001820180546110df906126d2565b80601f016020809104026020016040519081016040528092919081815260200182805461110b906126d2565b80156111585780601f1061112d57610100808354040283529160200191611158565b820191906000526020600020905b81548152906001019060200180831161113b57829003601f168201915b50505050508152602001600282018054611171906126d2565b80601f016020809104026020016040519081016040528092919081815260200182805461119d906126d2565b80156111ea5780601f106111bf576101008083540402835291602001916111ea565b820191906000526020600020905b8154815290600101906020018083116111cd57829003601f168201915b5050505050815260200160038201548152602001600482015481526020016005820160009054906101000a900460ff16151515158152505090508060a00151611268576040517f08c379a000000000000000000000000000000000000000000000000000000000815260040161125f90612adc565b60405180910390fd5b80606001514210156112af576040517f08c379a00000000000000000000000000000000000000000000000000000000081526004016112a690612b48565b60405180910390fd5b80608001514211156112f6576040517f08c379a00000000000000000000000000000000000000000000000000000000081526004016112ed90612bb4565b60405180910390fd5b6003600084815260200190815260200160002060003373ffffffffffffffffffffffffffffffffffffffff1673ffffffffffffffffffffffffffffffffffffffff16815260200190815260200160002060009054906101000a900460ff1615611394576040517f08c379a000000000000000000000000000000000000000000000000000000000815260040161138b90612c46565b60405180910390fd5b6000600660009054906101000a900473ffffffffffffffffffffffffffffffffffffffff1673ffffffffffffffffffffffffffffffffffffffff166370a08231336040518263ffffffff1660e01b81526004016113f19190612393565b602060405180830381865afa15801561140e573d6000803e3d6000fd5b505050506040513d601f19601f820116820180604052508101906114329190612c7b565b11611472576040517f08c379a000000000000000000000000000000000000000000000000000000000815260040161146990612d1a565b60405180910390fd5b600082118015611498575060026000848152602001908152602001600020805490508211155b6114d7576040517f08c379a00000000000000000000000000000000000000000000000000000000081526004016114ce90612d86565b60405180910390fd5b60016003600085815260200190815260200160002060003373ffffffffffffffffffffffffffffffffffffffff1673ffffffffffffffffffffffffffffffffffffffff16815260200190815260200160002060006101000a81548160ff0219169083151502179055506002600084815260200190815260200160002060018361156091906129a7565b81548110611571576115706129db565b5b9060005260206000209060030201600201600081548092919061159390612a0a565b91905055506000600260008581526020019081526020016000206001846115ba91906129a7565b815481106115cb576115ca6129db565b5b906000526020600020906003020160010180546115e7906126d2565b80601f0160208091040260200160405190810160405280929190818152602001828054611613906126d2565b80156116605780601f1061163557610100808354040283529160200191611660565b820191906000526020600020905b81548152906001019060200180831161164357829003601f168201915b50505050509050600460003373ffffffffffffffffffffffffffffffffffffffff1673ffffffffffffffffffffffffffffffffffffffff1681526020019081526020016000206040518060a0016040528086815260200185815260200142815260200184602001518152602001838152509080600181540180825580915050600190039060005260206000209060050201600090919091909150600082015181600001556020820151816001015560408201518160020155606082015181600301908161172d91906128a5565b50608082015181600401908161174391906128a5565b505050823373ffffffffffffffffffffffffffffffffffffffff16857f1abe610cf2bf87e57dcc1181fcf5ac0934e843d8344ab9eed6e86c799f62585e60405160405180910390a450505050565b600660009054906101000a900473ffffffffffffffffffffffffffffffffffffffff1681565b60036020528160005260406000206020528060005260406000206000915091509054906101000a900460ff1681565b6117ee61186c565b600073ffffffffffffffffffffffffffffffffffffffff168173ffffffffffffffffffffffffffffffffffffffff16036118605760006040517f1e4fbdf70000000000000000000000000000000000000000000000000000000081526004016118579190612393565b60405180910390fd5b611869816118f3565b50565b6118746119b7565b73ffffffffffffffffffffffffffffffffffffffff16611892610db0565b73ffffffffffffffffffffffffffffffffffffffff16146118f1576118b56119b7565b6040517f118cdaa70000000000000000000000000000000000000000000000000000000081526004016118e89190612393565b60405180910390fd5b565b60008060009054906101000a900473ffffffffffffffffffffffffffffffffffffffff169050816000806101000a81548173ffffffffffffffffffffffffffffffffffffffff021916908373ffffffffffffffffffffffffffffffffffffffff1602179055508173ffffffffffffffffffffffffffffffffffffffff168173ffffffffffffffffffffffffffffffffffffffff167f8be0079c531659141344cd1fd0a4f28419497f9722a3daafe3b4186f6b6457e060405160405180910390a35050565b600033905090565b6040518060c0016040528060008152602001606081526020016060815260200160008152602001600081526020016000151581525090565b6000604051905090565b600080fd5b600080fd5b6000819050919050565b611a1e81611a0b565b8114611a2957600080fd5b50565b600081359050611a3b81611a15565b92915050565b600080fd5b600080fd5b6000601f19601f8301169050919050565b7f4e487b7100000000000000000000000000000000000000000000000000000000600052604160045260246000fd5b611a9482611a4b565b810181811067ffffffffffffffff82111715611ab357611ab2611a5c565b5b80604052505050565b6000611ac66119f7565b9050611ad28282611a8b565b919050565b600067ffffffffffffffff821115611af257611af1611a5c565b5b611afb82611a4b565b9050602081019050919050565b82818337600083830152505050565b6000611b2a611b2584611ad7565b611abc565b905082815260208101848484011115611b4657611b45611a46565b5b611b51848285611b08565b509392505050565b600082601f830112611b6e57611b6d611a41565b5b8135611b7e848260208601611b17565b91505092915050565b60008060408385031215611b9e57611b9d611a01565b5b6000611bac85828601611a2c565b925050602083013567ffffffffffffffff811115611bcd57611bcc611a06565b5b611bd985828601611b59565b9150509250929050565b611bec81611a0b565b82525050565b6000602082019050611c076000830184611be3565b92915050565b600060208284031215611c2357611c22611a01565b5b6000611c3184828501611a2c565b91505092915050565b600081519050919050565b600082825260208201905092915050565b6000819050602082019050919050565b611c6f81611a0b565b82525050565b600081519050919050565b600082825260208201905092915050565b60005b83811015611caf578082015181840152602081019050611c94565b60008484015250505050565b6000611cc682611c75565b611cd08185611c80565b9350611ce0818560208601611c91565b611ce981611a4b565b840191505092915050565b6000606083016000830151611d0c6000860182611c66565b5060208301518482036020860152611d248282611cbb565b9150506040830151611d396040860182611c66565b508091505092915050565b6000611d508383611cf4565b905092915050565b6000602082019050919050565b6000611d7082611c3a565b611d7a8185611c45565b935083602082028501611d8c85611c56565b8060005b85811015611dc85784840389528151611da98582611d44565b9450611db483611d58565b925060208a01995050600181019050611d90565b50829750879550505050505092915050565b60006020820190508181036000830152611df48184611d65565b905092915050565b60008115159050919050565b611e1181611dfc565b8114611e1c57600080fd5b50565b600081359050611e2e81611e08565b92915050565b60008060408385031215611e4b57611e4a611a01565b5b6000611e5985828601611a2c565b9250506020611e6a85828601611e1f565b9150509250929050565b600073ffffffffffffffffffffffffffffffffffffffff82169050919050565b6000611e9f82611e74565b9050919050565b611eaf81611e94565b8114611eba57600080fd5b50565b600081359050611ecc81611ea6565b92915050565b600060208284031215611ee857611ee7611a01565b5b6000611ef684828501611ebd565b91505092915050565b600081519050919050565b600082825260208201905092915050565b6000819050602082019050919050565b600060a083016000830151611f436000860182611c66565b506020830151611f566020860182611c66565b506040830151611f696040860182611c66565b5060608301518482036060860152611f818282611cbb565b91505060808301518482036080860152611f9b8282611cbb565b9150508091505092915050565b6000611fb48383611f2b565b905092915050565b6000602082019050919050565b6000611fd482611eff565b611fde8185611f0a565b935083602082028501611ff085611f1b565b8060005b8581101561202c578484038952815161200d8582611fa8565b945061201883611fbc565b925060208a01995050600181019050611ff4565b50829750879550505050505092915050565b600060208201905081810360008301526120588184611fc9565b905092915050565b600081519050919050565b600082825260208201905092915050565b6000819050602082019050919050565b61209581611dfc565b82525050565b600060c0830160008301516120b36000860182611c66565b50602083015184820360208601526120cb8282611cbb565b915050604083015184820360408601526120e58282611cbb565b91505060608301516120fa6060860182611c66565b50608083015161210d6080860182611c66565b5060a083015161212060a086018261208c565b508091505092915050565b6000612137838361209b565b905092915050565b6000602082019050919050565b600061215782612060565b612161818561206b565b9350836020820285016121738561207c565b8060005b858110156121af5784840389528151612190858261212b565b945061219b8361213f565b925060208a01995050600181019050612177565b50829750879550505050505092915050565b600060208201905081810360008301526121db818461214c565b905092915050565b600080604083850312156121fa576121f9611a01565b5b600061220885828601611a2c565b925050602061221985828601611ebd565b9150509250929050565b61222c81611dfc565b82525050565b60006020820190506122476000830184612223565b92915050565b6000806040838503121561226457612263611a01565b5b600061227285828601611a2c565b925050602061228385828601611a2c565b9150509250929050565b600082825260208201905092915050565b60006122a982611c75565b6122b3818561228d565b93506122c3818560208601611c91565b6122cc81611a4b565b840191505092915050565b60006060820190506122ec6000830186611be3565b81810360208301526122fe818561229e565b905061230d6040830184611be3565b949350505050565b600060c08201905061232a6000830189611be3565b818103602083015261233c818861229e565b90508181036040830152612350818761229e565b905061235f6060830186611be3565b61236c6080830185611be3565b61237960a0830184612223565b979650505050505050565b61238d81611e94565b82525050565b60006020820190506123a86000830184612384565b92915050565b600080600080608085870312156123c8576123c7611a01565b5b600085013567ffffffffffffffff8111156123e6576123e5611a06565b5b6123f287828801611b59565b945050602085013567ffffffffffffffff81111561241357612412611a06565b5b61241f87828801611b59565b935050604061243087828801611a2c565b925050606061244187828801611a2c565b91505092959194509250565b6000806040838503121561246457612463611a01565b5b600061247285828601611ebd565b925050602061248385828601611a2c565b9150509250929050565b600060a0820190506124a26000830188611be3565b6124af6020830187611be3565b6124bc6040830186611be3565b81810360608301526124ce818561229e565b905081810360808301526124e2818461229e565b90509695505050505050565b6000819050919050565b600061251361250e61250984611e74565b6124ee565b611e74565b9050919050565b6000612525826124f8565b9050919050565b60006125378261251a565b9050919050565b6125478161252c565b82525050565b6000602082019050612562600083018461253e565b92915050565b7f496e76616c69642073657373696f6e2049440000000000000000000000000000600082015250565b600061259e60128361228d565b91506125a982612568565b602082019050919050565b600060208201905081810360008301526125cd81612591565b9050919050565b7f53657373696f6e206973206e6f74206163746976650000000000000000000000600082015250565b600061260a60158361228d565b9150612615826125d4565b602082019050919050565b60006020820190508181036000830152612639816125fd565b9050919050565b7f4e487b7100000000000000000000000000000000000000000000000000000000600052601160045260246000fd5b600061267a82611a0b565b915061268583611a0b565b925082820190508082111561269d5761269c612640565b5b92915050565b7f4e487b7100000000000000000000000000000000000000000000000000000000600052602260045260246000fd5b600060028204905060018216806126ea57607f821691505b6020821081036126fd576126fc6126a3565b5b50919050565b60008190508160005260206000209050919050565b60006020601f8301049050919050565b600082821b905092915050565b6000600883026127657fffffffffffffffffffffffffffffffffffffffffffffffffffffffffffffffff82612728565b61276f8683612728565b95508019841693508086168417925050509392505050565b60006127a261279d61279884611a0b565b6124ee565b611a0b565b9050919050565b6000819050919050565b6127bc83612787565b6127d06127c8826127a9565b848454612735565b825550505050565b600090565b6127e56127d8565b6127f08184846127b3565b505050565b5b81811015612814576128096000826127dd565b6001810190506127f6565b5050565b601f8211156128595761282a81612703565b61283384612718565b81016020851015612842578190505b61285661284e85612718565b8301826127f5565b50505b505050565b600082821c905092915050565b600061287c6000198460080261285e565b1980831691505092915050565b6000612895838361286b565b9150826002028217905092915050565b6128ae82611c75565b67ffffffffffffffff8111156128c7576128c6611a5c565b5b6128d182546126d2565b6128dc828285612818565b600060209050601f83116001811461290f57600084156128fd578287015190505b6129078582612889565b86555061296f565b601f19841661291d86612703565b60005b8281101561294557848901518255600182019150602085019450602081019050612920565b86831015612962578489015161295e601f89168261286b565b8355505b6001600288020188555050505b505050505050565b600060408201905061298c6000830185611be3565b818103602083015261299e818461229e565b90509392505050565b60006129b282611a0b565b91506129bd83611a0b565b92508282039050818111156129d5576129d4612640565b5b92915050565b7f4e487b7100000000000000000000000000000000000000000000000000000000600052603260045260246000fd5b6000612a1582611a0b565b91507fffffffffffffffffffffffffffffffffffffffffffffffffffffffffffffffff8203612a4757612a46612640565b5b600182019050919050565b60006060820190508181036000830152612a6c818661229e565b9050612a7b6020830185611be3565b612a886040830184611be3565b949350505050565b7f53657373696f6e20697320636c6f736564000000000000000000000000000000600082015250565b6000612ac660118361228d565b9150612ad182612a90565b602082019050919050565b60006020820190508181036000830152612af581612ab9565b9050919050565b7f566f74696e6720686173206e6f74207374617274656400000000000000000000600082015250565b6000612b3260168361228d565b9150612b3d82612afc565b602082019050919050565b60006020820190508181036000830152612b6181612b25565b9050919050565b7f566f74696e672068617320656e64656400000000000000000000000000000000600082015250565b6000612b9e60108361228d565b9150612ba982612b68565b602082019050919050565b60006020820190508181036000830152612bcd81612b91565b9050919050565b7f596f75206861766520616c726561647920766f74656420696e2074686973207360008201527f657373696f6e0000000000000000000000000000000000000000000000000000602082015250565b6000612c3060268361228d565b9150612c3b82612bd4565b604082019050919050565b60006020820190508181036000830152612c5f81612c23565b9050919050565b600081519050612c7581611a15565b92915050565b600060208284031215612c9157612c90611a01565b5b6000612c9f84828501612c66565b91505092915050565b7f596f75206d75737420686f6c6420612053747564656e74204e465420746f207660008201527f6f74650000000000000000000000000000000000000000000000000000000000602082015250565b6000612d0460238361228d565b9150612d0f82612ca8565b604082019050919050565b60006020820190508181036000830152612d3381612cf7565b9050919050565b7f496e76616c69642063616e646964617465204944000000000000000000000000600082015250565b6000612d7060148361228d565b9150612d7b82612d3a565b602082019050919050565b60006020820190508181036000830152612d9f81612d63565b905091905056fea26469706673582212205d8d6d3c9c3eb2ae1b1e9eebca56faaad72a9d49d461a3cffe2923368f789cc164736f6c634300081c0033",
  "linkReferences": {},
  "deployedLinkReferences": {}
}