{
  "_format": "hh-sol-artifact-1",
  "contractName": "VotingSystem",
  "sourceName": "contracts/VotingSystem.sol",
  "abi": [
    {
      "inputs": [],
      "stateMutability": "nonpayable",
      "type": "constructor"
    },
    {
      "inputs": [
        {
          "internalType": "address",
          "name": "sender",
          "type": "address"
        },
        {
          "internalType": "uint256",
          "name": "tokenId",
          "type": "uint256"
        },
        {
          "internalType": "address",
          "name": "owner",
          "type": "address"
        }
      ],
      "name": "ERC721IncorrectOwner",
      "type": "error"
    },
    {
      "inputs": [
        {
          "internalType": "address",
          "name": "operator",
          "type": "address"
        },
        {
          "internalType": "uint256",
          "name": "tokenId",
          "type": "uint256"
        }
      ],
      "name": "ERC721InsufficientApproval",
      "type": "error"
    },
    {
      "inputs": [
        {
          "internalType": "address",
          "name": "approver",
          "type": "address"
        }
      ],
      "name": "ERC721InvalidApprover",
      "type": "error"
    },
    {
      "inputs": [
        {
          "internalType": "address",
          "name": "operator",
          "type": "address"
        }
      ],
      "name": "ERC721InvalidOperator",
      "type": "error"
    },
    {
      "inputs": [
        {
          "internalType": "address",
          "name": "owner",
          "type": "address"
        }
      ],
      "name": "ERC721InvalidOwner",
      "type": "error"
    },
    {
      "inputs": [
        {
          "internalType": "address",
          "name": "receiver",
          "type": "address"
        }
      ],
      "name": "ERC721InvalidReceiver",
      "type": "error"
    },
    {
      "inputs": [
        {
          "internalType": "address",
          "name": "sender",
          "type": "address"
        }
      ],
      "name": "ERC721InvalidSender",
      "type": "error"
    },
    {
      "inputs": [
        {
          "internalType": "uint256",
          "name": "tokenId",
          "type": "uint256"
        }
      ],
      "name": "ERC721NonexistentToken",
      "type": "error"
    },
    {
      "inputs": [
        {
          "internalType": "address",
          "name": "owner",
          "type": "address"
        }
      ],
      "name": "OwnableInvalidOwner",
      "type": "error"
    },
    {
      "inputs": [
        {
          "internalType": "address",
          "name": "account",
          "type": "address"
        }
      ],
      "name": "OwnableUnauthorizedAccount",
      "type": "error"
    },
    {
      "anonymous": false,
      "inputs": [
        {
          "indexed": true,
          "internalType": "address",
          "name": "owner",
          "type": "address"
        },
        {
          "indexed": true,
          "internalType": "address",
          "name": "approved",
          "type": "address"
        },
        {
          "indexed": true,
          "internalType": "uint256",
          "name": "tokenId",
          "type": "uint256"
        }
      ],
      "name": "Approval",
      "type": "event"
    },
    {
      "anonymous": false,
      "inputs": [
        {
          "indexed": true,
          "internalType": "address",
          "name": "owner",
          "type": "address"
        },
        {
          "indexed": true,
          "internalType": "address",
          "name": "operator",
          "type": "address"
        },
        {
          "indexed": false,
          "internalType": "bool",
          "name": "approved",
          "type": "bool"
        }
      ],
      "name": "ApprovalForAll",
      "type": "event"
    },
    {
      "anonymous": false,
      "inputs": [
        {
          "indexed": true,
          "internalType": "uint256",
          "name": "sessionId",
          "type": "uint256"
        },
        {
          "indexed": false,
          "internalType": "uint256",
          "name": "candidateId",
          "type": "uint256"
        },
        {
          "indexed": false,
          "internalType": "string",
          "name": "name",
          "type": "string"
        },
        {
          "indexed": false,
          "internalType": "string",
          "name": "photoUrl",
          "type": "string"
        }
      ],
      "name": "CandidateAdded",
      "type": "event"
    },
    {
      "anonymous": false,
      "inputs": [
        {
          "indexed": true,
          "internalType": "address",
          "name": "previousOwner",
          "type": "address"
        },
        {
          "indexed": true,
          "internalType": "address",
          "name": "newOwner",
          "type": "address"
        }
      ],
      "name": "OwnershipTransferred",
      "type": "event"
    },
    {
      "anonymous": false,
      "inputs": [
        {
          "indexed": true,
          "internalType": "uint256",
          "name": "sessionId",
          "type": "uint256"
        },
        {
          "indexed": false,
          "internalType": "string",
          "name": "name",
          "type": "string"
        },
        {
          "indexed": false,
          "internalType": "uint256",
          "name": "startTime",
          "type": "uint256"
        },
        {
          "indexed": false,
          "internalType": "uint256",
          "name": "endTime",
          "type": "uint256"
        }
      ],
      "name": "SessionCreated",
      "type": "event"
    },
    {
      "anonymous": false,
      "inputs": [
        {
          "indexed": true,
          "internalType": "uint256",
          "name": "sessionId",
          "type": "uint256"
        },
        {
          "indexed": false,
          "internalType": "bool",
          "name": "isActive",
          "type": "bool"
        }
      ],
      "name": "SessionStatusChanged",
      "type": "event"
    },
    {
      "anonymous": false,
      "inputs": [
        {
          "indexed": true,
          "internalType": "address",
          "name": "from",
          "type": "address"
        },
        {
          "indexed": true,
          "internalType": "address",
          "name": "to",
          "type": "address"
        },
        {
          "indexed": true,
          "internalType": "uint256",
          "name": "tokenId",
          "type": "uint256"
        }
      ],
      "name": "Transfer",
      "type": "event"
    },
    {
      "anonymous": false,
      "inputs": [
        {
          "indexed": true,
          "internalType": "uint256",
          "name": "sessionId",
          "type": "uint256"
        },
        {
          "indexed": true,
          "internalType": "address",
          "name": "voter",
          "type": "address"
        },
        {
          "indexed": true,
          "internalType": "uint256",
          "name": "candidateId",
          "type": "uint256"
        }
      ],
      "name": "Voted",
      "type": "event"
    },
    {
      "inputs": [
        {
          "internalType": "uint256",
          "name": "_sessionId",
          "type": "uint256"
        },
        {
          "internalType": "string",
          "name": "_name",
          "type": "string"
        },
        {
          "internalType": "string",
          "name": "_photoUrl",
          "type": "string"
        },
        {
          "internalType": "string",
          "name": "_vision",
          "type": "string"
        },
        {
          "internalType": "string",
          "name": "_mission",
          "type": "string"
        }
      ],
      "name": "addCandidate",
      "outputs": [],
      "stateMutability": "nonpayable",
      "type": "function"
    },
    {
      "inputs": [
        {
          "internalType": "address",
          "name": "to",
          "type": "address"
        },
        {
          "internalType": "uint256",
          "name": "tokenId",
          "type": "uint256"
        }
      ],
      "name": "approve",
      "outputs": [],
      "stateMutability": "nonpayable",
      "type": "function"
    },
    {
      "inputs": [
        {
          "internalType": "address",
          "name": "owner",
          "type": "address"
        }
      ],
      "name": "balanceOf",
      "outputs": [
        {
          "internalType": "uint256",
          "name": "",
          "type": "uint256"
        }
      ],
      "stateMutability": "view",
      "type": "function"
    },
    {
      "inputs": [
        {
          "internalType": "uint256",
          "name": "_sessionId",
          "type": "uint256"
        },
        {
          "internalType": "address",
          "name": "_user",
          "type": "address"
        }
      ],
      "name": "checkUserVoted",
      "outputs": [
        {
          "internalType": "bool",
          "name": "",
          "type": "bool"
        }
      ],
      "stateMutability": "view",
      "type": "function"
    },
    {
      "inputs": [
        {
          "internalType": "string",
          "name": "_name",
          "type": "string"
        },
        {
          "internalType": "string",
          "name": "_description",
          "type": "string"
        },
        {
          "internalType": "uint256",
          "name": "_startTime",
          "type": "uint256"
        },
        {
          "internalType": "uint256",
          "name": "_endTime",
          "type": "uint256"
        }
      ],
      "name": "createSession",
      "outputs": [],
      "stateMutability": "nonpayable",
      "type": "function"
    },
    {
      "inputs": [],
      "name": "getAllSessions",
      "outputs": [
        {
          "components": [
            {
              "internalType": "uint256",
              "name": "id",
              "type": "uint256"
            },
            {
              "internalType": "string",
              "name": "name",
              "type": "string"
            },
            {
              "internalType": "string",
              "name": "description",
              "type": "string"
            },
            {
              "internalType": "uint256",
              "name": "startTime",
              "type": "uint256"
            },
            {
              "internalType": "uint256",
              "name": "endTime",
              "type": "uint256"
            },
            {
              "internalType": "bool",
              "name": "isActive",
              "type": "bool"
            }
          ],
          "internalType": "struct VotingSystem.Session[]",
          "name": "",
          "type": "tuple[]"
        }
      ],
      "stateMutability": "view",
      "type": "function"
    },
    {
      "inputs": [
        {
          "internalType": "uint256",
          "name": "tokenId",
          "type": "uint256"
        }
      ],
      "name": "getApproved",
      "outputs": [
        {
          "internalType": "address",
          "name": "",
          "type": "address"
        }
      ],
      "stateMutability": "view",
      "type": "function"
    },
    {
      "inputs": [
        {
          "internalType": "uint256",
          "name": "_sessionId",
          "type": "uint256"
        }
      ],
      "name": "getCandidates",
      "outputs": [
        {
          "components": [
            {
              "internalType": "uint256",
              "name": "id",
              "type": "uint256"
            },
            {
              "internalType": "string",
              "name": "name",
              "type": "string"
            },
            {
              "internalType": "string",
              "name": "photoUrl",
              "type": "string"
            },
            {
              "internalType": "string",
              "name": "vision",
              "type": "string"
            },
            {
              "internalType": "string",
              "name": "mission",
              "type": "string"
            },
            {
              "internalType": "uint256",
              "name": "voteCount",
              "type": "uint256"
            }
          ],
          "internalType": "struct VotingSystem.Candidate[]",
          "name": "",
          "type": "tuple[]"
        }
      ],
      "stateMutability": "view",
      "type": "function"
    },
    {
      "inputs": [
        {
          "internalType": "address",
          "name": "_user",
          "type": "address"
        }
      ],
      "name": "getUserHistory",
      "outputs": [
        {
          "components": [
            {
              "internalType": "uint256",
              "name": "sessionId",
              "type": "uint256"
            },
            {
              "internalType": "uint256",
              "name": "candidateId",
              "type": "uint256"
            },
            {
              "internalType": "uint256",
              "name": "timestamp",
              "type": "uint256"
            },
            {
              "internalType": "string",
              "name": "sessionName",
              "type": "string"
            },
            {
              "internalType": "string",
              "name": "candidateName",
              "type": "string"
            }
          ],
          "internalType": "struct VotingSystem.VoteRecord[]",
          "name": "",
          "type": "tuple[]"
        }
      ],
      "stateMutability": "view",
      "type": "function"
    },
    {
      "inputs": [
        {
          "internalType": "uint256",
          "name": "",
          "type": "uint256"
        },
        {
          "internalType": "address",
          "name": "",
          "type": "address"
        }
      ],
      "name": "hasVotedInSession",
      "outputs": [
        {
          "internalType": "bool",
          "name": "",
          "type": "bool"
        }
      ],
      "stateMutability": "view",
      "type": "function"
    },
    {
      "inputs": [
        {
          "internalType": "address",
          "name": "owner",
          "type": "address"
        },
        {
          "internalType": "address",
          "name": "operator",
          "type": "address"
        }
      ],
      "name": "isApprovedForAll",
      "outputs": [
        {
          "internalType": "bool",
          "name": "",
          "type": "bool"
        }
      ],
      "stateMutability": "view",
      "type": "function"
    },
    {
      "inputs": [
        {
          "internalType": "address",
          "name": "to",
          "type": "address"
        },
        {
          "internalType": "string",
          "name": "_studentId",
          "type": "string"
        }
      ],
      "name": "mint",
      "outputs": [],
      "stateMutability": "nonpayable",
      "type": "function"
    },
    {
      "inputs": [],
      "name": "name",
      "outputs": [
        {
          "internalType": "string",
          "name": "",
          "type": "string"
        }
      ],
      "stateMutability": "view",
      "type": "function"
    },
    {
      "inputs": [],
      "name": "nextTokenId",
      "outputs": [
        {
          "internalType": "uint256",
          "name": "",
          "type": "uint256"
        }
      ],
      "stateMutability": "view",
      "type": "function"
    },
    {
      "inputs": [],
      "name": "owner",
      "outputs": [
        {
          "internalType": "address",
          "name": "",
          "type": "address"
        }
      ],
      "stateMutability": "view",
      "type": "function"
    },
    {
      "inputs": [
        {
          "internalType": "uint256",
          "name": "tokenId",
          "type": "uint256"
        }
      ],
      "name": "ownerOf",
      "outputs": [
        {
          "internalType": "address",
          "name": "",
          "type": "address"
        }
      ],
      "stateMutability": "view",
      "type": "function"
    },
    {
      "inputs": [],
      "name": "renounceOwnership",
      "outputs": [],
      "stateMutability": "nonpayable",
      "type": "function"
    },
    {
      "inputs": [
        {
          "internalType": "address",
          "name": "from",
          "type": "address"
        },
        {
          "internalType": "address",
          "name": "to",
          "type": "address"
        },
        {
          "internalType": "uint256",
          "name": "tokenId",
          "type": "uint256"
        }
      ],
      "name": "safeTransferFrom",
      "outputs": [],
      "stateMutability": "nonpayable",
      "type": "function"
    },
    {
      "inputs": [
        {
          "internalType": "address",
          "name": "from",
          "type": "address"
        },
        {
          "internalType": "address",
          "name": "to",
          "type": "address"
        },
        {
          "internalType": "uint256",
          "name": "tokenId",
          "type": "uint256"
        },
        {
          "internalType": "bytes",
          "name": "data",
          "type": "bytes"
        }
      ],
      "name": "safeTransferFrom",
      "outputs": [],
      "stateMutability": "nonpayable",
      "type": "function"
    },
    {
      "inputs": [
        {
          "internalType": "uint256",
          "name": "",
          "type": "uint256"
        },
        {
          "internalType": "uint256",
          "name": "",
          "type": "uint256"
        }
      ],
      "name": "sessionCandidates",
      "outputs": [
        {
          "internalType": "uint256",
          "name": "id",
          "type": "uint256"
        },
        {
          "internalType": "string",
          "name": "name",
          "type": "string"
        },
        {
          "internalType": "string",
          "name": "photoUrl",
          "type": "string"
        },
        {
          "internalType": "string",
          "name": "vision",
          "type": "string"
        },
        {
          "internalType": "string",
          "name": "mission",
          "type": "string"
        },
        {
          "internalType": "uint256",
          "name": "voteCount",
          "type": "uint256"
        }
      ],
      "stateMutability": "view",
      "type": "function"
    },
    {
      "inputs": [
        {
          "internalType": "uint256",
          "name": "",
          "type": "uint256"
        }
      ],
      "name": "sessions",
      "outputs": [
        {
          "internalType": "uint256",
          "name": "id",
          "type": "uint256"
        },
        {
          "internalType": "string",
          "name": "name",
          "type": "string"
        },
        {
          "internalType": "string",
          "name": "description",
          "type": "string"
        },
        {
          "internalType": "uint256",
          "name": "startTime",
          "type": "uint256"
        },
        {
          "internalType": "uint256",
          "name": "endTime",
          "type": "uint256"
        },
        {
          "internalType": "bool",
          "name": "isActive",
          "type": "bool"
        }
      ],
      "stateMutability": "view",
      "type": "function"
    },
    {
      "inputs": [],
      "name": "sessionsCount",
      "outputs": [
        {
          "internalType": "uint256",
          "name": "",
          "type": "uint256"
        }
      ],
      "stateMutability": "view",
      "type": "function"
    },
    {
      "inputs": [
        {
          "internalType": "address",
          "name": "operator",
          "type": "address"
        },
        {
          "internalType": "bool",
          "name": "approved",
          "type": "bool"
        }
      ],
      "name": "setApprovalForAll",
      "outputs": [],
      "stateMutability": "nonpayable",
      "type": "function"
    },
    {
      "inputs": [
        {
          "internalType": "uint256",
          "name": "_sessionId",
          "type": "uint256"
        },
        {
          "internalType": "bool",
          "name": "_isActive",
          "type": "bool"
        }
      ],
      "name": "setSessionStatus",
      "outputs": [],
      "stateMutability": "nonpayable",
      "type": "function"
    },
    {
      "inputs": [
        {
          "internalType": "uint256",
          "name": "",
          "type": "uint256"
        }
      ],
      "name": "studentIds",
      "outputs": [
        {
          "internalType": "string",
          "name": "",
          "type": "string"
        }
      ],
      "stateMutability": "view",
      "type": "function"
    },
    {
      "inputs": [
        {
          "internalType": "bytes4",
          "name": "interfaceId",
          "type": "bytes4"
        }
      ],
      "name": "supportsInterface",
      "outputs": [
        {
          "internalType": "bool",
          "name": "",
          "type": "bool"
        }
      ],
      "stateMutability": "view",
      "type": "function"
    },
    {
      "inputs": [],
      "name": "symbol",
      "outputs": [
        {
          "internalType": "string",
          "name": "",
          "type": "string"
        }
      ],
      "stateMutability": "view",
      "type": "function"
    },
    {
      "inputs": [
        {
          "internalType": "uint256",
          "name": "tokenId",
          "type": "uint256"
        }
      ],
      "name": "tokenURI",
      "outputs": [
        {
          "internalType": "string",
          "name": "",
          "type": "string"
        }
      ],
      "stateMutability": "view",
      "type": "function"
    },
    {
      "inputs": [
        {
          "internalType": "address",
          "name": "from",
          "type": "address"
        },
        {
          "internalType": "address",
          "name": "to",
          "type": "address"
        },
        {
          "internalType": "uint256",
          "name": "tokenId",
          "type": "uint256"
        }
      ],
      "name": "transferFrom",
      "outputs": [],
      "stateMutability": "nonpayable",
      "type": "function"
    },
    {
      "inputs": [
        {
          "internalType": "address",
          "name": "newOwner",
          "type": "address"
        }
      ],
      "name": "transferOwnership",
      "outputs": [],
      "stateMutability": "nonpayable",
      "type": "function"
    },
    {
      "inputs": [
        {
          "internalType": "address",
          "name": "",
          "type": "address"
        },
        {
          "internalType": "uint256",
          "name": "",
          "type": "uint256"
        }
      ],
      "name": "userVoteHistory",
      "outputs": [
        {
          "internalType": "uint256",
          "name": "sessionId",
          "type": "uint256"
        },
        {
          "internalType": "uint256",
          "name": "candidateId",
          "type": "uint256"
        },
        {
          "internalType": "uint256",
          "name": "timestamp",
          "type": "uint256"
        },
        {
          "internalType": "string",
          "name": "sessionName",
          "type": "string"
        },
        {
          "internalType": "string",
          "name": "candidateName",
          "type": "string"
        }
      ],
      "stateMutability": "view",
      "type": "function"
    },
    {
      "inputs": [
        {
          "internalType": "uint256",
          "name": "_sessionId",
          "type": "uint256"
        },
        {
          "internalType": "uint256",
          "name": "_candidateId",
          "type": "uint256"
        }
      ],
      "name": "vote",
      "outputs": [],
      "stateMutability": "nonpayable",
      "type": "function"
    }
  ],
  "bytecode": "0x608060405234801561001057600080fd5b50336040518060400160405280600f81526020017f53747564656e744964656e7469747900000000000000000000000000000000008152506040518060400160405280600381526020017f5354550000000000000000000000000000000000000000000000000000000000815250816000908161008d919061043d565b50806001908161009d919061043d565b505050600073ffffffffffffffffffffffffffffffffffffffff168173ffffffffffffffffffffffffffffffffffffffff16036101125760006040517f1e4fbdf70000000000000000000000000000000000000000000000000000000081526004016101099190610550565b60405180910390fd5b6101218161012760201b60201c565b5061056b565b6000600660009054906101000a900473ffffffffffffffffffffffffffffffffffffffff16905081600660006101000a81548173ffffffffffffffffffffffffffffffffffffffff021916908373ffffffffffffffffffffffffffffffffffffffff1602179055508173ffffffffffffffffffffffffffffffffffffffff168173ffffffffffffffffffffffffffffffffffffffff167f8be0079c531659141344cd1fd0a4f28419497f9722a3daafe3b4186f6b6457e060405160405180910390a35050565b600081519050919050565b7f4e487b7100000000000000000000000000000000000000000000000000000000600052604160045260246000fd5b7f4e487b7100000000000000000000000000000000000000000000000000000000600052602260045260246000fd5b6000600282049050600182168061026e57607f821691505b60208210810361028157610280610227565b5b50919050565b60008190508160005260206000209050919050565b60006020601f8301049050919050565b600082821b905092915050565b6000600883026102e97fffffffffffffffffffffffffffffffffffffffffffffffffffffffffffffffff826102ac565b6102f386836102ac565b95508019841693508086168417925050509392505050565b6000819050919050565b6000819050919050565b600061033a6103356103308461030b565b610315565b61030b565b9050919050565b6000819050919050565b6103548361031f565b61036861036082610341565b8484546102b9565b825550505050565b600090565b61037d610370565b61038881848461034b565b505050565b5b818110156103ac576103a1600082610375565b60018101905061038e565b5050565b601f8211156103f1576103c281610287565b6103cb8461029c565b810160208510156103da578190505b6103ee6103e68561029c565b83018261038d565b50505b505050565b600082821c905092915050565b6000610414600019846008026103f6565b1980831691505092915050565b600061042d8383610403565b9150826002028217905092915050565b610446826101ed565b67ffffffffffffffff81111561045f5761045e6101f8565b5b6104698254610256565b6104748282856103b0565b600060209050601f8311600181146104a75760008415610495578287015190505b61049f8582610421565b865550610507565b601f1984166104b586610287565b60005b828110156104dd578489015182556001820191506020850194506020810190506104b8565b868310156104fa57848901516104f6601f891682610403565b8355505b6001600288020188555050505b505050505050565b600073ffffffffffffffffffffffffffffffffffffffff82169050919050565b600061053a8261050f565b9050919050565b61054a8161052f565b82525050565b60006020820190506105656000830184610541565b92915050565b6153408061057a6000396000f3fe608060405234801561001057600080fd5b50600436106101f05760003560e01c806375794a3c1161010f578063a80e6e38116100a2578063d0def52111610071578063d0def521146105fd578063d2bd5bb714610619578063e985e9c514610649578063f2fde38b14610679576101f0565b8063a80e6e3814610561578063b384abef14610595578063b88d4fde146105b1578063c87b56dd146105cd576101f0565b80638da5cb5b116100de5780638da5cb5b146104ed57806395d89b411461050b578063a22cb46514610529578063a5bdf4e414610545576101f0565b806375794a3c1461043557806378548399146104535780637d6ba55d1461048357806383c4b7a3146104b8576101f0565b8063414c2c49116101875780636352211e116101565780636352211e1461039b5780636f28c355146103cb57806370a08231146103fb578063715018a61461042b576101f0565b8063414c2c491461031557806342842e0e146103315780634fb3d3b11461034d57806354ca06b41461037d576101f0565b8063119aeab7116101c3578063119aeab71461028f57806323b872dd146102ab578063312f6307146102c75780633e39a7a5146102e5576101f0565b806301ffc9a7146101f557806306fdde0314610225578063081812fc14610243578063095ea7b314610273575b600080fd5b61020f600480360381019061020a91906135e3565b610695565b60405161021c919061362b565b60405180910390f35b61022d610777565b60405161023a91906136d6565b60405180910390f35b61025d6004803603810190610258919061372e565b610809565b60405161026a919061379c565b60405180910390f35b61028d600480360381019061028891906137e3565b610825565b005b6102a960048036038101906102a49190613958565b61083b565b005b6102c560048036038101906102c09190613a43565b610a3a565b005b6102cf610b3c565b6040516102dc9190613aa5565b60405180910390f35b6102ff60048036038101906102fa919061372e565b610b42565b60405161030c9190613c79565b60405180910390f35b61032f600480360381019061032a9190613cc7565b610e10565b005b61034b60048036038101906103469190613a43565b610ed3565b005b61036760048036038101906103629190613d07565b610ef3565b6040516103749190613e73565b60405180910390f35b6103856110d3565b6040516103929190613ff6565b60405180910390f35b6103b560048036038101906103b0919061372e565b6112ff565b6040516103c2919061379c565b60405180910390f35b6103e560048036038101906103e0919061372e565b611311565b6040516103f291906136d6565b60405180910390f35b61041560048036038101906104109190613d07565b6113b1565b6040516104229190613aa5565b60405180910390f35b61043361146b565b005b61043d61147f565b60405161044a9190613aa5565b60405180910390f35b61046d60048036038101906104689190614018565b611485565b60405161047a919061362b565b60405180910390f35b61049d60048036038101906104989190614058565b6114ed565b6040516104af96959493929190614098565b60405180910390f35b6104d260048036038101906104cd919061372e565b611766565b6040516104e496959493929190614115565b60405180910390f35b6104f56118bf565b604051610502919061379c565b60405180910390f35b6105136118e9565b60405161052091906136d6565b60405180910390f35b610543600480360381019061053e9190614184565b61197b565b005b61055f600480360381019061055a91906141c4565b611991565b005b61057b600480360381019061057691906137e3565b611aa9565b60405161058c959493929190614263565b60405180910390f35b6105af60048036038101906105aa9190614058565b611c0c565b005b6105cb60048036038101906105c69190614365565b6122b6565b005b6105e760048036038101906105e2919061372e565b6122db565b6040516105f491906136d6565b60405180910390f35b610617600480360381019061061291906143e8565b6123e0565b005b610633600480360381019061062e9190614018565b6124d6565b604051610640919061362b565b60405180910390f35b610663600480360381019061065e9190614444565b612505565b604051610670919061362b565b60405180910390f35b610693600480360381019061068e9190613d07565b612599565b005b60007f80ac58cd000000000000000000000000000000000000000000000000000000007bffffffffffffffffffffffffffffffffffffffffffffffffffffffff1916827bffffffffffffffffffffffffffffffffffffffffffffffffffffffff1916148061076057507f5b5e139f000000000000000000000000000000000000000000000000000000007bffffffffffffffffffffffffffffffffffffffffffffffffffffffff1916827bffffffffffffffffffffffffffffffffffffffffffffffffffffffff1916145b80610770575061076f8261261f565b5b9050919050565b606060008054610786906144b3565b80601f01602080910402602001604051908101604052809291908181526020018280546107b2906144b3565b80156107ff5780601f106107d4576101008083540402835291602001916107ff565b820191906000526020600020905b8154815290600101906020018083116107e257829003601f168201915b5050505050905090565b600061081482612689565b5061081e82612711565b9050919050565b610837828261083261274e565b612756565b5050565b610843612768565b6000851180156108555750600d548511155b610894576040517f08c379a000000000000000000000000000000000000000000000000000000000815260040161088b90614530565b60405180910390fd5b6009600086815260200190815260200160002060050160009054906101000a900460ff166108f7576040517f08c379a00000000000000000000000000000000000000000000000000000000081526004016108ee9061459c565b60405180910390fd5b60006001600a60008881526020019081526020016000208054905061091c91906145eb565b9050600a60008781526020019081526020016000206040518060c00160405280838152602001878152602001868152602001858152602001848152602001600081525090806001815401808255809150506001900390600052602060002090600602016000909190919091506000820151816000015560208201518160010190816109a791906147cb565b5060408201518160020190816109bd91906147cb565b5060608201518160030190816109d391906147cb565b5060808201518160040190816109e991906147cb565b5060a082015181600501555050857f503cfceb0fb2178c5fb47ff394c816e4075abc8066c3dcb16d08a76847ee6e16828787604051610a2a9392919061489d565b60405180910390a2505050505050565b600073ffffffffffffffffffffffffffffffffffffffff168273ffffffffffffffffffffffffffffffffffffffff1603610aac5760006040517f64a0ae92000000000000000000000000000000000000000000000000000000008152600401610aa3919061379c565b60405180910390fd5b6000610ac08383610abb61274e565b6127ef565b90508373ffffffffffffffffffffffffffffffffffffffff168173ffffffffffffffffffffffffffffffffffffffff1614610b36578382826040517f64283d7b000000000000000000000000000000000000000000000000000000008152600401610b2d939291906148e2565b60405180910390fd5b50505050565b600d5481565b6060600a6000838152602001908152602001600020805480602002602001604051908101604052809291908181526020016000905b82821015610e0557838290600052602060002090600602016040518060c001604052908160008201548152602001600182018054610bb4906144b3565b80601f0160208091040260200160405190810160405280929190818152602001828054610be0906144b3565b8015610c2d5780601f10610c0257610100808354040283529160200191610c2d565b820191906000526020600020905b815481529060010190602001808311610c1057829003601f168201915b50505050508152602001600282018054610c46906144b3565b80601f0160208091040260200160405190810160405280929190818152602001828054610c72906144b3565b8015610cbf5780601f10610c9457610100808354040283529160200191610cbf565b820191906000526020600020905b815481529060010190602001808311610ca257829003601f168201915b50505050508152602001600382018054610cd8906144b3565b80601f0160208091040260200160405190810160405280929190818152602001828054610d04906144b3565b8015610d515780601f10610d2657610100808354040283529160200191610d51565b820191906000526020600020905b815481529060010190602001808311610d3457829003601f168201915b50505050508152602001600482018054610d6a906144b3565b80601f0160208091040260200160405190810160405280929190818152602001828054610d96906144b3565b8015610de35780601f10610db857610100808354040283529160200191610de3565b820191906000526020600020905b815481529060010190602001808311610dc657829003601f168201915b5050505050815260200160058201548152505081526020019060010190610b77565b505050509050919050565b610e18612768565b600082118015610e2a5750600d548211155b610e69576040517f08c379a0000000000000000000000000000000000000000000000000000000008152600401610e6090614530565b60405180910390fd5b806009600084815260200190815260200160002060050160006101000a81548160ff021916908315150217905550817fb9780f4122c541e2b1edee07b1a4ce43dd3780c564bed9d103c302c17260dc5a82604051610ec7919061362b565b60405180910390a25050565b610eee838383604051806020016040528060008152506122b6565b505050565b6060600c60008373ffffffffffffffffffffffffffffffffffffffff1673ffffffffffffffffffffffffffffffffffffffff168152602001908152602001600020805480602002602001604051908101604052809291908181526020016000905b828210156110c857838290600052602060002090600502016040518060a0016040529081600082015481526020016001820154815260200160028201548152602001600382018054610fa5906144b3565b80601f0160208091040260200160405190810160405280929190818152602001828054610fd1906144b3565b801561101e5780601f10610ff35761010080835404028352916020019161101e565b820191906000526020600020905b81548152906001019060200180831161100157829003601f168201915b50505050508152602001600482018054611037906144b3565b80601f0160208091040260200160405190810160405280929190818152602001828054611063906144b3565b80156110b05780601f10611085576101008083540402835291602001916110b0565b820191906000526020600020905b81548152906001019060200180831161109357829003601f168201915b50505050508152505081526020019060010190610f54565b505050509050919050565b60606000600d5467ffffffffffffffff8111156110f3576110f261382d565b5b60405190808252806020026020018201604052801561112c57816020015b61111961353f565b8152602001906001900390816111115790505b5090506000600190505b600d5481116112f757600960008281526020019081526020016000206040518060c001604052908160008201548152602001600182018054611177906144b3565b80601f01602080910402602001604051908101604052809291908181526020018280546111a3906144b3565b80156111f05780601f106111c5576101008083540402835291602001916111f0565b820191906000526020600020905b8154815290600101906020018083116111d357829003601f168201915b50505050508152602001600282018054611209906144b3565b80601f0160208091040260200160405190810160405280929190818152602001828054611235906144b3565b80156112825780601f1061125757610100808354040283529160200191611282565b820191906000526020600020905b81548152906001019060200180831161126557829003601f168201915b5050505050815260200160038201548152602001600482015481526020016005820160009054906101000a900460ff161515151581525050826001836112c89190614919565b815181106112d9576112d861494d565b5b602002602001018190525080806112ef9061497c565b915050611136565b508091505090565b600061130a82612689565b9050919050565b60086020528060005260406000206000915090508054611330906144b3565b80601f016020809104026020016040519081016040528092919081815260200182805461135c906144b3565b80156113a95780601f1061137e576101008083540402835291602001916113a9565b820191906000526020600020905b81548152906001019060200180831161138c57829003601f168201915b505050505081565b60008073ffffffffffffffffffffffffffffffffffffffff168273ffffffffffffffffffffffffffffffffffffffff16036114245760006040517f89c62b6400000000000000000000000000000000000000000000000000000000815260040161141b919061379c565b60405180910390fd5b600360008373ffffffffffffffffffffffffffffffffffffffff1673ffffffffffffffffffffffffffffffffffffffff168152602001908152602001600020549050919050565b611473612768565b61147d60006128bc565b565b60075481565b6000600b600084815260200190815260200160002060008373ffffffffffffffffffffffffffffffffffffffff1673ffffffffffffffffffffffffffffffffffffffff16815260200190815260200160002060009054906101000a900460ff16905092915050565b600a602052816000526040600020818154811061150957600080fd5b906000526020600020906006020160009150915050806000015490806001018054611533906144b3565b80601f016020809104026020016040519081016040528092919081815260200182805461155f906144b3565b80156115ac5780601f10611581576101008083540402835291602001916115ac565b820191906000526020600020905b81548152906001019060200180831161158f57829003601f168201915b5050505050908060020180546115c1906144b3565b80601f01602080910402602001604051908101604052809291908181526020018280546115ed906144b3565b801561163a5780601f1061160f5761010080835404028352916020019161163a565b820191906000526020600020905b81548152906001019060200180831161161d57829003601f168201915b50505050509080600301805461164f906144b3565b80601f016020809104026020016040519081016040528092919081815260200182805461167b906144b3565b80156116c85780601f1061169d576101008083540402835291602001916116c8565b820191906000526020600020905b8154815290600101906020018083116116ab57829003601f168201915b5050505050908060040180546116dd906144b3565b80601f0160208091040260200160405190810160405280929190818152602001828054611709906144b3565b80156117565780601f1061172b57610100808354040283529160200191611756565b820191906000526020600020905b81548152906001019060200180831161173957829003601f168201915b5050505050908060050154905086565b600960205280600052604060002060009150905080600001549080600101805461178f906144b3565b80601f01602080910402602001604051908101604052809291908181526020018280546117bb906144b3565b80156118085780601f106117dd57610100808354040283529160200191611808565b820191906000526020600020905b8154815290600101906020018083116117eb57829003601f168201915b50505050509080600201805461181d906144b3565b80601f0160208091040260200160405190810160405280929190818152602001828054611849906144b3565b80156118965780601f1061186b57610100808354040283529160200191611896565b820191906000526020600020905b81548152906001019060200180831161187957829003601f168201915b5050505050908060030154908060040154908060050160009054906101000a900460ff16905086565b6000600660009054906101000a900473ffffffffffffffffffffffffffffffffffffffff16905090565b6060600180546118f8906144b3565b80601f0160208091040260200160405190810160405280929190818152602001828054611924906144b3565b80156119715780601f1061194657610100808354040283529160200191611971565b820191906000526020600020905b81548152906001019060200180831161195457829003601f168201915b5050505050905090565b61198d61198661274e565b8383612982565b5050565b611999612768565b600d60008154809291906119ac9061497c565b91905055506040518060c00160405280600d5481526020018581526020018481526020018381526020018281526020016001151581525060096000600d548152602001908152602001600020600082015181600001556020820151816001019081611a1791906147cb565b506040820151816002019081611a2d91906147cb565b50606082015181600301556080820151816004015560a08201518160050160006101000a81548160ff021916908315150217905550905050600d547f4904011aa43162d2343adeb37498885f778d0af67c7ccfc7810d7068192b2a1b858484604051611a9b939291906149c4565b60405180910390a250505050565b600c6020528160005260406000208181548110611ac557600080fd5b906000526020600020906005020160009150915050806000015490806001015490806002015490806003018054611afb906144b3565b80601f0160208091040260200160405190810160405280929190818152602001828054611b27906144b3565b8015611b745780601f10611b4957610100808354040283529160200191611b74565b820191906000526020600020905b815481529060010190602001808311611b5757829003601f168201915b505050505090806004018054611b89906144b3565b80601f0160208091040260200160405190810160405280929190818152602001828054611bb5906144b3565b8015611c025780601f10611bd757610100808354040283529160200191611c02565b820191906000526020600020905b815481529060010190602001808311611be557829003601f168201915b5050505050905085565b600082118015611c1e5750600d548211155b611c5d576040517f08c379a0000000000000000000000000000000000000000000000000000000008152600401611c5490614530565b60405180910390fd5b6000600960008481526020019081526020016000206040518060c001604052908160008201548152602001600182018054611c97906144b3565b80601f0160208091040260200160405190810160405280929190818152602001828054611cc3906144b3565b8015611d105780601f10611ce557610100808354040283529160200191611d10565b820191906000526020600020905b815481529060010190602001808311611cf357829003601f168201915b50505050508152602001600282018054611d29906144b3565b80601f0160208091040260200160405190810160405280929190818152602001828054611d55906144b3565b8015611da25780601f10611d7757610100808354040283529160200191611da2565b820191906000526020600020905b815481529060010190602001808311611d8557829003601f168201915b5050505050815260200160038201548152602001600482015481526020016005820160009054906101000a900460ff16151515158152505090508060a00151611e20576040517f08c379a0000000000000000000000000000000000000000000000000000000008152600401611e1790614a4e565b60405180910390fd5b8060600151421015611e67576040517f08c379a0000000000000000000000000000000000000000000000000000000008152600401611e5e90614aba565b60405180910390fd5b8060800151421115611eae576040517f08c379a0000000000000000000000000000000000000000000000000000000008152600401611ea590614b26565b60405180910390fd5b600b600084815260200190815260200160002060003373ffffffffffffffffffffffffffffffffffffffff1673ffffffffffffffffffffffffffffffffffffffff16815260200190815260200160002060009054906101000a900460ff1615611f4c576040517f08c379a0000000000000000000000000000000000000000000000000000000008152600401611f4390614bb8565b60405180910390fd5b6000611f57336113b1565b11611f97576040517f08c379a0000000000000000000000000000000000000000000000000000000008152600401611f8e90614c4a565b60405180910390fd5b600082118015611fbd5750600a6000848152602001908152602001600020805490508211155b611ffc576040517f08c379a0000000000000000000000000000000000000000000000000000000008152600401611ff390614cb6565b60405180910390fd5b6001600b600085815260200190815260200160002060003373ffffffffffffffffffffffffffffffffffffffff1673ffffffffffffffffffffffffffffffffffffffff16815260200190815260200160002060006101000a81548160ff021916908315150217905550600a60008481526020019081526020016000206001836120859190614919565b815481106120965761209561494d565b5b906000526020600020906006020160050160008154809291906120b89061497c565b91905055506000600a60008581526020019081526020016000206001846120df9190614919565b815481106120f0576120ef61494d565b5b9060005260206000209060060201600101805461210c906144b3565b80601f0160208091040260200160405190810160405280929190818152602001828054612138906144b3565b80156121855780601f1061215a57610100808354040283529160200191612185565b820191906000526020600020905b81548152906001019060200180831161216857829003601f168201915b50505050509050600c60003373ffffffffffffffffffffffffffffffffffffffff1673ffffffffffffffffffffffffffffffffffffffff1681526020019081526020016000206040518060a0016040528086815260200185815260200142815260200184602001518152602001838152509080600181540180825580915050600190039060005260206000209060050201600090919091909150600082015181600001556020820151816001015560408201518160020155606082015181600301908161225291906147cb565b50608082015181600401908161226891906147cb565b505050823373ffffffffffffffffffffffffffffffffffffffff16857f1abe610cf2bf87e57dcc1181fcf5ac0934e843d8344ab9eed6e86c799f62585e60405160405180910390a450505050565b6122c1848484610a3a565b6122d56122cc61274e565b85858585612af1565b50505050565b60606122e682612689565b506000600860008481526020019081526020016000208054612307906144b3565b80601f0160208091040260200160405190810160405280929190818152602001828054612333906144b3565b80156123805780601f1061235557610100808354040283529160200191612380565b820191906000526020600020905b81548152906001019060200180831161236357829003601f168201915b5050505050905060006123b58283846040516020016123a193929190614f26565b604051602081830303815290604052612ca2565b9050806040516020016123c89190614fe5565b60405160208183030381529060405292505050919050565b6123e8612768565b600e816040516123f89190615007565b908152602001604051809103902060009054906101000a900460ff1615612454576040517f08c379a000000000000000000000000000000000000000000000000000000000815260040161244b9061506a565b60405180910390fd5b6000600760008154809291906124699061497c565b9190505590508160086000838152602001908152602001600020908161248f91906147cb565b506001600e836040516124a29190615007565b908152602001604051809103902060006101000a81548160ff0219169083151502179055506124d18382612ccf565b505050565b600b6020528160005260406000206020528060005260406000206000915091509054906101000a900460ff1681565b6000600560008473ffffffffffffffffffffffffffffffffffffffff1673ffffffffffffffffffffffffffffffffffffffff16815260200190815260200160002060008373ffffffffffffffffffffffffffffffffffffffff1673ffffffffffffffffffffffffffffffffffffffff16815260200190815260200160002060009054906101000a900460ff16905092915050565b6125a1612768565b600073ffffffffffffffffffffffffffffffffffffffff168173ffffffffffffffffffffffffffffffffffffffff16036126135760006040517f1e4fbdf700000000000000000000000000000000000000000000000000000000815260040161260a919061379c565b60405180910390fd5b61261c816128bc565b50565b60007f01ffc9a7000000000000000000000000000000000000000000000000000000007bffffffffffffffffffffffffffffffffffffffffffffffffffffffff1916827bffffffffffffffffffffffffffffffffffffffffffffffffffffffff1916149050919050565b60008061269583612ced565b9050600073ffffffffffffffffffffffffffffffffffffffff168173ffffffffffffffffffffffffffffffffffffffff160361270857826040517f7e2732890000000000000000000000000000000000000000000000000000000081526004016126ff9190613aa5565b60405180910390fd5b80915050919050565b60006004600083815260200190815260200160002060009054906101000a900473ffffffffffffffffffffffffffffffffffffffff169050919050565b600033905090565b6127638383836001612d2a565b505050565b61277061274e565b73ffffffffffffffffffffffffffffffffffffffff1661278e6118bf565b73ffffffffffffffffffffffffffffffffffffffff16146127ed576127b161274e565b6040517f118cdaa70000000000000000000000000000000000000000000000000000000081526004016127e4919061379c565b60405180910390fd5b565b6000806127fb84612ced565b9050600073ffffffffffffffffffffffffffffffffffffffff168173ffffffffffffffffffffffffffffffffffffffff16141580156128675750600073ffffffffffffffffffffffffffffffffffffffff168573ffffffffffffffffffffffffffffffffffffffff1614155b156128a7576040517f08c379a000000000000000000000000000000000000000000000000000000000815260040161289e906150fc565b60405180910390fd5b6128b2858585612eef565b9150509392505050565b6000600660009054906101000a900473ffffffffffffffffffffffffffffffffffffffff16905081600660006101000a81548173ffffffffffffffffffffffffffffffffffffffff021916908373ffffffffffffffffffffffffffffffffffffffff1602179055508173ffffffffffffffffffffffffffffffffffffffff168173ffffffffffffffffffffffffffffffffffffffff167f8be0079c531659141344cd1fd0a4f28419497f9722a3daafe3b4186f6b6457e060405160405180910390a35050565b600073ffffffffffffffffffffffffffffffffffffffff168273ffffffffffffffffffffffffffffffffffffffff16036129f357816040517f5b08ba180000000000000000000000000000000000000000000000000000000081526004016129ea919061379c565b60405180910390fd5b80600560008573ffffffffffffffffffffffffffffffffffffffff1673ffffffffffffffffffffffffffffffffffffffff16815260200190815260200160002060008473ffffffffffffffffffffffffffffffffffffffff1673ffffffffffffffffffffffffffffffffffffffff16815260200190815260200160002060006101000a81548160ff0219169083151502179055508173ffffffffffffffffffffffffffffffffffffffff168373ffffffffffffffffffffffffffffffffffffffff167f17307eab39ab6107e8899845ad3d59bd9653f200f220920489ca2b5937696c3183604051612ae4919061362b565b60405180910390a3505050565b60008373ffffffffffffffffffffffffffffffffffffffff163b1115612c9b578273ffffffffffffffffffffffffffffffffffffffff1663150b7a02868685856040518563ffffffff1660e01b8152600401612b509493929190615171565b6020604051808303816000875af1925050508015612b8c57506040513d601f19601f82011682018060405250810190612b8991906151d2565b60015b612c10573d8060008114612bbc576040519150601f19603f3d011682016040523d82523d6000602084013e612bc1565b606091505b506000815103612c0857836040517f64a0ae92000000000000000000000000000000000000000000000000000000008152600401612bff919061379c565b60405180910390fd5b805160208201fd5b63150b7a0260e01b7bffffffffffffffffffffffffffffffffffffffffffffffffffffffff1916817bffffffffffffffffffffffffffffffffffffffffffffffffffffffff191614612c9957836040517f64a0ae92000000000000000000000000000000000000000000000000000000008152600401612c90919061379c565b60405180910390fd5b505b5050505050565b6060612cc8826040518060600160405280604081526020016152cb604091396001613109565b9050919050565b612ce982826040518060200160405280600081525061329d565b5050565b60006002600083815260200190815260200160002060009054906101000a900473ffffffffffffffffffffffffffffffffffffffff169050919050565b8080612d635750600073ffffffffffffffffffffffffffffffffffffffff168273ffffffffffffffffffffffffffffffffffffffff1614155b15612e97576000612d7384612689565b9050600073ffffffffffffffffffffffffffffffffffffffff168373ffffffffffffffffffffffffffffffffffffffff1614158015612dde57508273ffffffffffffffffffffffffffffffffffffffff168173ffffffffffffffffffffffffffffffffffffffff1614155b8015612df15750612def8184612505565b155b15612e3357826040517fa9fbf51f000000000000000000000000000000000000000000000000000000008152600401612e2a919061379c565b60405180910390fd5b8115612e9557838573ffffffffffffffffffffffffffffffffffffffff168273ffffffffffffffffffffffffffffffffffffffff167f8c5be1e5ebec7d5bd14f71427d1e84f3dd0314c0f7b2291e5b200ac8c7c3b92560405160405180910390a45b505b836004600085815260200190815260200160002060006101000a81548173ffffffffffffffffffffffffffffffffffffffff021916908373ffffffffffffffffffffffffffffffffffffffff16021790555050505050565b600080612efb84612ced565b9050600073ffffffffffffffffffffffffffffffffffffffff168373ffffffffffffffffffffffffffffffffffffffff1614612f3d57612f3c8184866132c1565b5b600073ffffffffffffffffffffffffffffffffffffffff168173ffffffffffffffffffffffffffffffffffffffff1614612fce57612f7f600085600080612d2a565b6001600360008373ffffffffffffffffffffffffffffffffffffffff1673ffffffffffffffffffffffffffffffffffffffff168152602001908152602001600020600082825403925050819055505b600073ffffffffffffffffffffffffffffffffffffffff168573ffffffffffffffffffffffffffffffffffffffff1614613051576001600360008773ffffffffffffffffffffffffffffffffffffffff1673ffffffffffffffffffffffffffffffffffffffff168152602001908152602001600020600082825401925050819055505b846002600086815260200190815260200160002060006101000a81548173ffffffffffffffffffffffffffffffffffffffff021916908373ffffffffffffffffffffffffffffffffffffffff160217905550838573ffffffffffffffffffffffffffffffffffffffff168273ffffffffffffffffffffffffffffffffffffffff167fddf252ad1be2c89b69c2b068fc378daa952ba7f163c4a11628f55a4df523b3ef60405160405180910390a4809150509392505050565b6060600084510361312b57604051806020016040528060008152509050613296565b60008261315d57600360028651600461314491906151ff565b61314e91906145eb565b6131589190615270565b613184565b60036002865161316d91906145eb565b6131779190615270565b600461318391906151ff565b5b905060008167ffffffffffffffff8111156131a2576131a161382d565b5b6040519080825280601f01601f1916602001820160405280156131d45781602001600182028036833780820191505090505b50905060018501602082018788518901602081018051600082525b8284101561324a576003840193508351603f8160121c168701518653600186019550603f81600c1c168701518653600186019550603f8160061c168701518653600186019550603f81168701518653600186019550506131ef565b808252891561328a5760038c51066001811461326d576002811461328057613288565b603d6001870353603d6002870353613288565b603d60018703535b505b50505050505080925050505b9392505050565b6132a78383613385565b6132bc6132b261274e565b6000858585612af1565b505050565b6132cc83838361347e565b61338057600073ffffffffffffffffffffffffffffffffffffffff168373ffffffffffffffffffffffffffffffffffffffff160361334157806040517f7e2732890000000000000000000000000000000000000000000000000000000081526004016133389190613aa5565b60405180910390fd5b81816040517f177e802f0000000000000000000000000000000000000000000000000000000081526004016133779291906152a1565b60405180910390fd5b505050565b600073ffffffffffffffffffffffffffffffffffffffff168273ffffffffffffffffffffffffffffffffffffffff16036133f75760006040517f64a0ae920000000000000000000000000000000000000000000000000000000081526004016133ee919061379c565b60405180910390fd5b6000613405838360006127ef565b9050600073ffffffffffffffffffffffffffffffffffffffff168173ffffffffffffffffffffffffffffffffffffffff16146134795760006040517f73c6ac6e000000000000000000000000000000000000000000000000000000008152600401613470919061379c565b60405180910390fd5b505050565b60008073ffffffffffffffffffffffffffffffffffffffff168373ffffffffffffffffffffffffffffffffffffffff161415801561353657508273ffffffffffffffffffffffffffffffffffffffff168473ffffffffffffffffffffffffffffffffffffffff1614806134f757506134f68484612505565b5b8061353557508273ffffffffffffffffffffffffffffffffffffffff1661351d83612711565b73ffffffffffffffffffffffffffffffffffffffff16145b5b90509392505050565b6040518060c0016040528060008152602001606081526020016060815260200160008152602001600081526020016000151581525090565b6000604051905090565b600080fd5b600080fd5b60007fffffffff0000000000000000000000000000000000000000000000000000000082169050919050565b6135c08161358b565b81146135cb57600080fd5b50565b6000813590506135dd816135b7565b92915050565b6000602082840312156135f9576135f8613581565b5b6000613607848285016135ce565b91505092915050565b60008115159050919050565b61362581613610565b82525050565b6000602082019050613640600083018461361c565b92915050565b600081519050919050565b600082825260208201905092915050565b60005b83811015613680578082015181840152602081019050613665565b60008484015250505050565b6000601f19601f8301169050919050565b60006136a882613646565b6136b28185613651565b93506136c2818560208601613662565b6136cb8161368c565b840191505092915050565b600060208201905081810360008301526136f0818461369d565b905092915050565b6000819050919050565b61370b816136f8565b811461371657600080fd5b50565b60008135905061372881613702565b92915050565b60006020828403121561374457613743613581565b5b600061375284828501613719565b91505092915050565b600073ffffffffffffffffffffffffffffffffffffffff82169050919050565b60006137868261375b565b9050919050565b6137968161377b565b82525050565b60006020820190506137b1600083018461378d565b92915050565b6137c08161377b565b81146137cb57600080fd5b50565b6000813590506137dd816137b7565b92915050565b600080604083850312156137fa576137f9613581565b5b6000613808858286016137ce565b925050602061381985828601613719565b9150509250929050565b600080fd5b600080fd5b7f4e487b7100000000000000000000000000000000000000000000000000000000600052604160045260246000fd5b6138658261368c565b810181811067ffffffffffffffff821117156138845761388361382d565b5b80604052505050565b6000613897613577565b90506138a3828261385c565b919050565b600067ffffffffffffffff8211156138c3576138c261382d565b5b6138cc8261368c565b9050602081019050919050565b82818337600083830152505050565b60006138fb6138f6846138a8565b61388d565b90508281526020810184848401111561391757613916613828565b5b6139228482856138d9565b509392505050565b600082601f83011261393f5761393e613823565b5b813561394f8482602086016138e8565b91505092915050565b600080600080600060a0868803121561397457613973613581565b5b600061398288828901613719565b955050602086013567ffffffffffffffff8111156139a3576139a2613586565b5b6139af8882890161392a565b945050604086013567ffffffffffffffff8111156139d0576139cf613586565b5b6139dc8882890161392a565b935050606086013567ffffffffffffffff8111156139fd576139fc613586565b5b613a098882890161392a565b925050608086013567ffffffffffffffff811115613a2a57613a29613586565b5b613a368882890161392a565b9150509295509295909350565b600080600060608486031215613a5c57613a5b613581565b5b6000613a6a868287016137ce565b9350506020613a7b868287016137ce565b9250506040613a8c86828701613719565b9150509250925092565b613a9f816136f8565b82525050565b6000602082019050613aba6000830184613a96565b92915050565b600081519050919050565b600082825260208201905092915050565b6000819050602082019050919050565b613af5816136f8565b82525050565b600082825260208201905092915050565b6000613b1782613646565b613b218185613afb565b9350613b31818560208601613662565b613b3a8161368c565b840191505092915050565b600060c083016000830151613b5d6000860182613aec565b5060208301518482036020860152613b758282613b0c565b91505060408301518482036040860152613b8f8282613b0c565b91505060608301518482036060860152613ba98282613b0c565b91505060808301518482036080860152613bc38282613b0c565b91505060a0830151613bd860a0860182613aec565b508091505092915050565b6000613bef8383613b45565b905092915050565b6000602082019050919050565b6000613c0f82613ac0565b613c198185613acb565b935083602082028501613c2b85613adc565b8060005b85811015613c675784840389528151613c488582613be3565b9450613c5383613bf7565b925060208a01995050600181019050613c2f565b50829750879550505050505092915050565b60006020820190508181036000830152613c938184613c04565b905092915050565b613ca481613610565b8114613caf57600080fd5b50565b600081359050613cc181613c9b565b92915050565b60008060408385031215613cde57613cdd613581565b5b6000613cec85828601613719565b9250506020613cfd85828601613cb2565b9150509250929050565b600060208284031215613d1d57613d1c613581565b5b6000613d2b848285016137ce565b91505092915050565b600081519050919050565b600082825260208201905092915050565b6000819050602082019050919050565b600060a083016000830151613d786000860182613aec565b506020830151613d8b6020860182613aec565b506040830151613d9e6040860182613aec565b5060608301518482036060860152613db68282613b0c565b91505060808301518482036080860152613dd08282613b0c565b9150508091505092915050565b6000613de98383613d60565b905092915050565b6000602082019050919050565b6000613e0982613d34565b613e138185613d3f565b935083602082028501613e2585613d50565b8060005b85811015613e615784840389528151613e428582613ddd565b9450613e4d83613df1565b925060208a01995050600181019050613e29565b50829750879550505050505092915050565b60006020820190508181036000830152613e8d8184613dfe565b905092915050565b600081519050919050565b600082825260208201905092915050565b6000819050602082019050919050565b613eca81613610565b82525050565b600060c083016000830151613ee86000860182613aec565b5060208301518482036020860152613f008282613b0c565b91505060408301518482036040860152613f1a8282613b0c565b9150506060830151613f2f6060860182613aec565b506080830151613f426080860182613aec565b5060a0830151613f5560a0860182613ec1565b508091505092915050565b6000613f6c8383613ed0565b905092915050565b6000602082019050919050565b6000613f8c82613e95565b613f968185613ea0565b935083602082028501613fa885613eb1565b8060005b85811015613fe45784840389528151613fc58582613f60565b9450613fd083613f74565b925060208a01995050600181019050613fac565b50829750879550505050505092915050565b600060208201905081810360008301526140108184613f81565b905092915050565b6000806040838503121561402f5761402e613581565b5b600061403d85828601613719565b925050602061404e858286016137ce565b9150509250929050565b6000806040838503121561406f5761406e613581565b5b600061407d85828601613719565b925050602061408e85828601613719565b9150509250929050565b600060c0820190506140ad6000830189613a96565b81810360208301526140bf818861369d565b905081810360408301526140d3818761369d565b905081810360608301526140e7818661369d565b905081810360808301526140fb818561369d565b905061410a60a0830184613a96565b979650505050505050565b600060c08201905061412a6000830189613a96565b818103602083015261413c818861369d565b90508181036040830152614150818761369d565b905061415f6060830186613a96565b61416c6080830185613a96565b61417960a083018461361c565b979650505050505050565b6000806040838503121561419b5761419a613581565b5b60006141a9858286016137ce565b92505060206141ba85828601613cb2565b9150509250929050565b600080600080608085870312156141de576141dd613581565b5b600085013567ffffffffffffffff8111156141fc576141fb613586565b5b6142088782880161392a565b945050602085013567ffffffffffffffff81111561422957614228613586565b5b6142358782880161392a565b935050604061424687828801613719565b925050606061425787828801613719565b91505092959194509250565b600060a0820190506142786000830188613a96565b6142856020830187613a96565b6142926040830186613a96565b81810360608301526142a4818561369d565b905081810360808301526142b8818461369d565b90509695505050505050565b600067ffffffffffffffff8211156142df576142de61382d565b5b6142e88261368c565b9050602081019050919050565b6000614308614303846142c4565b61388d565b90508281526020810184848401111561432457614323613828565b5b61432f8482856138d9565b509392505050565b600082601f83011261434c5761434b613823565b5b813561435c8482602086016142f5565b91505092915050565b6000806000806080858703121561437f5761437e613581565b5b600061438d878288016137ce565b945050602061439e878288016137ce565b93505060406143af87828801613719565b925050606085013567ffffffffffffffff8111156143d0576143cf613586565b5b6143dc87828801614337565b91505092959194509250565b600080604083850312156143ff576143fe613581565b5b600061440d858286016137ce565b925050602083013567ffffffffffffffff81111561442e5761442d613586565b5b61443a8582860161392a565b9150509250929050565b6000806040838503121561445b5761445a613581565b5b6000614469858286016137ce565b925050602061447a858286016137ce565b9150509250929050565b7f4e487b7100000000000000000000000000000000000000000000000000000000600052602260045260246000fd5b600060028204905060018216806144cb57607f821691505b6020821081036144de576144dd614484565b5b50919050565b7f496e76616c69642073657373696f6e2049440000000000000000000000000000600082015250565b600061451a601283613651565b9150614525826144e4565b602082019050919050565b600060208201905081810360008301526145498161450d565b9050919050565b7f53657373696f6e206973206e6f74206163746976650000000000000000000000600082015250565b6000614586601583613651565b915061459182614550565b602082019050919050565b600060208201905081810360008301526145b581614579565b9050919050565b7f4e487b7100000000000000000000000000000000000000000000000000000000600052601160045260246000fd5b60006145f6826136f8565b9150614601836136f8565b9250828201905080821115614619576146186145bc565b5b92915050565b60008190508160005260206000209050919050565b60006020601f8301049050919050565b600082821b905092915050565b6000600883026146817fffffffffffffffffffffffffffffffffffffffffffffffffffffffffffffffff82614644565b61468b8683614644565b95508019841693508086168417925050509392505050565b6000819050919050565b60006146c86146c36146be846136f8565b6146a3565b6136f8565b9050919050565b6000819050919050565b6146e2836146ad565b6146f66146ee826146cf565b848454614651565b825550505050565b600090565b61470b6146fe565b6147168184846146d9565b505050565b5b8181101561473a5761472f600082614703565b60018101905061471c565b5050565b601f82111561477f576147508161461f565b61475984614634565b81016020851015614768578190505b61477c61477485614634565b83018261471b565b50505b505050565b600082821c905092915050565b60006147a260001984600802614784565b1980831691505092915050565b60006147bb8383614791565b9150826002028217905092915050565b6147d482613646565b67ffffffffffffffff8111156147ed576147ec61382d565b5b6147f782546144b3565b61480282828561473e565b600060209050601f8311600181146148355760008415614823578287015190505b61482d85826147af565b865550614895565b601f1984166148438661461f565b60005b8281101561486b57848901518255600182019150602085019450602081019050614846565b868310156148885784890151614884601f891682614791565b8355505b6001600288020188555050505b505050505050565b60006060820190506148b26000830186613a96565b81810360208301526148c4818561369d565b905081810360408301526148d8818461369d565b9050949350505050565b60006060820190506148f7600083018661378d565b6149046020830185613a96565b614911604083018461378d565b949350505050565b6000614924826136f8565b915061492f836136f8565b9250828203905081811115614947576149466145bc565b5b92915050565b7f4e487b7100000000000000000000000000000000000000000000000000000000600052603260045260246000fd5b6000614987826136f8565b91507fffffffffffffffffffffffffffffffffffffffffffffffffffffffffffffffff82036149b9576149b86145bc565b5b600182019050919050565b600060608201905081810360008301526149de818661369d565b90506149ed6020830185613a96565b6149fa6040830184613a96565b949350505050565b7f53657373696f6e20697320636c6f736564000000000000000000000000000000600082015250565b6000614a38601183613651565b9150614a4382614a02565b602082019050919050565b60006020820190508181036000830152614a6781614a2b565b9050919050565b7f566f74696e6720686173206e6f74207374617274656400000000000000000000600082015250565b6000614aa4601683613651565b9150614aaf82614a6e565b602082019050919050565b60006020820190508181036000830152614ad381614a97565b9050919050565b7f566f74696e672068617320656e64656400000000000000000000000000000000600082015250565b6000614b10601083613651565b9150614b1b82614ada565b602082019050919050565b60006020820190508181036000830152614b3f81614b03565b9050919050565b7f596f75206861766520616c726561647920766f74656420696e2074686973207360008201527f657373696f6e0000000000000000000000000000000000000000000000000000602082015250565b6000614ba2602683613651565b9150614bad82614b46565b604082019050919050565b60006020820190508181036000830152614bd181614b95565b9050919050565b7f596f75206d75737420686f6c6420612053747564656e74204e465420746f207660008201527f6f74650000000000000000000000000000000000000000000000000000000000602082015250565b6000614c34602383613651565b9150614c3f82614bd8565b604082019050919050565b60006020820190508181036000830152614c6381614c27565b9050919050565b7f496e76616c69642063616e646964617465204944000000000000000000000000600082015250565b6000614ca0601483613651565b9150614cab82614c6a565b602082019050919050565b60006020820190508181036000830152614ccf81614c93565b9050919050565b600081905092915050565b7f7b226e616d65223a202253747564656e742049443a2000000000000000000000600082015250565b6000614d17601683614cd6565b9150614d2282614ce1565b601682019050919050565b6000614d3882613646565b614d428185614cd6565b9350614d52818560208601613662565b80840191505092915050565b7f222c000000000000000000000000000000000000000000000000000000000000600082015250565b6000614d94600283614cd6565b9150614d9f82614d5e565b600282019050919050565b7f226465736372697074696f6e223a20224469676974616c204964656e7469747960008201527f20666f722053747564656e742049442000000000000000000000000000000000602082015250565b6000614e06603083614cd6565b9150614e1182614daa565b603082019050919050565b7f2e20566572696669656420627920556e69766572736974792e222c0000000000600082015250565b6000614e52601b83614cd6565b9150614e5d82614e1c565b601b82019050919050565b7f2261747472696275746573223a205b7b2274726169745f74797065223a20225360008201527f747564656e74204944222c202276616c7565223a202200000000000000000000602082015250565b6000614ec4603683614cd6565b9150614ecf82614e68565b603682019050919050565b7f227d5d7d00000000000000000000000000000000000000000000000000000000600082015250565b6000614f10600483614cd6565b9150614f1b82614eda565b600482019050919050565b6000614f3182614d0a565b9150614f3d8286614d2d565b9150614f4882614d87565b9150614f5382614df9565b9150614f5f8285614d2d565b9150614f6a82614e45565b9150614f7582614eb7565b9150614f818284614d2d565b9150614f8c82614f03565b9150819050949350505050565b7f646174613a6170706c69636174696f6e2f6a736f6e3b6261736536342c000000600082015250565b6000614fcf601d83614cd6565b9150614fda82614f99565b601d82019050919050565b6000614ff082614fc2565b9150614ffc8284614d2d565b915081905092915050565b60006150138284614d2d565b915081905092915050565b7f53747564656e7420494420616c72656164792068617320616e204e4654000000600082015250565b6000615054601d83613651565b915061505f8261501e565b602082019050919050565b6000602082019050818103600083015261508381615047565b9050919050565b7f566f74696e6753797374656d3a20536f756c626f756e6420746f6b656e20636160008201527f6e6e6f74206265207472616e7366657272656400000000000000000000000000602082015250565b60006150e6603383613651565b91506150f18261508a565b604082019050919050565b60006020820190508181036000830152615115816150d9565b9050919050565b600081519050919050565b600082825260208201905092915050565b60006151438261511c565b61514d8185615127565b935061515d818560208601613662565b6151668161368c565b840191505092915050565b6000608082019050615186600083018761378d565b615193602083018661378d565b6151a06040830185613a96565b81810360608301526151b28184615138565b905095945050505050565b6000815190506151cc816135b7565b92915050565b6000602082840312156151e8576151e7613581565b5b60006151f6848285016151bd565b91505092915050565b600061520a826136f8565b9150615215836136f8565b9250828202615223816136f8565b9150828204841483151761523a576152396145bc565b5b5092915050565b7f4e487b7100000000000000000000000000000000000000000000000000000000600052601260045260246000fd5b600061527b826136f8565b9150615286836136f8565b92508261529657615295615241565b5b828204905092915050565b60006040820190506152b6600083018561378d565b6152c36020830184613a96565b939250505056fe4142434445464748494a4b4c4d4e4f505152535455565758595a6162636465666768696a6b6c6d6e6f707172737475767778797a303132333435363738392b2fa264697066735822122002b49b20e4b5007b5bfe1b1a9e8607d1d4104ac3d1e9c499f434e3d603bee31b64736f6c634300081c0033",
  "linkReferences": {},
  "deployedLinkReferences": {}
}